{
  "address": "0xE426E6cE71D1883B6F3104AD581a61A3c6C32b83",
  "abi": [
    {
      "inputs": [
        {
          "internalType": "address",
          "name": "_allowedErc20Token",
          "type": "address"
        },
        {
          "internalType": "address",
          "name": "_businessAddress",
          "type": "address"
        },
        {
          "internalType": "address",
          "name": "_treasuryAddress",
          "type": "address"
        },
        {
          "internalType": "uint256",
          "name": "_feeFraction",
          "type": "uint256"
        },
        {
          "internalType": "uint256[]",
          "name": "_amountsToBeRaised",
          "type": "uint256[]"
        },
        {
          "internalType": "uint256[]",
          "name": "_campaignAndDecisionPeriod",
          "type": "uint256[]"
        },
        {
          "components": [
            {
              "internalType": "uint256",
              "name": "fundingTier",
              "type": "uint256"
            },
            {
              "internalType": "uint256",
              "name": "tierCost",
              "type": "uint256"
            }
          ],
          "internalType": "struct IFundABusiness.FundingTierCost[]",
          "name": "_fundingTiers",
          "type": "tuple[]"
        },
        {
          "components": [
            {
              "internalType": "uint256",
              "name": "milestoneNumber",
              "type": "uint256"
            },
            {
              "internalType": "uint256",
              "name": "fractionToBeReleased",
              "type": "uint256"
            }
          ],
          "internalType": "struct IFundABusiness.MilestoneStruct[]",
          "name": "_milestonesData",
          "type": "tuple[]"
        }
      ],
      "stateMutability": "nonpayable",
      "type": "constructor"
    },
    {
      "inputs": [],
      "name": "AlreadyApproved",
      "type": "error"
    },
    {
      "inputs": [],
      "name": "CampaignEnded",
      "type": "error"
    },
    {
      "inputs": [],
      "name": "CampaignNotOpen",
      "type": "error"
    },
    {
      "inputs": [],
      "name": "CampaignUnsuccessful",
      "type": "error"
    },
    {
      "inputs": [],
      "name": "DecisionMade",
      "type": "error"
    },
    {
      "inputs": [],
      "name": "FractionTooHigh",
      "type": "error"
    },
    {
      "inputs": [],
      "name": "FunderHasClaimedNft",
      "type": "error"
    },
    {
      "inputs": [],
      "name": "InsufficientBalance",
      "type": "error"
    },
    {
      "inputs": [],
      "name": "InvalidTierAndQuantity",
      "type": "error"
    },
    {
      "inputs": [],
      "name": "InvalidValues",
      "type": "error"
    },
    {
      "inputs": [],
      "name": "NeedMoreTokens",
      "type": "error"
    },
    {
      "inputs": [],
      "name": "NftTokensNotSet",
      "type": "error"
    },
    {
      "inputs": [],
      "name": "NoFundDue",
      "type": "error"
    },
    {
      "inputs": [],
      "name": "NoRefund",
      "type": "error"
    },
    {
      "inputs": [],
      "name": "NotAFunder",
      "type": "error"
    },
    {
      "inputs": [],
      "name": "NotReceivingFunds",
      "type": "error"
    },
    {
      "inputs": [],
      "name": "NotTheOwner",
      "type": "error"
    },
    {
      "inputs": [],
      "name": "ReleasingMoreThanFundRaised",
      "type": "error"
    },
    {
      "inputs": [],
      "name": "TooLateToChange",
      "type": "error"
    },
    {
      "inputs": [],
      "name": "TransactionFailed",
      "type": "error"
    },
    {
      "inputs": [],
      "name": "Undecided",
      "type": "error"
    },
    {
      "inputs": [],
      "name": "ZeroAddress",
      "type": "error"
    },
    {
      "anonymous": false,
      "inputs": [
        {
          "indexed": false,
          "internalType": "address",
          "name": "funder",
          "type": "address"
        },
        {
          "indexed": false,
          "internalType": "uint256",
          "name": "tier",
          "type": "uint256"
        }
      ],
      "name": "ContributionReceived",
      "type": "event"
    },
    {
      "anonymous": false,
      "inputs": [
        {
          "indexed": false,
          "internalType": "address",
          "name": "funder",
          "type": "address"
        },
        {
          "indexed": false,
          "internalType": "uint256",
          "name": "tier",
          "type": "uint256"
        }
      ],
      "name": "ContributionRefunded",
      "type": "event"
    },
    {
      "anonymous": false,
      "inputs": [
        {
          "indexed": false,
          "internalType": "address",
          "name": "funder",
          "type": "address"
        },
        {
          "indexed": false,
          "internalType": "uint256",
          "name": "amount",
          "type": "uint256"
        }
      ],
      "name": "FiatContributionReceived",
      "type": "event"
    },
    {
      "anonymous": false,
      "inputs": [
        {
          "indexed": false,
          "internalType": "address",
          "name": "business",
          "type": "address"
        },
        {
          "indexed": false,
          "internalType": "uint256",
          "name": "amount",
          "type": "uint256"
        },
        {
          "indexed": false,
          "internalType": "uint256",
          "name": "time",
          "type": "uint256"
        }
      ],
      "name": "FundReleased",
      "type": "event"
    },
    {
      "anonymous": false,
      "inputs": [
        {
          "indexed": false,
          "internalType": "address",
          "name": "funder",
          "type": "address"
        },
        {
          "indexed": false,
          "internalType": "uint256",
          "name": "tier",
          "type": "uint256"
        }
      ],
      "name": "NFTRewardClaimed",
      "type": "event"
    },
    {
      "anonymous": false,
      "inputs": [
        {
          "indexed": false,
          "internalType": "address",
          "name": "account",
          "type": "address"
        }
      ],
      "name": "Paused",
      "type": "event"
    },
    {
      "anonymous": false,
      "inputs": [
        {
          "indexed": true,
          "internalType": "bytes32",
          "name": "role",
          "type": "bytes32"
        },
        {
          "indexed": true,
          "internalType": "bytes32",
          "name": "previousAdminRole",
          "type": "bytes32"
        },
        {
          "indexed": true,
          "internalType": "bytes32",
          "name": "newAdminRole",
          "type": "bytes32"
        }
      ],
      "name": "RoleAdminChanged",
      "type": "event"
    },
    {
      "anonymous": false,
      "inputs": [
        {
          "indexed": true,
          "internalType": "bytes32",
          "name": "role",
          "type": "bytes32"
        },
        {
          "indexed": true,
          "internalType": "address",
          "name": "account",
          "type": "address"
        },
        {
          "indexed": true,
          "internalType": "address",
          "name": "sender",
          "type": "address"
        }
      ],
      "name": "RoleGranted",
      "type": "event"
    },
    {
      "anonymous": false,
      "inputs": [
        {
          "indexed": true,
          "internalType": "bytes32",
          "name": "role",
          "type": "bytes32"
        },
        {
          "indexed": true,
          "internalType": "address",
          "name": "account",
          "type": "address"
        },
        {
          "indexed": true,
          "internalType": "address",
          "name": "sender",
          "type": "address"
        }
      ],
      "name": "RoleRevoked",
      "type": "event"
    },
    {
      "anonymous": false,
      "inputs": [
        {
          "indexed": true,
          "internalType": "address",
          "name": "owner",
          "type": "address"
        },
        {
          "indexed": false,
          "internalType": "uint256",
          "name": "tier",
          "type": "uint256"
        },
        {
          "indexed": false,
          "internalType": "uint256",
          "name": "tokenId",
          "type": "uint256"
        }
      ],
      "name": "TheOwnerIs",
      "type": "event"
    },
    {
      "anonymous": false,
      "inputs": [
        {
          "indexed": false,
          "internalType": "address",
          "name": "account",
          "type": "address"
        }
      ],
      "name": "Unpaused",
      "type": "event"
    },
    {
      "inputs": [],
      "name": "DEFAULT_ADMIN_ROLE",
      "outputs": [
        {
          "internalType": "bytes32",
          "name": "",
          "type": "bytes32"
        }
      ],
      "stateMutability": "view",
      "type": "function"
    },
    {
      "inputs": [],
      "name": "MANAGER_ROLE",
      "outputs": [
        {
          "internalType": "bytes32",
          "name": "",
          "type": "bytes32"
        }
      ],
      "stateMutability": "view",
      "type": "function"
    },
    {
      "inputs": [],
      "name": "PAUSER_ROLE",
      "outputs": [
        {
          "internalType": "bytes32",
          "name": "",
          "type": "bytes32"
        }
      ],
      "stateMutability": "view",
      "type": "function"
    },
    {
      "inputs": [],
      "name": "allowedErc20Token",
      "outputs": [
        {
          "internalType": "contract IERC20",
          "name": "",
          "type": "address"
        }
      ],
      "stateMutability": "view",
      "type": "function"
    },
    {
      "inputs": [
        {
          "internalType": "uint256",
          "name": "_milestoneNumber",
          "type": "uint256"
        }
      ],
      "name": "approveMilestoneAndReleaseFund",
      "outputs": [],
      "stateMutability": "nonpayable",
      "type": "function"
    },
    {
      "inputs": [],
      "name": "businessAddress",
      "outputs": [
        {
          "internalType": "address",
          "name": "",
          "type": "address"
        }
      ],
      "stateMutability": "view",
      "type": "function"
    },
    {
      "inputs": [
        {
          "internalType": "address",
          "name": "",
          "type": "address"
        }
      ],
      "name": "businessBalance",
      "outputs": [
        {
          "internalType": "uint256",
          "name": "",
          "type": "uint256"
        }
      ],
      "stateMutability": "view",
      "type": "function"
    },
    {
      "inputs": [],
      "name": "campaignDecisionTime",
      "outputs": [
        {
          "internalType": "uint256",
          "name": "",
          "type": "uint256"
        }
      ],
      "stateMutability": "view",
      "type": "function"
    },
    {
      "inputs": [],
      "name": "campaignEndTime",
      "outputs": [
        {
          "internalType": "uint256",
          "name": "",
          "type": "uint256"
        }
      ],
      "stateMutability": "view",
      "type": "function"
    },
    {
      "inputs": [],
      "name": "campaignStartTime",
      "outputs": [
        {
          "internalType": "uint256",
          "name": "",
          "type": "uint256"
        }
      ],
      "stateMutability": "view",
      "type": "function"
    },
    {
      "inputs": [
        {
          "internalType": "uint256",
          "name": "_tier",
          "type": "uint256"
        }
      ],
      "name": "claimNft",
      "outputs": [],
      "stateMutability": "nonpayable",
      "type": "function"
    },
    {
      "inputs": [
        {
          "internalType": "address",
          "name": "_funder",
          "type": "address"
        },
        {
          "internalType": "uint256",
          "name": "_tier",
          "type": "uint256"
        }
      ],
      "name": "claimNftFor",
      "outputs": [],
      "stateMutability": "nonpayable",
      "type": "function"
    },
    {
      "inputs": [
        {
          "internalType": "uint256",
          "name": "_tier",
          "type": "uint256"
        }
      ],
      "name": "claimRefund",
      "outputs": [],
      "stateMutability": "nonpayable",
      "type": "function"
    },
    {
      "inputs": [
        {
          "internalType": "address",
          "name": "_funder",
          "type": "address"
        },
        {
          "internalType": "uint256",
          "name": "_tier",
          "type": "uint256"
        }
      ],
      "name": "claimRefundFor",
      "outputs": [],
      "stateMutability": "nonpayable",
      "type": "function"
    },
    {
      "inputs": [
        {
          "internalType": "enum IFundABusiness.EndCampaign",
          "name": "_reasonForEnding",
          "type": "uint8"
        }
      ],
      "name": "closeFundingRound",
      "outputs": [],
      "stateMutability": "nonpayable",
      "type": "function"
    },
    {
      "inputs": [
        {
          "internalType": "uint256",
          "name": "_tier",
          "type": "uint256"
        },
        {
          "internalType": "uint256",
          "name": "_quantity",
          "type": "uint256"
        }
      ],
      "name": "contribute",
      "outputs": [],
      "stateMutability": "nonpayable",
      "type": "function"
    },
    {
      "inputs": [
        {
          "internalType": "address",
          "name": "_funder",
          "type": "address"
        },
        {
          "internalType": "uint256",
          "name": "_tier",
          "type": "uint256"
        },
        {
          "internalType": "uint256",
          "name": "_quantity",
          "type": "uint256"
        }
      ],
      "name": "contributeOnBehalfOf",
      "outputs": [],
      "stateMutability": "nonpayable",
      "type": "function"
    },
    {
      "inputs": [],
      "name": "cumFundReleased",
      "outputs": [
        {
          "internalType": "uint256",
          "name": "",
          "type": "uint256"
        }
      ],
      "stateMutability": "view",
      "type": "function"
    },
    {
      "inputs": [
        {
          "internalType": "address[]",
          "name": "_funders",
          "type": "address[]"
        },
        {
          "internalType": "uint256[]",
          "name": "_tiers",
          "type": "uint256[]"
        },
        {
          "internalType": "uint256[]",
          "name": "_quantities",
          "type": "uint256[]"
        },
        {
          "internalType": "uint256",
          "name": "_totalAmount",
          "type": "uint256"
        }
      ],
      "name": "fiatContributeOnBehalfOf",
      "outputs": [],
      "stateMutability": "nonpayable",
      "type": "function"
    },
    {
      "inputs": [
        {
          "internalType": "uint256",
          "name": "",
          "type": "uint256"
        }
      ],
      "name": "fractionOfMilestone",
      "outputs": [
        {
          "internalType": "uint256",
          "name": "",
          "type": "uint256"
        }
      ],
      "stateMutability": "view",
      "type": "function"
    },
    {
      "inputs": [],
      "name": "fundRaised",
      "outputs": [
        {
          "internalType": "uint256",
          "name": "",
          "type": "uint256"
        }
      ],
      "stateMutability": "view",
      "type": "function"
    },
    {
      "inputs": [],
      "name": "fundRaisedMinusFee",
      "outputs": [
        {
          "internalType": "uint256",
          "name": "",
          "type": "uint256"
        }
      ],
      "stateMutability": "view",
      "type": "function"
    },
    {
      "inputs": [],
      "name": "getFundersAddresses",
      "outputs": [
        {
          "internalType": "address[]",
          "name": "",
          "type": "address[]"
        }
      ],
      "stateMutability": "view",
      "type": "function"
    },
    {
      "inputs": [
        {
          "internalType": "bytes32",
          "name": "role",
          "type": "bytes32"
        }
      ],
      "name": "getRoleAdmin",
      "outputs": [
        {
          "internalType": "bytes32",
          "name": "",
          "type": "bytes32"
        }
      ],
      "stateMutability": "view",
      "type": "function"
    },
    {
      "inputs": [
        {
          "internalType": "bytes32",
          "name": "role",
          "type": "bytes32"
        },
        {
          "internalType": "address",
          "name": "account",
          "type": "address"
        }
      ],
      "name": "grantRole",
      "outputs": [],
      "stateMutability": "nonpayable",
      "type": "function"
    },
    {
      "inputs": [
        {
          "internalType": "address",
          "name": "",
          "type": "address"
        },
        {
          "internalType": "uint256",
          "name": "",
          "type": "uint256"
        }
      ],
      "name": "hasClaimedNft",
      "outputs": [
        {
          "internalType": "bool",
          "name": "",
          "type": "bool"
        }
      ],
      "stateMutability": "view",
      "type": "function"
    },
    {
      "inputs": [
        {
          "internalType": "bytes32",
          "name": "role",
          "type": "bytes32"
        },
        {
          "internalType": "address",
          "name": "account",
          "type": "address"
        }
      ],
      "name": "hasRole",
      "outputs": [
        {
          "internalType": "bool",
          "name": "",
          "type": "bool"
        }
      ],
      "stateMutability": "view",
      "type": "function"
    },
    {
      "inputs": [
        {
          "internalType": "address",
          "name": "",
          "type": "address"
        }
      ],
      "name": "isAFunder",
      "outputs": [
        {
          "internalType": "bool",
          "name": "",
          "type": "bool"
        }
      ],
      "stateMutability": "view",
      "type": "function"
    },
    {
      "inputs": [
        {
          "internalType": "uint256",
          "name": "",
          "type": "uint256"
        }
      ],
      "name": "isMilestoneApproved",
      "outputs": [
        {
          "internalType": "bool",
          "name": "",
          "type": "bool"
        }
      ],
      "stateMutability": "view",
      "type": "function"
    },
    {
      "inputs": [
        {
          "internalType": "uint256",
          "name": "_tier",
          "type": "uint256"
        },
        {
          "internalType": "uint256",
          "name": "_tokenId",
          "type": "uint256"
        }
      ],
      "name": "isOwnerOf",
      "outputs": [],
      "stateMutability": "nonpayable",
      "type": "function"
    },
    {
      "inputs": [],
      "name": "minTargetAmount",
      "outputs": [
        {
          "internalType": "uint256",
          "name": "",
          "type": "uint256"
        }
      ],
      "stateMutability": "view",
      "type": "function"
    },
    {
      "inputs": [],
      "name": "moatFeeNumerator",
      "outputs": [
        {
          "internalType": "uint256",
          "name": "",
          "type": "uint256"
        }
      ],
      "stateMutability": "view",
      "type": "function"
    },
    {
      "inputs": [
        {
          "internalType": "uint256",
          "name": "",
          "type": "uint256"
        }
      ],
      "name": "nftContractOf",
      "outputs": [
        {
          "internalType": "contract INftPerks",
          "name": "",
          "type": "address"
        }
      ],
      "stateMutability": "view",
      "type": "function"
    },
    {
      "inputs": [],
      "name": "pause",
      "outputs": [],
      "stateMutability": "nonpayable",
      "type": "function"
    },
    {
      "inputs": [],
      "name": "paused",
      "outputs": [
        {
          "internalType": "bool",
          "name": "",
          "type": "bool"
        }
      ],
      "stateMutability": "view",
      "type": "function"
    },
    {
      "inputs": [
        {
          "internalType": "bytes32",
          "name": "role",
          "type": "bytes32"
        },
        {
          "internalType": "address",
          "name": "account",
          "type": "address"
        }
      ],
      "name": "renounceRole",
      "outputs": [],
      "stateMutability": "nonpayable",
      "type": "function"
    },
    {
      "inputs": [
        {
          "internalType": "bytes32",
          "name": "role",
          "type": "bytes32"
        },
        {
          "internalType": "address",
          "name": "account",
          "type": "address"
        }
      ],
      "name": "revokeRole",
      "outputs": [],
      "stateMutability": "nonpayable",
      "type": "function"
    },
    {
      "inputs": [
        {
          "internalType": "address",
          "name": "_allowedErc20Token",
          "type": "address"
        }
      ],
      "name": "setAllowedToken",
      "outputs": [],
      "stateMutability": "nonpayable",
      "type": "function"
    },
    {
      "inputs": [
        {
          "internalType": "address",
          "name": "_businessAddress",
          "type": "address"
        }
      ],
      "name": "setBusinessAddress",
      "outputs": [],
      "stateMutability": "nonpayable",
      "type": "function"
    },
    {
      "inputs": [
        {
          "internalType": "uint256[]",
          "name": "_campaignTimesAndDecision",
          "type": "uint256[]"
        }
      ],
      "name": "setCampaignAndDecisionPeriod",
      "outputs": [],
      "stateMutability": "nonpayable",
      "type": "function"
    },
    {
      "inputs": [
        {
          "components": [
            {
              "internalType": "uint256",
              "name": "fundingTier",
              "type": "uint256"
            },
            {
              "internalType": "uint256",
              "name": "tierCost",
              "type": "uint256"
            }
          ],
          "internalType": "struct IFundABusiness.FundingTierCost[]",
          "name": "_fundingTiers",
          "type": "tuple[]"
        }
      ],
      "name": "setFundingTiersAndCosts",
      "outputs": [],
      "stateMutability": "nonpayable",
      "type": "function"
    },
    {
      "inputs": [
        {
          "components": [
            {
              "internalType": "uint256",
              "name": "milestoneNumber",
              "type": "uint256"
            },
            {
              "internalType": "uint256",
              "name": "fractionToBeReleased",
              "type": "uint256"
            }
          ],
          "internalType": "struct IFundABusiness.MilestoneStruct[]",
          "name": "_milestonesData",
          "type": "tuple[]"
        }
      ],
      "name": "setMilestones",
      "outputs": [],
      "stateMutability": "nonpayable",
      "type": "function"
    },
    {
      "inputs": [
        {
          "internalType": "uint256",
          "name": "_feeFraction",
          "type": "uint256"
        }
      ],
      "name": "setMoatFee",
      "outputs": [],
      "stateMutability": "nonpayable",
      "type": "function"
    },
    {
      "inputs": [
        {
          "components": [
            {
              "internalType": "uint256",
              "name": "fundingTier",
              "type": "uint256"
            },
            {
              "internalType": "address",
              "name": "nftTokenAddress",
              "type": "address"
            }
          ],
          "internalType": "struct IFundABusiness.NftTierContract[]",
          "name": "_nftTierContracts",
          "type": "tuple[]"
        }
      ],
      "name": "setNftPerkContracts",
      "outputs": [],
      "stateMutability": "nonpayable",
      "type": "function"
    },
    {
      "inputs": [
        {
          "internalType": "uint256[]",
          "name": "_amountsToBeRaised",
          "type": "uint256[]"
        }
      ],
      "name": "setTargetAmounts",
      "outputs": [],
      "stateMutability": "nonpayable",
      "type": "function"
    },
    {
      "inputs": [
        {
          "internalType": "address",
          "name": "_treasuryAddress",
          "type": "address"
        }
      ],
      "name": "setTreasuryAddress",
      "outputs": [],
      "stateMutability": "nonpayable",
      "type": "function"
    },
    {
      "inputs": [
        {
          "internalType": "bytes4",
          "name": "interfaceId",
          "type": "bytes4"
        }
      ],
      "name": "supportsInterface",
      "outputs": [
        {
          "internalType": "bool",
          "name": "",
          "type": "bool"
        }
      ],
      "stateMutability": "view",
      "type": "function"
    },
    {
      "inputs": [],
      "name": "targetAmount",
      "outputs": [
        {
          "internalType": "uint256",
          "name": "",
          "type": "uint256"
        }
      ],
      "stateMutability": "view",
      "type": "function"
    },
    {
      "inputs": [
        {
          "internalType": "address",
          "name": "",
          "type": "address"
        },
        {
          "internalType": "uint256",
          "name": "",
          "type": "uint256"
        }
      ],
      "name": "tierBalanceOf",
      "outputs": [
        {
          "internalType": "uint256",
          "name": "",
          "type": "uint256"
        }
      ],
      "stateMutability": "view",
      "type": "function"
    },
    {
      "inputs": [
        {
          "internalType": "uint256",
          "name": "",
          "type": "uint256"
        }
      ],
      "name": "tierCost",
      "outputs": [
        {
          "internalType": "uint256",
          "name": "",
          "type": "uint256"
        }
      ],
      "stateMutability": "view",
      "type": "function"
    },
    {
      "inputs": [],
      "name": "unpause",
      "outputs": [],
      "stateMutability": "nonpayable",
      "type": "function"
    },
    {
      "inputs": [],
      "name": "verdict",
      "outputs": [
        {
          "internalType": "enum IFundABusiness.CampaignState",
          "name": "",
          "type": "uint8"
        }
      ],
      "stateMutability": "view",
      "type": "function"
    },
    {
      "inputs": [],
      "name": "withdrawFundRaised",
      "outputs": [],
      "stateMutability": "nonpayable",
      "type": "function"
    },
    {
      "stateMutability": "payable",
      "type": "receive"
    }
  ],
  "transactionHash": "0x728ccdf40a77232e00e3ce89b31523cc7273834459f0800bda25dc07fb0bbcfa",
  "args": [
    "0xcBd1c83AbfE43E3b4Ad0f790e67e369d8F2faDE7",
    "0xAC59544C7ab4116A319991E6792040fb530B1d1c",
    "0xF5a371Da53eB54493C1FfAd90995c0474743f416",
    10000,
    [
      "1000000000000000000000",
      "100000000000000000000000"
    ],
    [
      1680714000,
      1680807600,
      79200
    ],
    [
      [
        1,
        "100000000000000000000"
      ],
      [
        2,
        "200000000000000000000"
      ],
      [
        3,
        "300000000000000000000"
      ]
    ],
    [
      [
        0,
        20000
      ],
      [
        1,
        30000
      ],
      [
        2,
        40000
      ],
      [
        3,
        10000
      ]
    ]
  ],
  "numDeployments": 1,
  "solcInputHash": "6b9f6925208dea98ac1f573aa6a56962",
  "bytecode": "0x6080604052600f805461ffff191690553480156200001c57600080fd5b5060405162004156380380620041568339810160408190526200003f9162000a91565b600180556002805460ff191690558251600314620000705760405163516e361d60e11b815260040160405180910390fd5b8260008151811062000086576200008662000b8d565b602002602001015160058190555082600181518110620000aa57620000aa62000b8d565b60200260200101516006819055506200010c83600281518110620000d257620000d262000b8d565b602002602001015184600181518110620000f057620000f062000b8d565b6020026020010151620001cc60201b62001f3b1790919060201c565b6007556200011c600033620001e3565b620001376000805160206200413683398151915233620001e3565b620001637f65d7a28e3265b37a6474929f336521b332c1681b933f6cb9f3376673440d862a33620001e3565b6200016e8862000284565b6200017984620002f4565b6200018482620003a2565b6200018f866200045f565b6200019a87620004cd565b620001a58162000535565b620001b0856200060e565b5050601a805460ff191660021790555062000cfb945050505050565b6000620001da828462000bb9565b90505b92915050565b6000828152602081815260408083206001600160a01b038516845290915290205460ff1662000280576000828152602081815260408083206001600160a01b03851684529091529020805460ff191660011790556200023f3390565b6001600160a01b0316816001600160a01b0316837f2f8788117e7eff1d82e926ec794901d17c78024a50270940304540a733656f0d60405160405180910390a45b5050565b600080516020620041368339815191526200029f8162000678565b816001600160a01b038116620002c85760405163d92e233d60e01b815260040160405180910390fd5b5050600f80546001600160a01b03909216620100000262010000600160b01b0319909216919091179055565b600080516020620041368339815191526200030f8162000678565b600754421115620003335760405163488e80ff60e01b815260040160405180910390fd5b8151600214620003565760405163516e361d60e11b815260040160405180910390fd5b816000815181106200036c576200036c62000b8d565b60200260200101516008819055508160018151811062000390576200039062000b8d565b60200260200101516009819055505050565b60008051602062004136833981519152620003bd8162000678565b600554421115620003e15760405163488e80ff60e01b815260040160405180910390fd5b60005b82518110156200045a5782818151811062000403576200040362000b8d565b6020026020010151602001516011600085848151811062000428576200042862000b8d565b60200260200101516000015181526020019081526020016000208190555080620004529062000bcf565b9050620003e4565b505050565b600080516020620041368339815191526200047a8162000678565b816001600160a01b038116620004a35760405163d92e233d60e01b815260040160405180910390fd5b5050600280546001600160a01b0390921661010002610100600160a81b0319909216919091179055565b60008051602062004136833981519152620004e88162000678565b816001600160a01b038116620005115760405163d92e233d60e01b815260040160405180910390fd5b5050600380546001600160a01b0319166001600160a01b0392909216919091179055565b60008051602062004136833981519152620005508162000678565b60005b82518110156200045a57620186a083828151811062000576576200057662000b8d565b6020026020010151602001511115620005a2576040516336d85bb560e11b815260040160405180910390fd5b828181518110620005b757620005b762000b8d565b60200260200101516020015160156000858481518110620005dc57620005dc62000b8d565b60200260200101516000015181526020019081526020016000208190555080620006069062000bcf565b905062000553565b60008051602062004136833981519152620006298162000678565b620186a08211156200064e5760405163516e361d60e11b815260040160405180910390fd5b600554421115620006725760405163488e80ff60e01b815260040160405180910390fd5b50600c55565b62000684813362000687565b50565b6000828152602081815260408083206001600160a01b038516845290915290205460ff166200028057620006c6816200072060201b62001f4e1760201c565b620006dc83602062001f6062000733821b17811c565b604051602001620006ef92919062000c11565b60408051601f198184030181529082905262461bcd60e51b8252620007179160040162000c8a565b60405180910390fd5b6060620001dd6001600160a01b03831660145b606060006200074483600262000cbf565b6200075190600262000bb9565b6001600160401b038111156200076b576200076b62000909565b6040519080825280601f01601f19166020018201604052801562000796576020820181803683370190505b509050600360fc1b81600081518110620007b457620007b462000b8d565b60200101906001600160f81b031916908160001a905350600f60fb1b81600181518110620007e657620007e662000b8d565b60200101906001600160f81b031916908160001a90535060006200080c84600262000cbf565b6200081990600162000bb9565b90505b60018111156200089b576f181899199a1a9b1b9c1cb0b131b232b360811b85600f166010811062000851576200085162000b8d565b1a60f81b8282815181106200086a576200086a62000b8d565b60200101906001600160f81b031916908160001a90535060049490941c93620008938162000ce1565b90506200081c565b508315620001da5760405162461bcd60e51b815260206004820181905260248201527f537472696e67733a20686578206c656e67746820696e73756666696369656e74604482015260640162000717565b80516001600160a01b03811681146200090457600080fd5b919050565b634e487b7160e01b600052604160045260246000fd5b604051601f8201601f191681016001600160401b03811182821017156200094a576200094a62000909565b604052919050565b60006001600160401b038211156200096e576200096e62000909565b5060051b60200190565b600082601f8301126200098a57600080fd5b81516020620009a36200099d8362000952565b6200091f565b82815260059290921b84018101918181019086841115620009c357600080fd5b8286015b84811015620009e05780518352918301918301620009c7565b509695505050505050565b600082601f830112620009fd57600080fd5b8151602062000a106200099d8362000952565b82815260069290921b8401810191818101908684111562000a3057600080fd5b8286015b84811015620009e057604080828a03121562000a505760008081fd5b80518082016001600160401b038111828210171562000a735762000a7362000909565b90915281518152848201518582015283529183019160400162000a34565b600080600080600080600080610100898b03121562000aaf57600080fd5b62000aba89620008ec565b975062000aca60208a01620008ec565b965062000ada60408a01620008ec565b60608a015160808b015191975095506001600160401b038082111562000aff57600080fd5b62000b0d8c838d0162000978565b955060a08b015191508082111562000b2457600080fd5b62000b328c838d0162000978565b945060c08b015191508082111562000b4957600080fd5b62000b578c838d01620009eb565b935060e08b015191508082111562000b6e57600080fd5b5062000b7d8b828c01620009eb565b9150509295985092959890939650565b634e487b7160e01b600052603260045260246000fd5b634e487b7160e01b600052601160045260246000fd5b80820180821115620001dd57620001dd62000ba3565b60006001820162000be45762000be462000ba3565b5060010190565b60005b8381101562000c0857818101518382015260200162000bee565b50506000910152565b7f416363657373436f6e74726f6c3a206163636f756e742000000000000000000081526000835162000c4b81601785016020880162000beb565b7001034b99036b4b9b9b4b733903937b6329607d1b601791840191820152835162000c7e81602884016020880162000beb565b01602801949350505050565b602081526000825180602084015262000cab81604085016020870162000beb565b601f01601f19169190910160400192915050565b600081600019048311821515161562000cdc5762000cdc62000ba3565b500290565b60008162000cf35762000cf362000ba3565b506000190190565b61342b8062000d0b6000396000f3fe60806040526004361061034e5760003560e01c8063685406ca116101bb578063b0100cf7116100f7578063d547741f11610095578063ec87621c1161006f578063ec87621c14610a07578063f35f206c14610a29578063f5e3dbdb14610a5f578063fd4234e814610a7f57600080fd5b8063d547741f14610993578063d84ed966146109b3578063e63ab1e9146109d357600080fd5b8063b68490bc116100d1578063b68490bc14610910578063bf3ea47214610930578063c71c0b401461095d578063d3717a021461097357600080fd5b8063b0100cf71461089e578063b0786fad146108ce578063b2ab56e1146108f057600080fd5b80638456cb5911610164578063953b8fb81161013e578063953b8fb814610823578063a217fddf14610839578063a4334daa1461084e578063a95185f01461086e57600080fd5b80638456cb59146107aa5780638c590917146107bf57806391d14854146107df57600080fd5b80637b8b29ac116101955780637b8b29ac146107515780637dd4ad2f146107675780637e3e010a1461079457600080fd5b8063685406ca146106ea5780636aba253c1461070a578063750d0b671461073157600080fd5b80632ec09d391161028a5780634e43ccb4116102335780635ba5f8dd1161020d5780635ba5f8dd1461067d5780635c975abb1461069d5780636605bfda146106b557806366d021cb146106d557600080fd5b80634e43ccb4146106275780634eb494821461063d5780635b7baf641461065d57600080fd5b80633f4ba83a116102645780633f4ba83a146105cc57806341e1c716146105e15780634c3adbfd1461060757600080fd5b80632ec09d391461056c5780632f2ff15d1461058c57806336568abe146105ac57600080fd5b8063134f275c116102f75780631a99dbaa116102d15780631a99dbaa146104c1578063248a9ca3146104d75780632669e8e3146105075780632b32e9ca1461053457600080fd5b8063134f275c1461045357806313e7b33e146104735780631583deb21461048957600080fd5b8063038b68dd11610328578063038b68dd146103ef5780630f01ec651461040f57806312498a701461042f57600080fd5b806301ffc9a71461035d578063026686ee1461039257806302866962146103cd57600080fd5b3661035857600080fd5b600080fd5b34801561036957600080fd5b5061037d610378366004612c5d565b610a95565b60405190151581526020015b60405180910390f35b34801561039e57600080fd5b5061037d6103ad366004612c9c565b601360209081526000928352604080842090915290825290205460ff1681565b3480156103d957600080fd5b506103ed6103e8366004612dd6565b610afe565b005b3480156103fb57600080fd5b506103ed61040a366004612c9c565b610be4565b34801561041b57600080fd5b506103ed61042a366004612e85565b610e1c565b34801561043b57600080fd5b5061044560065481565b604051908152602001610389565b34801561045f57600080fd5b506103ed61046e366004612e85565b610ebf565b34801561047f57600080fd5b5061044560055481565b34801561049557600080fd5b506003546104a9906001600160a01b031681565b6040516001600160a01b039091168152602001610389565b3480156104cd57600080fd5b5061044560075481565b3480156104e357600080fd5b506104456104f2366004612eba565b60009081526020819052604090206001015490565b34801561051357600080fd5b50610445610522366004612eba565b60116020526000908152604090205481565b34801561054057600080fd5b5061044561054f366004612c9c565b601060209081526000928352604080842090915290825290205481565b34801561057857600080fd5b506103ed610587366004612eba565b611030565b34801561059857600080fd5b506103ed6105a7366004612ed3565b61103d565b3480156105b857600080fd5b506103ed6105c7366004612ed3565b611062565b3480156105d857600080fd5b506103ed6110ef565b3480156105ed57600080fd5b50600f546104a9906201000090046001600160a01b031681565b34801561061357600080fd5b506103ed610622366004612c9c565b611121565b34801561063357600080fd5b50610445600b5481565b34801561064957600080fd5b506103ed610658366004612f03565b61129b565b34801561066957600080fd5b506103ed610678366004612eba565b61137f565b34801561068957600080fd5b506103ed610698366004612eba565b611389565b3480156106a957600080fd5b5060025460ff1661037d565b3480156106c157600080fd5b506103ed6106d0366004612f38565b6113ee565b3480156106e157600080fd5b506103ed61146f565b3480156106f657600080fd5b506103ed610705366004612dd6565b6115d8565b34801561071657600080fd5b50601a546107249060ff1681565b6040516103899190612f6b565b34801561073d57600080fd5b506103ed61074c366004612f93565b611682565b34801561075d57600080fd5b50610445600e5481565b34801561077357600080fd5b50610445610782366004612eba565b60156020526000908152604090205481565b3480156107a057600080fd5b5061044560085481565b3480156107b657600080fd5b506103ed611799565b3480156107cb57600080fd5b506103ed6107da366004612fb4565b6117cb565b3480156107eb57600080fd5b5061037d6107fa366004612ed3565b6000918252602082815260408084206001600160a01b0393909316845291905290205460ff1690565b34801561082f57600080fd5b5061044560095481565b34801561084557600080fd5b50610445600081565b34801561085a57600080fd5b506103ed610869366004612eba565b6117d6565b34801561087a57600080fd5b5061037d610889366004612eba565b60166020526000908152604090205460ff1681565b3480156108aa57600080fd5b5061037d6108b9366004612f38565b60146020526000908152604090205460ff1681565b3480156108da57600080fd5b506108e3611901565b6040516103899190612fd6565b3480156108fc57600080fd5b506103ed61090b366004613023565b611980565b34801561091c57600080fd5b506103ed61092b366004612f38565b611a89565b34801561093c57600080fd5b5061044561094b366004612f38565b60176020526000908152604090205481565b34801561096957600080fd5b50610445600a5481565b34801561097f57600080fd5b506103ed61098e366004612f38565b611b0b565b34801561099f57600080fd5b506103ed6109ae366004612ed3565b611b7c565b3480156109bf57600080fd5b506103ed6109ce3660046130d8565b611ba1565b3480156109df57600080fd5b506104457f65d7a28e3265b37a6474929f336521b332c1681b933f6cb9f3376673440d862a81565b348015610a1357600080fd5b506104456000805160206133d683398151915281565b348015610a3557600080fd5b506104a9610a44366004612eba565b6012602052600090815260409020546001600160a01b031681565b348015610a6b57600080fd5b506103ed610a7a366004612fb4565b611e35565b348015610a8b57600080fd5b50610445600c5481565b60006001600160e01b031982167f7965db0b000000000000000000000000000000000000000000000000000000001480610af857507f01ffc9a7000000000000000000000000000000000000000000000000000000006001600160e01b03198316145b92915050565b6000805160206133d6833981519152610b1681612141565b60005b8251811015610bdf57620186a0838281518110610b3857610b386131c6565b6020026020010151602001511115610b7c576040517f6db0b76a00000000000000000000000000000000000000000000000000000000815260040160405180910390fd5b828181518110610b8e57610b8e6131c6565b60200260200101516020015160156000858481518110610bb057610bb06131c6565b60200260200101516000015181526020019081526020016000208190555080610bd8906131f2565b9050610b19565b505050565b6001600160a01b038216600090815260146020526040902054829060ff16610c1f5760405163e02a527360e01b815260040160405180910390fd5b600f5460ff16610c5b576040517f85cd26fd00000000000000000000000000000000000000000000000000000000815260040160405180910390fd5b610c6361214b565b610c6b6121a4565b610c736121f7565b601a805460ff19166001836002811115610c8f57610c8f612f55565b02179055506000601a5460ff166002811115610cad57610cad612f55565b14610ccb57604051638d05f51560e01b815260040160405180910390fd5b6001600160a01b038316600090815260136020908152604080832085845290915290205460ff1615610d29576040517f708d73f200000000000000000000000000000000000000000000000000000000815260040160405180910390fd5b6001600160a01b03831660008181526010602090815260408083208684528083528184208054958552601384528285208886528452918420805460ff191660011790559091528190555b81811015610e1157600084815260126020526040908190205490517fe9c2e14b0000000000000000000000000000000000000000000000000000000081526001600160a01b0387811660048301529091169063e9c2e14b90602401600060405180830381600087803b158015610de857600080fd5b505af1158015610dfc573d6000803e3d6000fd5b5050505080610e0a906131f2565b9050610d73565b5050610bdf60018055565b6000805160206133d6833981519152610e3481612141565b600754421115610e575760405163488e80ff60e01b815260040160405180910390fd5b8151600214610e795760405163516e361d60e11b815260040160405180910390fd5b81600081518110610e8c57610e8c6131c6565b602002602001015160088190555081600181518110610ead57610ead6131c6565b60200260200101516009819055505050565b6000805160206133d6833981519152610ed781612141565b8151600314610ef95760405163516e361d60e11b815260040160405180910390fd5b600554421015610f935781600081518110610f1657610f166131c6565b602002602001015160058190555081600181518110610f3757610f376131c6565b6020026020010151600681905550610f8c82600281518110610f5b57610f5b6131c6565b602002602001015183600181518110610f7657610f766131c6565b6020026020010151611f3b90919063ffffffff16565b6007555050565b610f9b612290565b15610fb35781600181518110610f3757610f376131c6565b6006544210158015610fc6575060075442105b15610ffa57610f8c82600281518110610fe157610fe16131c6565b6020026020010151600654611f3b90919063ffffffff16565b6040517f553ae05400000000000000000000000000000000000000000000000000000000815260040160405180910390fd5b5050565b61103a3382610be4565b50565b60008281526020819052604090206001015461105881612141565b610bdf83836122fb565b6001600160a01b03811633146110e55760405162461bcd60e51b815260206004820152602f60248201527f416363657373436f6e74726f6c3a2063616e206f6e6c792072656e6f756e636560448201527f20726f6c657320666f722073656c66000000000000000000000000000000000060648201526084015b60405180910390fd5b61102c8282612399565b7f65d7a28e3265b37a6474929f336521b332c1681b933f6cb9f3376673440d862a61111981612141565b61103a612418565b6001600160a01b038216600090815260146020526040902054829060ff1661115c5760405163e02a527360e01b815260040160405180910390fd5b61116461214b565b61116c6121a4565b6111746121f7565b601a805460ff1916600183600281111561119057611190612f55565b02179055506000601a5460ff1660028111156111ae576111ae612f55565b036111e5576040517fc6dfc20100000000000000000000000000000000000000000000000000000000815260040160405180910390fd5b6001600160a01b0383166000908152601060209081526040808320858452825280832054601190925282205490919061121e908361246a565b6001600160a01b0386166000908152601060209081526040808320888452909152812055905061124e8582612476565b604080516001600160a01b0387168152602081018690527f2ef47cadc7e07ee6cea296446c8ca85ff6955693411d8868f7a04b6850034f08910160405180910390a15050610bdf60018055565b6112a361214b565b6112ab6121a4565b826001600160a01b0381166112d35760405163d92e233d60e01b815260040160405180910390fd5b6112db612290565b1515600114611316576040517fdf2d6b2800000000000000000000000000000000000000000000000000000000815260040160405180910390fd5b60008381526011602052604081205461132f908461246a565b9050600081116113525760405163029819b760e01b815260040160405180910390fd5b61135c3382612495565b80600a600082825461136e919061320b565b90915550610e11905085858561257e565b61103a3382611121565b6000805160206133d68339815191526113a181612141565b620186a08211156113c55760405163516e361d60e11b815260040160405180910390fd5b6005544211156113e85760405163488e80ff60e01b815260040160405180910390fd5b50600c55565b6000805160206133d683398151915261140681612141565b816001600160a01b03811661142e5760405163d92e233d60e01b815260040160405180910390fd5b5050600280546001600160a01b03909216610100027fffffffffffffffffffffff0000000000000000000000000000000000000000ff909216919091179055565b61147761214b565b61147f6121a4565b6003546001600160a01b031633146114aa576040516336b6b89560e01b815260040160405180910390fd5b6114b26121f7565b601a805460ff191660018360028111156114ce576114ce612f55565b0217905550600754421180156114fb57506000601a5460ff1660028111156114f8576114f8612f55565b14155b1561151957604051638d05f51560e01b815260040160405180910390fd5b6003546001600160a01b03166000908152601760205260409020548061156b576040517f569323d200000000000000000000000000000000000000000000000000000000815260040160405180910390fd5b600354611581906001600160a01b031682612476565b600354604080516001600160a01b039092168252602082018390524282820152517f3df25ea0269b814fac9e2b26b3cc6971a48c7bdd35be407f416e44a16466325b9181900360600190a1506115d660018055565b565b6000805160206133d68339815191526115f081612141565b6005544211156116135760405163488e80ff60e01b815260040160405180910390fd5b60005b8251811015610bdf57828181518110611631576116316131c6565b60200260200101516020015160116000858481518110611653576116536131c6565b6020026020010151600001518152602001908152602001600020819055508061167b906131f2565b9050611616565b6000805160206133d683398151915261169a81612141565b6116a26121f7565b601a805460ff191660018360028111156116be576116be612f55565b0217905550600754421180156116eb57506002601a5460ff1660028111156116e8576116e8612f55565b14155b15611722576040517f61a7916f00000000000000000000000000000000000000000000000000000000815260040160405180910390fd5b426006819055600755600082600181111561173f5761173f612f55565b0361175657601a805460ff1916905561102c61268e565b600182600181111561176a5761176a612f55565b03611780575050601a805460ff19166001179055565b60405163516e361d60e11b815260040160405180910390fd5b7f65d7a28e3265b37a6474929f336521b332c1681b933f6cb9f3376673440d862a6117c381612141565b61103a612709565b61102c33838361129b565b6000805160206133d68339815191526117ee81612141565b6117f66121a4565b6117fe6121f7565b601a805460ff1916600183600281111561181a5761181a612f55565b021790555060075442101561185b576040517fc8dcac8200000000000000000000000000000000000000000000000000000000815260040160405180910390fd5b6000601a5460ff16600281111561187457611874612f55565b1461189257604051638d05f51560e01b815260040160405180910390fd5b60008281526016602052604090205460ff1615156001036118df576040517f101f817a00000000000000000000000000000000000000000000000000000000815260040160405180910390fd5b6000828152601660205260409020805460ff1916600117905561102c82612746565b60606000805160206133d683398151915261191b81612141565b6000600480548060200260200160405190810160405280929190818152602001828054801561197357602002820191906000526020600020905b81546001600160a01b03168152600190910190602001808311611955575b5093965050505050505090565b6000805160206133d683398151915261199881612141565b60005b8251811015611a775760006001600160a01b03168382815181106119c1576119c16131c6565b6020026020010151602001516001600160a01b0316036119f45760405163d92e233d60e01b815260040160405180910390fd5b828181518110611a0657611a066131c6565b60200260200101516020015160126000858481518110611a2857611a286131c6565b602002602001015160000151815260200190815260200160002060006101000a8154816001600160a01b0302191690836001600160a01b0316021790555080611a70906131f2565b905061199b565b5050600f805460ff1916600117905550565b6000805160206133d6833981519152611aa181612141565b816001600160a01b038116611ac95760405163d92e233d60e01b815260040160405180910390fd5b5050600f80546001600160a01b0390921662010000027fffffffffffffffffffff0000000000000000000000000000000000000000ffff909216919091179055565b6000805160206133d6833981519152611b2381612141565b816001600160a01b038116611b4b5760405163d92e233d60e01b815260040160405180910390fd5b50506003805473ffffffffffffffffffffffffffffffffffffffff19166001600160a01b0392909216919091179055565b600082815260208190526040902060010154611b9781612141565b610bdf8383612399565b6000805160206133d6833981519152611bb981612141565b611bc161214b565b611bc96121a4565b611bd16121f7565b601a805460ff19166001836002811115611bed57611bed612f55565b0217905550600554421080611c03575060075442115b80611c2557506002601a5460ff166002811115611c2257611c22612f55565b14155b15611c5c576040517f6c9007f600000000000000000000000000000000000000000000000000000000815260040160405180910390fd5b83518551141580611c6f57508251855114155b15611c8d5760405163516e361d60e11b815260040160405180910390fd5b611c973383612495565b81600a6000828254611ca9919061320b565b90915550600090505b8551811015611deb5760006001600160a01b0316868281518110611cd857611cd86131c6565b60200260200101516001600160a01b031603611d075760405163d92e233d60e01b815260040160405180910390fd5b6000611d61858381518110611d1e57611d1e6131c6565b602002602001015160116000898681518110611d3c57611d3c6131c6565b602002602001015181526020019081526020016000205461246a90919063ffffffff16565b905060008111611d845760405163029819b760e01b815260040160405180910390fd5b611dda878381518110611d9957611d996131c6565b6020026020010151878481518110611db357611db36131c6565b6020026020010151878581518110611dcd57611dcd6131c6565b602002602001015161257e565b50611de4816131f2565b9050611cb2565b5060408051338152602081018490527fe239e1105983e10084987392ebe93c0f25988539d0d3af5edef1734822bb4054910160405180910390a1611e2e60018055565b5050505050565b6000828152601260205260408082205490517f6352211e000000000000000000000000000000000000000000000000000000008152600481018490526001600160a01b0390911690636352211e90602401602060405180830381865afa158015611ea3573d6000803e3d6000fd5b505050506040513d601f19601f82011682018060405250810190611ec7919061321e565b90506001600160a01b0381163303611f225760408051848152602081018490526001600160a01b038316917fd508d4942133028bc6500a17c5b7baee94401b9db22667af69c6e44f265a49c0910160405180910390a2505050565b6040516336b6b89560e01b815260040160405180910390fd5b6000611f47828461320b565b9392505050565b6060610af86001600160a01b03831660145b60606000611f6f83600261323b565b611f7a90600261320b565b67ffffffffffffffff811115611f9257611f92612cc8565b6040519080825280601f01601f191660200182016040528015611fbc576020820181803683370190505b5090507f300000000000000000000000000000000000000000000000000000000000000081600081518110611ff357611ff36131c6565b60200101906001600160f81b031916908160001a9053507f78000000000000000000000000000000000000000000000000000000000000008160018151811061203e5761203e6131c6565b60200101906001600160f81b031916908160001a905350600061206284600261323b565b61206d90600161320b565b90505b60018111156120f2577f303132333435363738396162636465660000000000000000000000000000000085600f16601081106120ae576120ae6131c6565b1a60f81b8282815181106120c4576120c46131c6565b60200101906001600160f81b031916908160001a90535060049490941c936120eb8161325a565b9050612070565b508315611f475760405162461bcd60e51b815260206004820181905260248201527f537472696e67733a20686578206c656e67746820696e73756666696369656e7460448201526064016110dc565b61103a813361280c565b60026001540361219d5760405162461bcd60e51b815260206004820152601f60248201527f5265656e7472616e637947756172643a207265656e7472616e742063616c6c0060448201526064016110dc565b6002600155565b60025460ff16156115d65760405162461bcd60e51b815260206004820152601060248201527f5061757361626c653a207061757365640000000000000000000000000000000060448201526064016110dc565b60006007544211801561220e5750600854600a5410155b801561223157506001601a5460ff16600281111561222e5761222e612f55565b14155b156122445761223e61268e565b50600090565b600754421180156122585750600854600a54105b801561227b57506000601a5460ff16600281111561227857612278612f55565b14155b156122865750600190565b50601a5460ff1690565b600061229a6121f7565b601a805460ff191660018360028111156122b6576122b6612f55565b0217905550600554421180156122ce57506006544211155b80156122f057506002601a5460ff1660028111156122ee576122ee612f55565b145b1561223e5750600190565b6000828152602081815260408083206001600160a01b038516845290915290205460ff1661102c576000828152602081815260408083206001600160a01b03851684529091529020805460ff191660011790556123553390565b6001600160a01b0316816001600160a01b0316837f2f8788117e7eff1d82e926ec794901d17c78024a50270940304540a733656f0d60405160405180910390a45050565b6000828152602081815260408083206001600160a01b038516845290915290205460ff161561102c576000828152602081815260408083206001600160a01b0385168085529252808320805460ff1916905551339285917ff6391f5c32d9c69d2a47ea670b442974b53935d1edc7fd64eb21e047a839171b9190a45050565b61242061287f565b6002805460ff191690557f5db9ee0a495bf2e6ff9c91a7834c1ba4fdd244a5e8aa4e537bd38aeae4b073aa335b6040516001600160a01b03909116815260200160405180910390a1565b6000611f47828461323b565b600f548290610bdf906201000090046001600160a01b031682846128d1565b600f546040517fdd62ed3e0000000000000000000000000000000000000000000000000000000081526001600160a01b0384811660048301523060248301528392620100009004169063dd62ed3e90604401602060405180830381865afa158015612504573d6000803e3d6000fd5b505050506040513d601f19601f820116820180604052508101906125289190613271565b1015612560576040517ffc8bf36c00000000000000000000000000000000000000000000000000000000815260040160405180910390fd5b600f5461102c906201000090046001600160a01b0316833084612962565b6001600160a01b0383166000908152601060209081526040808320858452909152812080548392906125b190849061320b565b9091555050604080516001600160a01b0385168152602081018490527f1bb460ccaaf70fbacfec17a376f8acbd278c1405590ffcc8ebe4b88daf4f64ad910160405180910390a16001600160a01b03831660009081526014602052604090205460ff16610bdf576004805460018181019092557f8a35acfbc15ff81a39ae7d344fd709f28e8600b4aa8c65c6b64bfe7fe36bd19b0180546001600160a01b03861673ffffffffffffffffffffffffffffffffffffffff1990911681179091556000908152601460205260409020805460ff19169091179055505050565b600f54610100900460ff1615156000036115d6576126c6620186a06126c0600c54600a5461246a90919063ffffffff16565b906129b9565b600d819055600a546126d7916129c5565b600b55600f805461010061ff00199091168117909155600254600d546115d6929091046001600160a01b031690612476565b6127116121a4565b6002805460ff191660011790557f62e78cea01bee320cd4e420270b5ea74000d11b0c9f74754ebdbfc544b05a25861244d3390565b600081815260156020526040812054600b5490919061276f90620186a0906126c090859061246a565b9050600b5461278982600e54611f3b90919063ffffffff16565b11156127c1576040517fb24d2a1c00000000000000000000000000000000000000000000000000000000815260040160405180910390fd5b80600e60008282546127d3919061320b565b90915550506003546001600160a01b03166000908152601760205260408120805483929061280290849061320b565b9091555050505050565b6000828152602081815260408083206001600160a01b038516845290915290205460ff1661102c5761283d81611f4e565b612848836020611f60565b6040516020016128599291906132ae565b60408051601f198184030181529082905262461bcd60e51b82526110dc9160040161332f565b60025460ff166115d65760405162461bcd60e51b815260206004820152601460248201527f5061757361626c653a206e6f742070617573656400000000000000000000000060448201526064016110dc565b6040516001600160a01b038316602482015260448101829052610bdf9084907fa9059cbb00000000000000000000000000000000000000000000000000000000906064015b60408051601f198184030181529190526020810180517bffffffffffffffffffffffffffffffffffffffffffffffffffffffff166001600160e01b0319909316929092179091526129d1565b6040516001600160a01b03808516602483015283166044820152606481018290526129b39085907f23b872dd0000000000000000000000000000000000000000000000000000000090608401612916565b50505050565b6000611f478284613362565b6000611f478284613384565b6000612a26826040518060400160405280602081526020017f5361666545524332303a206c6f772d6c6576656c2063616c6c206661696c6564815250856001600160a01b0316612ab69092919063ffffffff16565b805190915015610bdf5780806020019051810190612a449190613397565b610bdf5760405162461bcd60e51b815260206004820152602a60248201527f5361666545524332303a204552433230206f7065726174696f6e20646964206e60448201527f6f7420737563636565640000000000000000000000000000000000000000000060648201526084016110dc565b6060612ac58484600085612acd565b949350505050565b606082471015612b455760405162461bcd60e51b815260206004820152602660248201527f416464726573733a20696e73756666696369656e742062616c616e636520666f60448201527f722063616c6c000000000000000000000000000000000000000000000000000060648201526084016110dc565b600080866001600160a01b03168587604051612b6191906133b9565b60006040518083038185875af1925050503d8060008114612b9e576040519150601f19603f3d011682016040523d82523d6000602084013e612ba3565b606091505b5091509150612bb487838387612bbf565b979650505050505050565b60608315612c2e578251600003612c27576001600160a01b0385163b612c275760405162461bcd60e51b815260206004820152601d60248201527f416464726573733a2063616c6c20746f206e6f6e2d636f6e747261637400000060448201526064016110dc565b5081612ac5565b612ac58383815115612c435781518083602001fd5b8060405162461bcd60e51b81526004016110dc919061332f565b600060208284031215612c6f57600080fd5b81356001600160e01b031981168114611f4757600080fd5b6001600160a01b038116811461103a57600080fd5b60008060408385031215612caf57600080fd5b8235612cba81612c87565b946020939093013593505050565b634e487b7160e01b600052604160045260246000fd5b6040805190810167ffffffffffffffff81118282101715612d0157612d01612cc8565b60405290565b604051601f8201601f1916810167ffffffffffffffff81118282101715612d3057612d30612cc8565b604052919050565b600067ffffffffffffffff821115612d5257612d52612cc8565b5060051b60200190565b6000612d6f612d6a84612d38565b612d07565b8381529050602080820190600685901b840186811115612d8e57600080fd5b845b81811015612dcb5760408189031215612da95760008081fd5b612db1612cde565b813581528382013584820152845292820192604001612d90565b505050509392505050565b600060208284031215612de857600080fd5b813567ffffffffffffffff811115612dff57600080fd5b8201601f81018413612e1057600080fd5b612ac584823560208401612d5c565b600082601f830112612e3057600080fd5b81356020612e40612d6a83612d38565b82815260059290921b84018101918181019086841115612e5f57600080fd5b8286015b84811015612e7a5780358352918301918301612e63565b509695505050505050565b600060208284031215612e9757600080fd5b813567ffffffffffffffff811115612eae57600080fd5b612ac584828501612e1f565b600060208284031215612ecc57600080fd5b5035919050565b60008060408385031215612ee657600080fd5b823591506020830135612ef881612c87565b809150509250929050565b600080600060608486031215612f1857600080fd5b8335612f2381612c87565b95602085013595506040909401359392505050565b600060208284031215612f4a57600080fd5b8135611f4781612c87565b634e487b7160e01b600052602160045260246000fd5b6020810160038310612f8d57634e487b7160e01b600052602160045260246000fd5b91905290565b600060208284031215612fa557600080fd5b813560028110611f4757600080fd5b60008060408385031215612fc757600080fd5b50508035926020909101359150565b6020808252825182820181905260009190848201906040850190845b818110156130175783516001600160a01b031683529284019291840191600101612ff2565b50909695505050505050565b6000602080838503121561303657600080fd5b823567ffffffffffffffff81111561304d57600080fd5b8301601f8101851361305e57600080fd5b803561306c612d6a82612d38565b81815260069190911b8201830190838101908783111561308b57600080fd5b928401925b82841015612bb457604084890312156130a95760008081fd5b6130b1612cde565b84358152858501356130c281612c87565b8187015282526040939093019290840190613090565b600080600080608085870312156130ee57600080fd5b843567ffffffffffffffff8082111561310657600080fd5b818701915087601f83011261311a57600080fd5b8135602061312a612d6a83612d38565b82815260059290921b8401810191818101908b84111561314957600080fd5b948201945b8386101561317057853561316181612c87565b8252948201949082019061314e565b9850508801359250508082111561318657600080fd5b61319288838901612e1f565b945060408701359150808211156131a857600080fd5b506131b587828801612e1f565b949793965093946060013593505050565b634e487b7160e01b600052603260045260246000fd5b634e487b7160e01b600052601160045260246000fd5b600060018201613204576132046131dc565b5060010190565b80820180821115610af857610af86131dc565b60006020828403121561323057600080fd5b8151611f4781612c87565b6000816000190483118215151615613255576132556131dc565b500290565b600081613269576132696131dc565b506000190190565b60006020828403121561328357600080fd5b5051919050565b60005b838110156132a557818101518382015260200161328d565b50506000910152565b7f416363657373436f6e74726f6c3a206163636f756e74200000000000000000008152600083516132e681601785016020880161328a565b7f206973206d697373696e6720726f6c6520000000000000000000000000000000601791840191820152835161332381602884016020880161328a565b01602801949350505050565b602081526000825180602084015261334e81604085016020870161328a565b601f01601f19169190910160400192915050565b60008261337f57634e487b7160e01b600052601260045260246000fd5b500490565b81810381811115610af857610af86131dc565b6000602082840312156133a957600080fd5b81518015158114611f4757600080fd5b600082516133cb81846020870161328a565b919091019291505056fe241ecf16d79d0f8dbfb92cbc07fe17840425976cf0667f022fe9877caa831b08a26469706673582212206755286b687ec1990e896ffc2d6bdb45165b46baa25e7a2bc07683f30870ed0f64736f6c63430008100033241ecf16d79d0f8dbfb92cbc07fe17840425976cf0667f022fe9877caa831b08",
  "devdoc": {
    "custom:security-contact": "hello@moat.com",
    "details": "This implements ERC-721 NFT as the rewards (NFT perks) to be minted to the funders.",
    "kind": "dev",
    "methods": {
      "approveMilestoneAndReleaseFund(uint256)": {
        "details": "milestone can be approved in any order",
        "params": {
          "_milestoneNumber": "the milestone to be approved"
        }
      },
      "claimNft(uint256)": {
        "details": "NFT with tokenId = _tier is transfer to the connected wallet",
        "params": {
          "_tier": "funding category"
        }
      },
      "claimNftFor(address,uint256)": {
        "details": "Claim NFT for another _funder. NFT with tokenId = _tier is transfer to the _funder",
        "params": {
          "_funder": "the funder address",
          "_tier": "funding category"
        }
      },
      "claimRefund(uint256)": {
        "details": "Claim a refund for the connected wallet",
        "params": {
          "_tier": "funding category"
        }
      },
      "claimRefundFor(address,uint256)": {
        "details": "Claim a refund on behalf of a funder",
        "params": {
          "_funder": "the funder address",
          "_tier": "funding category"
        }
      },
      "closeFundingRound(uint8)": {
        "details": "reason for closing the campaign is required",
        "params": {
          "_reasonForEnding": "enum only accepts TARGETMET or FAILURE"
        }
      },
      "contribute(uint256,uint256)": {
        "details": "only accepts ERC-20 deposit when campaign is open",
        "params": {
          "_quantity": "number of tiers",
          "_tier": "funding category"
        }
      },
      "contributeOnBehalfOf(address,uint256,uint256)": {
        "details": "only accepts ERC-20 deposit when campaign is open",
        "params": {
          "_funder": "the contributor address",
          "_quantity": "number of tiers",
          "_tier": "funding category"
        }
      },
      "fiatContributeOnBehalfOf(address[],uint256[],uint256[],uint256)": {
        "details": "only accepts ERC-20 deposit before campaign decision time passed",
        "params": {
          "_funders": "array of funder addresses",
          "_quantities": "array of number of tiers purchased by each funder All the arrays must be the same length",
          "_tiers": "array of funding category"
        }
      },
      "getFundersAddresses()": {
        "details": "returns the array of all funder addresses"
      },
      "getRoleAdmin(bytes32)": {
        "details": "Returns the admin role that controls `role`. See {grantRole} and {revokeRole}. To change a role's admin, use {_setRoleAdmin}."
      },
      "grantRole(bytes32,address)": {
        "details": "Grants `role` to `account`. If `account` had not been already granted `role`, emits a {RoleGranted} event. Requirements: - the caller must have ``role``'s admin role. May emit a {RoleGranted} event."
      },
      "hasRole(bytes32,address)": {
        "details": "Returns `true` if `account` has been granted `role`."
      },
      "isOwnerOf(uint256,uint256)": {
        "details": "Proves that a caller owns a particular NFT token by emitting TheOwnerIs event",
        "params": {
          "_tier": "funding or perks category",
          "_tokenId": "id of the nft token"
        }
      },
      "pause()": {
        "details": "Pauses the contract"
      },
      "paused()": {
        "details": "Returns true if the contract is paused, and false otherwise."
      },
      "renounceRole(bytes32,address)": {
        "details": "Revokes `role` from the calling account. Roles are often managed via {grantRole} and {revokeRole}: this function's purpose is to provide a mechanism for accounts to lose their privileges if they are compromised (such as when a trusted device is misplaced). If the calling account had been revoked `role`, emits a {RoleRevoked} event. Requirements: - the caller must be `account`. May emit a {RoleRevoked} event."
      },
      "revokeRole(bytes32,address)": {
        "details": "Revokes `role` from `account`. If `account` had been granted `role`, emits a {RoleRevoked} event. Requirements: - the caller must have ``role``'s admin role. May emit a {RoleRevoked} event."
      },
      "setAllowedToken(address)": {
        "details": "sets the allowed ERC20 tokens for the campaign"
      },
      "setBusinessAddress(address)": {
        "details": "Set the wallet address of the business raising fund through this contract"
      },
      "setCampaignAndDecisionPeriod(uint256[])": {
        "params": {
          "_campaignTimesAndDecision": "array of length 3."
        }
      },
      "setFundingTiersAndCosts((uint256,uint256)[])": {
        "details": "sets the available tiers and their corresponding prices"
      },
      "setMilestones((uint256,uint256)[])": {
        "details": "sets the milestones"
      },
      "setMoatFee(uint256)": {
        "params": {
          "_feeFraction": "e.g 5% => 5 * (10**5) / 100 = 5000"
        }
      },
      "setNftPerkContracts((uint256,address)[])": {
        "details": "sets the NFT perks contracts"
      },
      "setTargetAmounts(uint256[])": {
        "params": {
          "_amountsToBeRaised": "array of length 2."
        }
      },
      "setTreasuryAddress(address)": {
        "details": "sets the MOAT treasury address"
      },
      "supportsInterface(bytes4)": {
        "details": "See {IERC165-supportsInterface}."
      },
      "unpause()": {
        "details": "Unpauses the contract"
      },
      "withdrawFundRaised()": {
        "details": "Only the authorised business wallet can withdraw"
      }
    },
    "title": "MOAT Crowd-funding Contract",
    "version": 1
  },
  "userdoc": {
    "kind": "user",
    "methods": {
      "approveMilestoneAndReleaseFund(uint256)": {
        "notice": "Manager role can approve the milestones at any time"
      },
      "claimNft(uint256)": {
        "notice": "The funders can claim NFT perks when the campaign is successful"
      },
      "claimNftFor(address,uint256)": {
        "notice": "The funders can claim NFT perks when the campaign is successful"
      },
      "claimRefund(uint256)": {
        "notice": "The funders can claim refund only when the campaign failed"
      },
      "claimRefundFor(address,uint256)": {
        "notice": "The funders can claim refund only when the campaign failed"
      },
      "closeFundingRound(uint8)": {
        "notice": "Manager role can close the funding round before the decision time passed"
      },
      "contribute(uint256,uint256)": {
        "notice": "Contribute fund from the connected wallet for the open campaign"
      },
      "contributeOnBehalfOf(address,uint256,uint256)": {
        "notice": "Contribute fund on behalf of another address for the open campaign."
      },
      "fiatContributeOnBehalfOf(address[],uint256[],uint256[],uint256)": {
        "notice": "Manager role can contribute fund on behalf of other addresses before decision time passed."
      },
      "withdrawFundRaised()": {
        "notice": "Funds are released to the authorised business wallet based on the milestone schedule."
      }
    },
    "notice": "This contract is for crowd-funding a business by interested parties and to release funds to the business in a transparent but monitored way. Rewards, in form of NFTs are distributed to funders after the funding round has been declared successful.",
    "version": 1
  },
  "storageLayout": {
    "storage": [
      {
        "astId": 24,
        "contract": "contracts/FundABusiness.sol:FundABusiness",
        "label": "_roles",
        "offset": 0,
        "slot": "0",
        "type": "t_mapping(t_bytes32,t_struct(RoleData)19_storage)"
      },
      {
        "astId": 507,
        "contract": "contracts/FundABusiness.sol:FundABusiness",
        "label": "_status",
        "offset": 0,
        "slot": "1",
        "type": "t_uint256"
      },
      {
        "astId": 406,
        "contract": "contracts/FundABusiness.sol:FundABusiness",
        "label": "_paused",
        "offset": 0,
        "slot": "2",
        "type": "t_bool"
      },
      {
        "astId": 3028,
        "contract": "contracts/FundABusiness.sol:FundABusiness",
        "label": "treasuryAddress",
        "offset": 1,
        "slot": "2",
        "type": "t_address"
      },
      {
        "astId": 3030,
        "contract": "contracts/FundABusiness.sol:FundABusiness",
        "label": "businessAddress",
        "offset": 0,
        "slot": "3",
        "type": "t_address"
      },
      {
        "astId": 3033,
        "contract": "contracts/FundABusiness.sol:FundABusiness",
        "label": "fundersAddresses",
        "offset": 0,
        "slot": "4",
        "type": "t_array(t_address)dyn_storage"
      },
      {
        "astId": 3035,
        "contract": "contracts/FundABusiness.sol:FundABusiness",
        "label": "campaignStartTime",
        "offset": 0,
        "slot": "5",
        "type": "t_uint256"
      },
      {
        "astId": 3037,
        "contract": "contracts/FundABusiness.sol:FundABusiness",
        "label": "campaignEndTime",
        "offset": 0,
        "slot": "6",
        "type": "t_uint256"
      },
      {
        "astId": 3039,
        "contract": "contracts/FundABusiness.sol:FundABusiness",
        "label": "campaignDecisionTime",
        "offset": 0,
        "slot": "7",
        "type": "t_uint256"
      },
      {
        "astId": 3041,
        "contract": "contracts/FundABusiness.sol:FundABusiness",
        "label": "minTargetAmount",
        "offset": 0,
        "slot": "8",
        "type": "t_uint256"
      },
      {
        "astId": 3043,
        "contract": "contracts/FundABusiness.sol:FundABusiness",
        "label": "targetAmount",
        "offset": 0,
        "slot": "9",
        "type": "t_uint256"
      },
      {
        "astId": 3045,
        "contract": "contracts/FundABusiness.sol:FundABusiness",
        "label": "fundRaised",
        "offset": 0,
        "slot": "10",
        "type": "t_uint256"
      },
      {
        "astId": 3047,
        "contract": "contracts/FundABusiness.sol:FundABusiness",
        "label": "fundRaisedMinusFee",
        "offset": 0,
        "slot": "11",
        "type": "t_uint256"
      },
      {
        "astId": 3049,
        "contract": "contracts/FundABusiness.sol:FundABusiness",
        "label": "moatFeeNumerator",
        "offset": 0,
        "slot": "12",
        "type": "t_uint256"
      },
      {
        "astId": 3051,
        "contract": "contracts/FundABusiness.sol:FundABusiness",
        "label": "moatFee",
        "offset": 0,
        "slot": "13",
        "type": "t_uint256"
      },
      {
        "astId": 3053,
        "contract": "contracts/FundABusiness.sol:FundABusiness",
        "label": "cumFundReleased",
        "offset": 0,
        "slot": "14",
        "type": "t_uint256"
      },
      {
        "astId": 3056,
        "contract": "contracts/FundABusiness.sol:FundABusiness",
        "label": "areNftTokensSet",
        "offset": 0,
        "slot": "15",
        "type": "t_bool"
      },
      {
        "astId": 3059,
        "contract": "contracts/FundABusiness.sol:FundABusiness",
        "label": "isFeeTaken",
        "offset": 1,
        "slot": "15",
        "type": "t_bool"
      },
      {
        "astId": 3062,
        "contract": "contracts/FundABusiness.sol:FundABusiness",
        "label": "allowedErc20Token",
        "offset": 2,
        "slot": "15",
        "type": "t_contract(IERC20)628"
      },
      {
        "astId": 3068,
        "contract": "contracts/FundABusiness.sol:FundABusiness",
        "label": "tierBalanceOf",
        "offset": 0,
        "slot": "16",
        "type": "t_mapping(t_address,t_mapping(t_uint256,t_uint256))"
      },
      {
        "astId": 3072,
        "contract": "contracts/FundABusiness.sol:FundABusiness",
        "label": "tierCost",
        "offset": 0,
        "slot": "17",
        "type": "t_mapping(t_uint256,t_uint256)"
      },
      {
        "astId": 3077,
        "contract": "contracts/FundABusiness.sol:FundABusiness",
        "label": "nftContractOf",
        "offset": 0,
        "slot": "18",
        "type": "t_mapping(t_uint256,t_contract(INftPerks)4890)"
      },
      {
        "astId": 3083,
        "contract": "contracts/FundABusiness.sol:FundABusiness",
        "label": "hasClaimedNft",
        "offset": 0,
        "slot": "19",
        "type": "t_mapping(t_address,t_mapping(t_uint256,t_bool))"
      },
      {
        "astId": 3087,
        "contract": "contracts/FundABusiness.sol:FundABusiness",
        "label": "isAFunder",
        "offset": 0,
        "slot": "20",
        "type": "t_mapping(t_address,t_bool)"
      },
      {
        "astId": 3091,
        "contract": "contracts/FundABusiness.sol:FundABusiness",
        "label": "fractionOfMilestone",
        "offset": 0,
        "slot": "21",
        "type": "t_mapping(t_uint256,t_uint256)"
      },
      {
        "astId": 3095,
        "contract": "contracts/FundABusiness.sol:FundABusiness",
        "label": "isMilestoneApproved",
        "offset": 0,
        "slot": "22",
        "type": "t_mapping(t_uint256,t_bool)"
      },
      {
        "astId": 3099,
        "contract": "contracts/FundABusiness.sol:FundABusiness",
        "label": "businessBalance",
        "offset": 0,
        "slot": "23",
        "type": "t_mapping(t_address,t_uint256)"
      },
      {
        "astId": 3103,
        "contract": "contracts/FundABusiness.sol:FundABusiness",
        "label": "fundingTiersCosts",
        "offset": 0,
        "slot": "24",
        "type": "t_array(t_struct(FundingTierCost)4594_storage)dyn_storage"
      },
      {
        "astId": 3107,
        "contract": "contracts/FundABusiness.sol:FundABusiness",
        "label": "nftTierContracts",
        "offset": 0,
        "slot": "25",
        "type": "t_array(t_struct(NftTierContract)4599_storage)dyn_storage"
      },
      {
        "astId": 3110,
        "contract": "contracts/FundABusiness.sol:FundABusiness",
        "label": "verdict",
        "offset": 0,
        "slot": "26",
        "type": "t_enum(CampaignState)4608"
      },
      {
        "astId": 3113,
        "contract": "contracts/FundABusiness.sol:FundABusiness",
        "label": "reasonForEnding",
        "offset": 1,
        "slot": "26",
        "type": "t_enum(EndCampaign)4611"
      }
    ],
    "types": {
      "t_address": {
        "encoding": "inplace",
        "label": "address",
        "numberOfBytes": "20"
      },
      "t_array(t_address)dyn_storage": {
        "base": "t_address",
        "encoding": "dynamic_array",
        "label": "address[]",
        "numberOfBytes": "32"
      },
      "t_array(t_struct(FundingTierCost)4594_storage)dyn_storage": {
        "base": "t_struct(FundingTierCost)4594_storage",
        "encoding": "dynamic_array",
        "label": "struct IFundABusiness.FundingTierCost[]",
        "numberOfBytes": "32"
      },
      "t_array(t_struct(NftTierContract)4599_storage)dyn_storage": {
        "base": "t_struct(NftTierContract)4599_storage",
        "encoding": "dynamic_array",
        "label": "struct IFundABusiness.NftTierContract[]",
        "numberOfBytes": "32"
      },
      "t_bool": {
        "encoding": "inplace",
        "label": "bool",
        "numberOfBytes": "1"
      },
      "t_bytes32": {
        "encoding": "inplace",
        "label": "bytes32",
        "numberOfBytes": "32"
      },
      "t_contract(IERC20)628": {
        "encoding": "inplace",
        "label": "contract IERC20",
        "numberOfBytes": "20"
      },
      "t_contract(INftPerks)4890": {
        "encoding": "inplace",
        "label": "contract INftPerks",
        "numberOfBytes": "20"
      },
      "t_enum(CampaignState)4608": {
        "encoding": "inplace",
        "label": "enum IFundABusiness.CampaignState",
        "numberOfBytes": "1"
      },
      "t_enum(EndCampaign)4611": {
        "encoding": "inplace",
        "label": "enum IFundABusiness.EndCampaign",
        "numberOfBytes": "1"
      },
      "t_mapping(t_address,t_bool)": {
        "encoding": "mapping",
        "key": "t_address",
        "label": "mapping(address => bool)",
        "numberOfBytes": "32",
        "value": "t_bool"
      },
      "t_mapping(t_address,t_mapping(t_uint256,t_bool))": {
        "encoding": "mapping",
        "key": "t_address",
        "label": "mapping(address => mapping(uint256 => bool))",
        "numberOfBytes": "32",
        "value": "t_mapping(t_uint256,t_bool)"
      },
      "t_mapping(t_address,t_mapping(t_uint256,t_uint256))": {
        "encoding": "mapping",
        "key": "t_address",
        "label": "mapping(address => mapping(uint256 => uint256))",
        "numberOfBytes": "32",
        "value": "t_mapping(t_uint256,t_uint256)"
      },
      "t_mapping(t_address,t_uint256)": {
        "encoding": "mapping",
        "key": "t_address",
        "label": "mapping(address => uint256)",
        "numberOfBytes": "32",
        "value": "t_uint256"
      },
      "t_mapping(t_bytes32,t_struct(RoleData)19_storage)": {
        "encoding": "mapping",
        "key": "t_bytes32",
        "label": "mapping(bytes32 => struct AccessControl.RoleData)",
        "numberOfBytes": "32",
        "value": "t_struct(RoleData)19_storage"
      },
      "t_mapping(t_uint256,t_bool)": {
        "encoding": "mapping",
        "key": "t_uint256",
        "label": "mapping(uint256 => bool)",
        "numberOfBytes": "32",
        "value": "t_bool"
      },
      "t_mapping(t_uint256,t_contract(INftPerks)4890)": {
        "encoding": "mapping",
        "key": "t_uint256",
        "label": "mapping(uint256 => contract INftPerks)",
        "numberOfBytes": "32",
        "value": "t_contract(INftPerks)4890"
      },
      "t_mapping(t_uint256,t_uint256)": {
        "encoding": "mapping",
        "key": "t_uint256",
        "label": "mapping(uint256 => uint256)",
        "numberOfBytes": "32",
        "value": "t_uint256"
      },
      "t_struct(FundingTierCost)4594_storage": {
        "encoding": "inplace",
        "label": "struct IFundABusiness.FundingTierCost",
        "members": [
          {
            "astId": 4591,
            "contract": "contracts/FundABusiness.sol:FundABusiness",
            "label": "fundingTier",
            "offset": 0,
            "slot": "0",
            "type": "t_uint256"
          },
          {
            "astId": 4593,
            "contract": "contracts/FundABusiness.sol:FundABusiness",
            "label": "tierCost",
            "offset": 0,
            "slot": "1",
            "type": "t_uint256"
          }
        ],
        "numberOfBytes": "64"
      },
      "t_struct(NftTierContract)4599_storage": {
        "encoding": "inplace",
        "label": "struct IFundABusiness.NftTierContract",
        "members": [
          {
            "astId": 4596,
            "contract": "contracts/FundABusiness.sol:FundABusiness",
            "label": "fundingTier",
            "offset": 0,
            "slot": "0",
            "type": "t_uint256"
          },
          {
            "astId": 4598,
            "contract": "contracts/FundABusiness.sol:FundABusiness",
            "label": "nftTokenAddress",
            "offset": 0,
            "slot": "1",
            "type": "t_address"
          }
        ],
        "numberOfBytes": "64"
      },
      "t_struct(RoleData)19_storage": {
        "encoding": "inplace",
        "label": "struct AccessControl.RoleData",
        "members": [
          {
            "astId": 16,
            "contract": "contracts/FundABusiness.sol:FundABusiness",
            "label": "members",
            "offset": 0,
            "slot": "0",
            "type": "t_mapping(t_address,t_bool)"
          },
          {
            "astId": 18,
            "contract": "contracts/FundABusiness.sol:FundABusiness",
            "label": "adminRole",
            "offset": 0,
            "slot": "1",
            "type": "t_bytes32"
          }
        ],
        "numberOfBytes": "64"
      },
      "t_uint256": {
        "encoding": "inplace",
        "label": "uint256",
        "numberOfBytes": "32"
      }
    }
  }
}