{
  "address": "0xCf7Ed3AccA5a467e9e704C703E8D87F634fB0Fc9",
  "abi": [
    {
      "inputs": [
        {
          "internalType": "address",
          "name": "_receiver",
          "type": "address"
        },
        {
          "internalType": "string",
          "name": "_tierName",
          "type": "string"
        },
        {
          "internalType": "uint256",
          "name": "_maxSupply",
          "type": "uint256"
        }
      ],
      "stateMutability": "nonpayable",
      "type": "constructor"
    },
    {
      "inputs": [],
      "name": "MaxSupplyReached",
      "type": "error"
    },
    {
      "anonymous": false,
      "inputs": [
        {
          "indexed": true,
          "internalType": "address",
          "name": "owner",
          "type": "address"
        },
        {
          "indexed": true,
          "internalType": "address",
          "name": "approved",
          "type": "address"
        },
        {
          "indexed": true,
          "internalType": "uint256",
          "name": "tokenId",
          "type": "uint256"
        }
      ],
      "name": "Approval",
      "type": "event"
    },
    {
      "anonymous": false,
      "inputs": [
        {
          "indexed": true,
          "internalType": "address",
          "name": "owner",
          "type": "address"
        },
        {
          "indexed": true,
          "internalType": "address",
          "name": "operator",
          "type": "address"
        },
        {
          "indexed": false,
          "internalType": "bool",
          "name": "approved",
          "type": "bool"
        }
      ],
      "name": "ApprovalForAll",
      "type": "event"
    },
    {
      "anonymous": false,
      "inputs": [
        {
          "indexed": true,
          "internalType": "uint256",
          "name": "tokenId",
          "type": "uint256"
        },
        {
          "indexed": false,
          "internalType": "address",
          "name": "to",
          "type": "address"
        }
      ],
      "name": "NFTMinted",
      "type": "event"
    },
    {
      "anonymous": false,
      "inputs": [
        {
          "indexed": true,
          "internalType": "bytes32",
          "name": "role",
          "type": "bytes32"
        },
        {
          "indexed": true,
          "internalType": "bytes32",
          "name": "previousAdminRole",
          "type": "bytes32"
        },
        {
          "indexed": true,
          "internalType": "bytes32",
          "name": "newAdminRole",
          "type": "bytes32"
        }
      ],
      "name": "RoleAdminChanged",
      "type": "event"
    },
    {
      "anonymous": false,
      "inputs": [
        {
          "indexed": true,
          "internalType": "bytes32",
          "name": "role",
          "type": "bytes32"
        },
        {
          "indexed": true,
          "internalType": "address",
          "name": "account",
          "type": "address"
        },
        {
          "indexed": true,
          "internalType": "address",
          "name": "sender",
          "type": "address"
        }
      ],
      "name": "RoleGranted",
      "type": "event"
    },
    {
      "anonymous": false,
      "inputs": [
        {
          "indexed": true,
          "internalType": "bytes32",
          "name": "role",
          "type": "bytes32"
        },
        {
          "indexed": true,
          "internalType": "address",
          "name": "account",
          "type": "address"
        },
        {
          "indexed": true,
          "internalType": "address",
          "name": "sender",
          "type": "address"
        }
      ],
      "name": "RoleRevoked",
      "type": "event"
    },
    {
      "anonymous": false,
      "inputs": [
        {
          "indexed": true,
          "internalType": "address",
          "name": "from",
          "type": "address"
        },
        {
          "indexed": true,
          "internalType": "address",
          "name": "to",
          "type": "address"
        },
        {
          "indexed": true,
          "internalType": "uint256",
          "name": "tokenId",
          "type": "uint256"
        }
      ],
      "name": "Transfer",
      "type": "event"
    },
    {
      "inputs": [],
      "name": "DEFAULT_ADMIN_ROLE",
      "outputs": [
        {
          "internalType": "bytes32",
          "name": "",
          "type": "bytes32"
        }
      ],
      "stateMutability": "view",
      "type": "function"
    },
    {
      "inputs": [],
      "name": "MANAGER_ROLE",
      "outputs": [
        {
          "internalType": "bytes32",
          "name": "",
          "type": "bytes32"
        }
      ],
      "stateMutability": "view",
      "type": "function"
    },
    {
      "inputs": [],
      "name": "MINTER_ROLE",
      "outputs": [
        {
          "internalType": "bytes32",
          "name": "",
          "type": "bytes32"
        }
      ],
      "stateMutability": "view",
      "type": "function"
    },
    {
      "inputs": [],
      "name": "TOKEN_URI",
      "outputs": [
        {
          "internalType": "string",
          "name": "",
          "type": "string"
        }
      ],
      "stateMutability": "view",
      "type": "function"
    },
    {
      "inputs": [
        {
          "internalType": "address",
          "name": "to",
          "type": "address"
        },
        {
          "internalType": "uint256",
          "name": "tokenId",
          "type": "uint256"
        }
      ],
      "name": "approve",
      "outputs": [],
      "stateMutability": "nonpayable",
      "type": "function"
    },
    {
      "inputs": [
        {
          "internalType": "address",
          "name": "owner",
          "type": "address"
        }
      ],
      "name": "balanceOf",
      "outputs": [
        {
          "internalType": "uint256",
          "name": "",
          "type": "uint256"
        }
      ],
      "stateMutability": "view",
      "type": "function"
    },
    {
      "inputs": [
        {
          "internalType": "uint256",
          "name": "tokenId",
          "type": "uint256"
        }
      ],
      "name": "getApproved",
      "outputs": [
        {
          "internalType": "address",
          "name": "",
          "type": "address"
        }
      ],
      "stateMutability": "view",
      "type": "function"
    },
    {
      "inputs": [
        {
          "internalType": "bytes32",
          "name": "role",
          "type": "bytes32"
        }
      ],
      "name": "getRoleAdmin",
      "outputs": [
        {
          "internalType": "bytes32",
          "name": "",
          "type": "bytes32"
        }
      ],
      "stateMutability": "view",
      "type": "function"
    },
    {
      "inputs": [],
      "name": "getTokenCounter",
      "outputs": [
        {
          "internalType": "uint256",
          "name": "",
          "type": "uint256"
        }
      ],
      "stateMutability": "view",
      "type": "function"
    },
    {
      "inputs": [
        {
          "internalType": "bytes32",
          "name": "role",
          "type": "bytes32"
        },
        {
          "internalType": "address",
          "name": "account",
          "type": "address"
        }
      ],
      "name": "grantRole",
      "outputs": [],
      "stateMutability": "nonpayable",
      "type": "function"
    },
    {
      "inputs": [],
      "name": "hasReachedCap",
      "outputs": [
        {
          "internalType": "bool",
          "name": "",
          "type": "bool"
        }
      ],
      "stateMutability": "view",
      "type": "function"
    },
    {
      "inputs": [
        {
          "internalType": "bytes32",
          "name": "role",
          "type": "bytes32"
        },
        {
          "internalType": "address",
          "name": "account",
          "type": "address"
        }
      ],
      "name": "hasRole",
      "outputs": [
        {
          "internalType": "bool",
          "name": "",
          "type": "bool"
        }
      ],
      "stateMutability": "view",
      "type": "function"
    },
    {
      "inputs": [
        {
          "internalType": "address",
          "name": "owner",
          "type": "address"
        },
        {
          "internalType": "address",
          "name": "operator",
          "type": "address"
        }
      ],
      "name": "isApprovedForAll",
      "outputs": [
        {
          "internalType": "bool",
          "name": "",
          "type": "bool"
        }
      ],
      "stateMutability": "view",
      "type": "function"
    },
    {
      "inputs": [],
      "name": "maxSupply",
      "outputs": [
        {
          "internalType": "uint256",
          "name": "",
          "type": "uint256"
        }
      ],
      "stateMutability": "view",
      "type": "function"
    },
    {
      "inputs": [
        {
          "internalType": "address",
          "name": "_to",
          "type": "address"
        }
      ],
      "name": "mintNft",
      "outputs": [],
      "stateMutability": "nonpayable",
      "type": "function"
    },
    {
      "inputs": [],
      "name": "name",
      "outputs": [
        {
          "internalType": "string",
          "name": "",
          "type": "string"
        }
      ],
      "stateMutability": "view",
      "type": "function"
    },
    {
      "inputs": [
        {
          "internalType": "uint256",
          "name": "tokenId",
          "type": "uint256"
        }
      ],
      "name": "ownerOf",
      "outputs": [
        {
          "internalType": "address",
          "name": "",
          "type": "address"
        }
      ],
      "stateMutability": "view",
      "type": "function"
    },
    {
      "inputs": [
        {
          "internalType": "bytes32",
          "name": "role",
          "type": "bytes32"
        },
        {
          "internalType": "address",
          "name": "account",
          "type": "address"
        }
      ],
      "name": "renounceRole",
      "outputs": [],
      "stateMutability": "nonpayable",
      "type": "function"
    },
    {
      "inputs": [
        {
          "internalType": "bytes32",
          "name": "role",
          "type": "bytes32"
        },
        {
          "internalType": "address",
          "name": "account",
          "type": "address"
        }
      ],
      "name": "revokeRole",
      "outputs": [],
      "stateMutability": "nonpayable",
      "type": "function"
    },
    {
      "inputs": [
        {
          "internalType": "uint256",
          "name": "",
          "type": "uint256"
        },
        {
          "internalType": "uint256",
          "name": "_salePrice",
          "type": "uint256"
        }
      ],
      "name": "royaltyInfo",
      "outputs": [
        {
          "internalType": "address",
          "name": "receiver",
          "type": "address"
        },
        {
          "internalType": "uint256",
          "name": "royaltyAmount",
          "type": "uint256"
        }
      ],
      "stateMutability": "view",
      "type": "function"
    },
    {
      "inputs": [
        {
          "internalType": "address",
          "name": "from",
          "type": "address"
        },
        {
          "internalType": "address",
          "name": "to",
          "type": "address"
        },
        {
          "internalType": "uint256",
          "name": "tokenId",
          "type": "uint256"
        }
      ],
      "name": "safeTransferFrom",
      "outputs": [],
      "stateMutability": "nonpayable",
      "type": "function"
    },
    {
      "inputs": [
        {
          "internalType": "address",
          "name": "from",
          "type": "address"
        },
        {
          "internalType": "address",
          "name": "to",
          "type": "address"
        },
        {
          "internalType": "uint256",
          "name": "tokenId",
          "type": "uint256"
        },
        {
          "internalType": "bytes",
          "name": "data",
          "type": "bytes"
        }
      ],
      "name": "safeTransferFrom",
      "outputs": [],
      "stateMutability": "nonpayable",
      "type": "function"
    },
    {
      "inputs": [
        {
          "internalType": "address",
          "name": "operator",
          "type": "address"
        },
        {
          "internalType": "bool",
          "name": "approved",
          "type": "bool"
        }
      ],
      "name": "setApprovalForAll",
      "outputs": [],
      "stateMutability": "nonpayable",
      "type": "function"
    },
    {
      "inputs": [
        {
          "internalType": "address",
          "name": "recipient",
          "type": "address"
        },
        {
          "internalType": "uint256",
          "name": "value",
          "type": "uint256"
        }
      ],
      "name": "setRoyalties",
      "outputs": [],
      "stateMutability": "nonpayable",
      "type": "function"
    },
    {
      "inputs": [
        {
          "internalType": "bytes4",
          "name": "interfaceId",
          "type": "bytes4"
        }
      ],
      "name": "supportsInterface",
      "outputs": [
        {
          "internalType": "bool",
          "name": "",
          "type": "bool"
        }
      ],
      "stateMutability": "view",
      "type": "function"
    },
    {
      "inputs": [],
      "name": "symbol",
      "outputs": [
        {
          "internalType": "string",
          "name": "",
          "type": "string"
        }
      ],
      "stateMutability": "view",
      "type": "function"
    },
    {
      "inputs": [
        {
          "internalType": "uint256",
          "name": "tokenId",
          "type": "uint256"
        }
      ],
      "name": "tokenURI",
      "outputs": [
        {
          "internalType": "string",
          "name": "",
          "type": "string"
        }
      ],
      "stateMutability": "view",
      "type": "function"
    },
    {
      "inputs": [
        {
          "internalType": "address",
          "name": "from",
          "type": "address"
        },
        {
          "internalType": "address",
          "name": "to",
          "type": "address"
        },
        {
          "internalType": "uint256",
          "name": "tokenId",
          "type": "uint256"
        }
      ],
      "name": "transferFrom",
      "outputs": [],
      "stateMutability": "nonpayable",
      "type": "function"
    }
  ],
  "transactionHash": "0x3800bf8df793c30661c164ffae230468778b6f68cf44bf20f768227de0aec15f",
  "args": [
    "0x3C44CdDdB6a900fa2b585dd299e03d12FA4293BC",
    "TIER3",
    100
  ],
  "numDeployments": 3,
  "solcInputHash": "fee0e92db780ea314d589baf49febe24",
  "bytecode": "0x60a06040523480156200001157600080fd5b506040516200280d3803806200280d8339810160408190526200003491620004ca565b818060006200004482826200063d565b5060016200005382826200063d565b505060016007555062000068600033620000ce565b620000947f9f2df0fed2c77648de5860a4cc508cd0818c85b8b8a1ab4ceeef8d981c8956a633620000ce565b620000af600080516020620027ed83398151915233620000ce565b620000bd836109c462000159565b600160085560805250620008359050565b620000da828262000207565b620001555760008281526006602090815260408083206001600160a01b03851684529091529020805460ff19166001179055620001143390565b6001600160a01b0316816001600160a01b0316837f2f8788117e7eff1d82e926ec794901d17c78024a50270940304540a733656f0d60405160405180910390a45b5050565b600080516020620027ed833981519152620001748162000234565b620186a0821115620001cd5760405162461bcd60e51b815260206004820152601a60248201527f45524332393831526f79616c746965733a20546f6f206869676800000000000060448201526064015b60405180910390fd5b50604080518082019091526001600160a01b039092168083526020909201819052600980546001600160a01b031916909217909155600a55565b60008281526006602090815260408083206001600160a01b038516845290915290205460ff165b92915050565b62000240813362000243565b50565b6200024f828262000207565b62000155576200026a81620002bb60201b62000cb61760201c565b6200028083602062000cc8620002ce821b17811c565b6040516020016200029392919062000709565b60408051601f198184030181529082905262461bcd60e51b8252620001c49160040162000782565b60606200022e6001600160a01b03831660145b60606000620002df836002620007cd565b620002ec906002620007ef565b6001600160401b038111156200030657620003066200048e565b6040519080825280601f01601f19166020018201604052801562000331576020820181803683370190505b509050600360fc1b816000815181106200034f576200034f62000805565b60200101906001600160f81b031916908160001a905350600f60fb1b8160018151811062000381576200038162000805565b60200101906001600160f81b031916908160001a9053506000620003a7846002620007cd565b620003b4906001620007ef565b90505b600181111562000436576f181899199a1a9b1b9c1cb0b131b232b360811b85600f1660108110620003ec57620003ec62000805565b1a60f81b82828151811062000405576200040562000805565b60200101906001600160f81b031916908160001a90535060049490941c936200042e816200081b565b9050620003b7565b508315620004875760405162461bcd60e51b815260206004820181905260248201527f537472696e67733a20686578206c656e67746820696e73756666696369656e746044820152606401620001c4565b9392505050565b634e487b7160e01b600052604160045260246000fd5b60005b83811015620004c1578181015183820152602001620004a7565b50506000910152565b600080600060608486031215620004e057600080fd5b83516001600160a01b0381168114620004f857600080fd5b60208501519093506001600160401b03808211156200051657600080fd5b818601915086601f8301126200052b57600080fd5b8151818111156200054057620005406200048e565b604051601f8201601f19908116603f011681019083821181831017156200056b576200056b6200048e565b816040528281528960208487010111156200058557600080fd5b62000598836020830160208801620004a4565b8096505050505050604084015190509250925092565b600181811c90821680620005c357607f821691505b602082108103620005e457634e487b7160e01b600052602260045260246000fd5b50919050565b601f8211156200063857600081815260208120601f850160051c81016020861015620006135750805b601f850160051c820191505b8181101562000634578281556001016200061f565b5050505b505050565b81516001600160401b038111156200065957620006596200048e565b62000671816200066a8454620005ae565b84620005ea565b602080601f831160018114620006a95760008415620006905750858301515b600019600386901b1c1916600185901b17855562000634565b600085815260208120601f198616915b82811015620006da57888601518255948401946001909101908401620006b9565b5085821015620006f95787850151600019600388901b60f8161c191681555b5050505050600190811b01905550565b7f416363657373436f6e74726f6c3a206163636f756e742000000000000000000081526000835162000743816017850160208801620004a4565b7001034b99036b4b9b9b4b733903937b6329607d1b601791840191820152835162000776816028840160208801620004a4565b01602801949350505050565b6020815260008251806020840152620007a3816040850160208701620004a4565b601f01601f19169190910160400192915050565b634e487b7160e01b600052601160045260246000fd5b6000816000190483118215151615620007ea57620007ea620007b7565b500290565b808201808211156200022e576200022e620007b7565b634e487b7160e01b600052603260045260246000fd5b6000816200082d576200082d620007b7565b506000190190565b608051611f95620008586000396000818161040701526108670152611f956000f3fe608060405234801561001057600080fd5b50600436106101c45760003560e01c806378ce9035116100f9578063c87b56dd11610097578063d5abeb0111610071578063d5abeb0114610402578063e985e9c514610429578063e9c2e14b14610465578063ec87621c1461047857600080fd5b8063c87b56dd146103b5578063d5391393146103c8578063d547741f146103ef57600080fd5b806395d89b41116100d357806395d89b411461037f578063a217fddf14610387578063a22cb4651461038f578063b88d4fde146103a257600080fd5b806378ce90351461032b5780638c7ea24b1461033357806391d148541461034657600080fd5b80632f2ff15d11610166578063462cce4811610140578063462cce48146102f55780636352211e146102fd5780636e02007d1461031057806370a082311461031857600080fd5b80632f2ff15d146102bc57806336568abe146102cf57806342842e0e146102e257600080fd5b8063095ea7b3116101a2578063095ea7b31461023157806323b872dd14610246578063248a9ca3146102595780632a55205a1461028a57600080fd5b806301ffc9a7146101c957806306fdde03146101f1578063081812fc14610206575b600080fd5b6101dc6101d7366004611a6e565b61049f565b60405190151581526020015b60405180910390f35b6101f96104e3565b6040516101e89190611adb565b610219610214366004611aee565b610575565b6040516001600160a01b0390911681526020016101e8565b61024461023f366004611b23565b61059c565b005b610244610254366004611b4d565b6106d2565b61027c610267366004611aee565b60009081526006602052604090206001015490565b6040519081526020016101e8565b61029d610298366004611b89565b610749565b604080516001600160a01b0390931683526020830191909152016101e8565b6102446102ca366004611bab565b610794565b6102446102dd366004611bab565b6107b9565b6102446102f0366004611b4d565b610845565b6101dc610860565b61021961030b366004611aee565b610897565b60085461027c565b61027c610326366004611bd7565b6108fc565b6101f9610996565b610244610341366004611b23565b6109b2565b6101dc610354366004611bab565b60009182526006602090815260408084206001600160a01b0393909316845291905290205460ff1690565b6101f9610a76565b61027c600081565b61024461039d366004611bf2565b610a85565b6102446103b0366004611c44565b610a90565b6101f96103c3366004611aee565b610b0e565b61027c7f9f2df0fed2c77648de5860a4cc508cd0818c85b8b8a1ab4ceeef8d981c8956a681565b6102446103fd366004611bab565b610bba565b61027c7f000000000000000000000000000000000000000000000000000000000000000081565b6101dc610437366004611d20565b6001600160a01b03918216600090815260056020908152604080832093909416825291909152205460ff1690565b610244610473366004611bd7565b610bdf565b61027c7f241ecf16d79d0f8dbfb92cbc07fe17840425976cf0667f022fe9877caa831b0881565b60006001600160e01b031982167f2a55205a0000000000000000000000000000000000000000000000000000000014806104dd57506104dd82610eb0565b92915050565b6060600080546104f290611d4a565b80601f016020809104026020016040519081016040528092919081815260200182805461051e90611d4a565b801561056b5780601f106105405761010080835404028352916020019161056b565b820191906000526020600020905b81548152906001019060200180831161054e57829003601f168201915b5050505050905090565b600061058082610eee565b506000908152600460205260409020546001600160a01b031690565b60006105a782610897565b9050806001600160a01b0316836001600160a01b0316036106355760405162461bcd60e51b815260206004820152602160248201527f4552433732313a20617070726f76616c20746f2063757272656e74206f776e6560448201527f720000000000000000000000000000000000000000000000000000000000000060648201526084015b60405180910390fd5b336001600160a01b038216148061065157506106518133610437565b6106c35760405162461bcd60e51b815260206004820152603d60248201527f4552433732313a20617070726f76652063616c6c6572206973206e6f7420746f60448201527f6b656e206f776e6572206f7220617070726f76656420666f7220616c6c000000606482015260840161062c565b6106cd8383610f55565b505050565b6106dc3382610fd0565b61073e5760405162461bcd60e51b815260206004820152602d60248201527f4552433732313a2063616c6c6572206973206e6f7420746f6b656e206f776e6560448201526c1c881bdc88185c1c1c9bdd9959609a1b606482015260840161062c565b6106cd83838361104f565b604080518082019091526009546001600160a01b0316808252600a54602083018190529091600091620186a0906107809086611d9a565b61078a9190611db9565b9150509250929050565b6000828152600660205260409020600101546107af81611262565b6106cd838361126c565b6001600160a01b03811633146108375760405162461bcd60e51b815260206004820152602f60248201527f416363657373436f6e74726f6c3a2063616e206f6e6c792072656e6f756e636560448201527f20726f6c657320666f722073656c660000000000000000000000000000000000606482015260840161062c565b610841828261130e565b5050565b6106cd83838360405180602001604052806000815250610a90565b60006008547f0000000000000000000000000000000000000000000000000000000000000000116108915750600190565b50600090565b6000818152600260205260408120546001600160a01b0316806104dd5760405162461bcd60e51b815260206004820152601860248201527f4552433732313a20696e76616c696420746f6b656e2049440000000000000000604482015260640161062c565b60006001600160a01b03821661097a5760405162461bcd60e51b815260206004820152602960248201527f4552433732313a2061646472657373207a65726f206973206e6f74206120766160448201527f6c6964206f776e65720000000000000000000000000000000000000000000000606482015260840161062c565b506001600160a01b031660009081526003602052604090205490565b604051806080016040528060578152602001611f096057913981565b7f241ecf16d79d0f8dbfb92cbc07fe17840425976cf0667f022fe9877caa831b086109dc81611262565b620186a0821115610a2f5760405162461bcd60e51b815260206004820152601a60248201527f45524332393831526f79616c746965733a20546f6f2068696768000000000000604482015260640161062c565b50604080518082019091526001600160a01b0390921680835260209092018190526009805473ffffffffffffffffffffffffffffffffffffffff1916909217909155600a55565b6060600180546104f290611d4a565b610841338383611391565b610a9a3383610fd0565b610afc5760405162461bcd60e51b815260206004820152602d60248201527f4552433732313a2063616c6c6572206973206e6f7420746f6b656e206f776e6560448201526c1c881bdc88185c1c1c9bdd9959609a1b606482015260840161062c565b610b088484848461145f565b50505050565b6000818152600260205260409020546060906001600160a01b0316610b9b5760405162461bcd60e51b815260206004820152602f60248201527f4552433732314d657461646174613a2055524920717565727920666f72206e6f60448201527f6e6578697374656e7420746f6b656e0000000000000000000000000000000000606482015260840161062c565b604051806080016040528060578152602001611f096057913992915050565b600082815260066020526040902060010154610bd581611262565b6106cd838361130e565b7f9f2df0fed2c77648de5860a4cc508cd0818c85b8b8a1ab4ceeef8d981c8956a6610c0981611262565b610c116114dd565b610c19610860565b15610c50576040517fd05cb60900000000000000000000000000000000000000000000000000000000815260040160405180910390fd5b610c5c82600854611536565b6008546040516001600160a01b03841681527f0176f203df400d7bd5f1b1c9ef36c16709bf3b5d9fd35f000a6bae32393f66c39060200160405180910390a2600854610ca9906001611ddb565b6008556108416001600755565b60606104dd6001600160a01b03831660145b60606000610cd7836002611d9a565b610ce2906002611ddb565b67ffffffffffffffff811115610cfa57610cfa611c2e565b6040519080825280601f01601f191660200182016040528015610d24576020820181803683370190505b5090507f300000000000000000000000000000000000000000000000000000000000000081600081518110610d5b57610d5b611dee565b60200101906001600160f81b031916908160001a9053507f780000000000000000000000000000000000000000000000000000000000000081600181518110610da657610da6611dee565b60200101906001600160f81b031916908160001a9053506000610dca846002611d9a565b610dd5906001611ddb565b90505b6001811115610e5a577f303132333435363738396162636465660000000000000000000000000000000085600f1660108110610e1657610e16611dee565b1a60f81b828281518110610e2c57610e2c611dee565b60200101906001600160f81b031916908160001a90535060049490941c93610e5381611e04565b9050610dd8565b508315610ea95760405162461bcd60e51b815260206004820181905260248201527f537472696e67733a20686578206c656e67746820696e73756666696369656e74604482015260640161062c565b9392505050565b60006001600160e01b031982167f7965db0b0000000000000000000000000000000000000000000000000000000014806104dd57506104dd82611550565b6000818152600260205260409020546001600160a01b0316610f525760405162461bcd60e51b815260206004820152601860248201527f4552433732313a20696e76616c696420746f6b656e2049440000000000000000604482015260640161062c565b50565b6000818152600460205260409020805473ffffffffffffffffffffffffffffffffffffffff19166001600160a01b0384169081179091558190610f9782610897565b6001600160a01b03167f8c5be1e5ebec7d5bd14f71427d1e84f3dd0314c0f7b2291e5b200ac8c7c3b92560405160405180910390a45050565b600080610fdc83610897565b9050806001600160a01b0316846001600160a01b0316148061102357506001600160a01b0380821660009081526005602090815260408083209388168352929052205460ff165b806110475750836001600160a01b031661103c84610575565b6001600160a01b0316145b949350505050565b826001600160a01b031661106282610897565b6001600160a01b0316146110c65760405162461bcd60e51b815260206004820152602560248201527f4552433732313a207472616e736665722066726f6d20696e636f72726563742060448201526437bbb732b960d91b606482015260840161062c565b6001600160a01b0382166111415760405162461bcd60e51b8152602060048201526024808201527f4552433732313a207472616e7366657220746f20746865207a65726f2061646460448201527f7265737300000000000000000000000000000000000000000000000000000000606482015260840161062c565b61114e83838360016115eb565b826001600160a01b031661116182610897565b6001600160a01b0316146111c55760405162461bcd60e51b815260206004820152602560248201527f4552433732313a207472616e736665722066726f6d20696e636f72726563742060448201526437bbb732b960d91b606482015260840161062c565b6000818152600460209081526040808320805473ffffffffffffffffffffffffffffffffffffffff199081169091556001600160a01b0387811680865260038552838620805460001901905590871680865283862080546001019055868652600290945282852080549092168417909155905184937fddf252ad1be2c89b69c2b068fc378daa952ba7f163c4a11628f55a4df523b3ef91a4505050565b610f528133611673565b60008281526006602090815260408083206001600160a01b038516845290915290205460ff166108415760008281526006602090815260408083206001600160a01b03851684529091529020805460ff191660011790556112ca3390565b6001600160a01b0316816001600160a01b0316837f2f8788117e7eff1d82e926ec794901d17c78024a50270940304540a733656f0d60405160405180910390a45050565b60008281526006602090815260408083206001600160a01b038516845290915290205460ff16156108415760008281526006602090815260408083206001600160a01b0385168085529252808320805460ff1916905551339285917ff6391f5c32d9c69d2a47ea670b442974b53935d1edc7fd64eb21e047a839171b9190a45050565b816001600160a01b0316836001600160a01b0316036113f25760405162461bcd60e51b815260206004820152601960248201527f4552433732313a20617070726f766520746f2063616c6c657200000000000000604482015260640161062c565b6001600160a01b03838116600081815260056020908152604080832094871680845294825291829020805460ff191686151590811790915591519182527f17307eab39ab6107e8899845ad3d59bd9653f200f220920489ca2b5937696c31910160405180910390a3505050565b61146a84848461104f565b611476848484846116e8565b610b085760405162461bcd60e51b815260206004820152603260248201527f4552433732313a207472616e7366657220746f206e6f6e20455243373231526560448201527131b2b4bb32b91034b6b83632b6b2b73a32b960711b606482015260840161062c565b60026007540361152f5760405162461bcd60e51b815260206004820152601f60248201527f5265656e7472616e637947756172643a207265656e7472616e742063616c6c00604482015260640161062c565b6002600755565b610841828260405180602001604052806000815250611834565b60006001600160e01b031982167f80ac58cd0000000000000000000000000000000000000000000000000000000014806115b357506001600160e01b031982167f5b5e139f00000000000000000000000000000000000000000000000000000000145b806104dd57507f01ffc9a7000000000000000000000000000000000000000000000000000000006001600160e01b03198316146104dd565b6001811115610b08576001600160a01b03841615611631576001600160a01b0384166000908152600360205260408120805483929061162b908490611e1b565b90915550505b6001600160a01b03831615610b08576001600160a01b03831660009081526003602052604081208054839290611668908490611ddb565b909155505050505050565b60008281526006602090815260408083206001600160a01b038516845290915290205460ff16610841576116a681610cb6565b6116b1836020610cc8565b6040516020016116c2929190611e2e565b60408051601f198184030181529082905262461bcd60e51b825261062c91600401611adb565b60006001600160a01b0384163b1561182957604051630a85bd0160e11b81526001600160a01b0385169063150b7a029061172c903390899088908890600401611eaf565b6020604051808303816000875af1925050508015611767575060408051601f3d908101601f1916820190925261176491810190611eeb565b60015b61180f573d808015611795576040519150601f19603f3d011682016040523d82523d6000602084013e61179a565b606091505b5080516000036118075760405162461bcd60e51b815260206004820152603260248201527f4552433732313a207472616e7366657220746f206e6f6e20455243373231526560448201527131b2b4bb32b91034b6b83632b6b2b73a32b960711b606482015260840161062c565b805181602001fd5b6001600160e01b031916630a85bd0160e11b149050611047565b506001949350505050565b61183e83836118b2565b61184b60008484846116e8565b6106cd5760405162461bcd60e51b815260206004820152603260248201527f4552433732313a207472616e7366657220746f206e6f6e20455243373231526560448201527131b2b4bb32b91034b6b83632b6b2b73a32b960711b606482015260840161062c565b6001600160a01b0382166119085760405162461bcd60e51b815260206004820181905260248201527f4552433732313a206d696e7420746f20746865207a65726f2061646472657373604482015260640161062c565b6000818152600260205260409020546001600160a01b03161561196d5760405162461bcd60e51b815260206004820152601c60248201527f4552433732313a20746f6b656e20616c7265616479206d696e74656400000000604482015260640161062c565b61197b6000838360016115eb565b6000818152600260205260409020546001600160a01b0316156119e05760405162461bcd60e51b815260206004820152601c60248201527f4552433732313a20746f6b656e20616c7265616479206d696e74656400000000604482015260640161062c565b6001600160a01b0382166000818152600360209081526040808320805460010190558483526002909152808220805473ffffffffffffffffffffffffffffffffffffffff19168417905551839291907fddf252ad1be2c89b69c2b068fc378daa952ba7f163c4a11628f55a4df523b3ef908290a45050565b6001600160e01b031981168114610f5257600080fd5b600060208284031215611a8057600080fd5b8135610ea981611a58565b60005b83811015611aa6578181015183820152602001611a8e565b50506000910152565b60008151808452611ac7816020860160208601611a8b565b601f01601f19169290920160200192915050565b602081526000610ea96020830184611aaf565b600060208284031215611b0057600080fd5b5035919050565b80356001600160a01b0381168114611b1e57600080fd5b919050565b60008060408385031215611b3657600080fd5b611b3f83611b07565b946020939093013593505050565b600080600060608486031215611b6257600080fd5b611b6b84611b07565b9250611b7960208501611b07565b9150604084013590509250925092565b60008060408385031215611b9c57600080fd5b50508035926020909101359150565b60008060408385031215611bbe57600080fd5b82359150611bce60208401611b07565b90509250929050565b600060208284031215611be957600080fd5b610ea982611b07565b60008060408385031215611c0557600080fd5b611c0e83611b07565b915060208301358015158114611c2357600080fd5b809150509250929050565b634e487b7160e01b600052604160045260246000fd5b60008060008060808587031215611c5a57600080fd5b611c6385611b07565b9350611c7160208601611b07565b925060408501359150606085013567ffffffffffffffff80821115611c9557600080fd5b818701915087601f830112611ca957600080fd5b813581811115611cbb57611cbb611c2e565b604051601f8201601f19908116603f01168101908382118183101715611ce357611ce3611c2e565b816040528281528a6020848701011115611cfc57600080fd5b82602086016020830137600060208483010152809550505050505092959194509250565b60008060408385031215611d3357600080fd5b611d3c83611b07565b9150611bce60208401611b07565b600181811c90821680611d5e57607f821691505b602082108103611d7e57634e487b7160e01b600052602260045260246000fd5b50919050565b634e487b7160e01b600052601160045260246000fd5b6000816000190483118215151615611db457611db4611d84565b500290565b600082611dd657634e487b7160e01b600052601260045260246000fd5b500490565b808201808211156104dd576104dd611d84565b634e487b7160e01b600052603260045260246000fd5b600081611e1357611e13611d84565b506000190190565b818103818111156104dd576104dd611d84565b7f416363657373436f6e74726f6c3a206163636f756e7420000000000000000000815260008351611e66816017850160208801611a8b565b7f206973206d697373696e6720726f6c65200000000000000000000000000000006017918401918201528351611ea3816028840160208801611a8b565b01602801949350505050565b60006001600160a01b03808716835280861660208401525083604083015260806060830152611ee16080830184611aaf565b9695505050505050565b600060208284031215611efd57600080fd5b8151610ea981611a5856fe697066733a2f2f62616679626569673337696f6972373673376d67356f6f6265746e636f6a636d3363336878617379643472766964346a71687934676b61686567342f3f66696c656e616d653d302d5055472e6a736f6ea2646970667358221220cb11b605b2524bf02b030bb57abbd922ddfb542578b628b6ac5158c84852379f64736f6c63430008100033241ecf16d79d0f8dbfb92cbc07fe17840425976cf0667f022fe9877caa831b08",
  "devdoc": {
    "kind": "dev",
    "methods": {
      "approve(address,uint256)": {
        "details": "See {IERC721-approve}."
      },
      "balanceOf(address)": {
        "details": "See {IERC721-balanceOf}."
      },
      "getApproved(uint256)": {
        "details": "See {IERC721-getApproved}."
      },
      "getRoleAdmin(bytes32)": {
        "details": "Returns the admin role that controls `role`. See {grantRole} and {revokeRole}. To change a role's admin, use {_setRoleAdmin}."
      },
      "grantRole(bytes32,address)": {
        "details": "Grants `role` to `account`. If `account` had not been already granted `role`, emits a {RoleGranted} event. Requirements: - the caller must have ``role``'s admin role. May emit a {RoleGranted} event."
      },
      "hasRole(bytes32,address)": {
        "details": "Returns `true` if `account` has been granted `role`."
      },
      "isApprovedForAll(address,address)": {
        "details": "See {IERC721-isApprovedForAll}."
      },
      "name()": {
        "details": "See {IERC721Metadata-name}."
      },
      "ownerOf(uint256)": {
        "details": "See {IERC721-ownerOf}."
      },
      "renounceRole(bytes32,address)": {
        "details": "Revokes `role` from the calling account. Roles are often managed via {grantRole} and {revokeRole}: this function's purpose is to provide a mechanism for accounts to lose their privileges if they are compromised (such as when a trusted device is misplaced). If the calling account had been revoked `role`, emits a {RoleRevoked} event. Requirements: - the caller must be `account`. May emit a {RoleRevoked} event."
      },
      "revokeRole(bytes32,address)": {
        "details": "Revokes `role` from `account`. If `account` had been granted `role`, emits a {RoleRevoked} event. Requirements: - the caller must have ``role``'s admin role. May emit a {RoleRevoked} event."
      },
      "safeTransferFrom(address,address,uint256)": {
        "details": "See {IERC721-safeTransferFrom}."
      },
      "safeTransferFrom(address,address,uint256,bytes)": {
        "details": "See {IERC721-safeTransferFrom}."
      },
      "setApprovalForAll(address,bool)": {
        "details": "See {IERC721-setApprovalForAll}."
      },
      "symbol()": {
        "details": "See {IERC721Metadata-symbol}."
      },
      "tokenURI(uint256)": {
        "details": "See {IERC721Metadata-tokenURI}."
      },
      "transferFrom(address,address,uint256)": {
        "details": "See {IERC721-transferFrom}."
      }
    },
    "version": 1
  },
  "userdoc": {
    "kind": "user",
    "methods": {},
    "version": 1
  },
  "storageLayout": {
    "storage": [
      {
        "astId": 1696,
        "contract": "contracts/mocks/BasicNft.sol:BasicNft",
        "label": "_name",
        "offset": 0,
        "slot": "0",
        "type": "t_string_storage"
      },
      {
        "astId": 1698,
        "contract": "contracts/mocks/BasicNft.sol:BasicNft",
        "label": "_symbol",
        "offset": 0,
        "slot": "1",
        "type": "t_string_storage"
      },
      {
        "astId": 1702,
        "contract": "contracts/mocks/BasicNft.sol:BasicNft",
        "label": "_owners",
        "offset": 0,
        "slot": "2",
        "type": "t_mapping(t_uint256,t_address)"
      },
      {
        "astId": 1706,
        "contract": "contracts/mocks/BasicNft.sol:BasicNft",
        "label": "_balances",
        "offset": 0,
        "slot": "3",
        "type": "t_mapping(t_address,t_uint256)"
      },
      {
        "astId": 1710,
        "contract": "contracts/mocks/BasicNft.sol:BasicNft",
        "label": "_tokenApprovals",
        "offset": 0,
        "slot": "4",
        "type": "t_mapping(t_uint256,t_address)"
      },
      {
        "astId": 1716,
        "contract": "contracts/mocks/BasicNft.sol:BasicNft",
        "label": "_operatorApprovals",
        "offset": 0,
        "slot": "5",
        "type": "t_mapping(t_address,t_mapping(t_address,t_bool))"
      },
      {
        "astId": 24,
        "contract": "contracts/mocks/BasicNft.sol:BasicNft",
        "label": "_roles",
        "offset": 0,
        "slot": "6",
        "type": "t_mapping(t_bytes32,t_struct(RoleData)19_storage)"
      },
      {
        "astId": 620,
        "contract": "contracts/mocks/BasicNft.sol:BasicNft",
        "label": "_status",
        "offset": 0,
        "slot": "7",
        "type": "t_uint256"
      },
      {
        "astId": 6952,
        "contract": "contracts/mocks/BasicNft.sol:BasicNft",
        "label": "s_tokenCounter",
        "offset": 0,
        "slot": "8",
        "type": "t_uint256"
      },
      {
        "astId": 6962,
        "contract": "contracts/mocks/BasicNft.sol:BasicNft",
        "label": "_royalties",
        "offset": 0,
        "slot": "9",
        "type": "t_struct(RoyaltyInfo)6959_storage"
      }
    ],
    "types": {
      "t_address": {
        "encoding": "inplace",
        "label": "address",
        "numberOfBytes": "20"
      },
      "t_bool": {
        "encoding": "inplace",
        "label": "bool",
        "numberOfBytes": "1"
      },
      "t_bytes32": {
        "encoding": "inplace",
        "label": "bytes32",
        "numberOfBytes": "32"
      },
      "t_mapping(t_address,t_bool)": {
        "encoding": "mapping",
        "key": "t_address",
        "label": "mapping(address => bool)",
        "numberOfBytes": "32",
        "value": "t_bool"
      },
      "t_mapping(t_address,t_mapping(t_address,t_bool))": {
        "encoding": "mapping",
        "key": "t_address",
        "label": "mapping(address => mapping(address => bool))",
        "numberOfBytes": "32",
        "value": "t_mapping(t_address,t_bool)"
      },
      "t_mapping(t_address,t_uint256)": {
        "encoding": "mapping",
        "key": "t_address",
        "label": "mapping(address => uint256)",
        "numberOfBytes": "32",
        "value": "t_uint256"
      },
      "t_mapping(t_bytes32,t_struct(RoleData)19_storage)": {
        "encoding": "mapping",
        "key": "t_bytes32",
        "label": "mapping(bytes32 => struct AccessControl.RoleData)",
        "numberOfBytes": "32",
        "value": "t_struct(RoleData)19_storage"
      },
      "t_mapping(t_uint256,t_address)": {
        "encoding": "mapping",
        "key": "t_uint256",
        "label": "mapping(uint256 => address)",
        "numberOfBytes": "32",
        "value": "t_address"
      },
      "t_string_storage": {
        "encoding": "bytes",
        "label": "string",
        "numberOfBytes": "32"
      },
      "t_struct(RoleData)19_storage": {
        "encoding": "inplace",
        "label": "struct AccessControl.RoleData",
        "members": [
          {
            "astId": 16,
            "contract": "contracts/mocks/BasicNft.sol:BasicNft",
            "label": "members",
            "offset": 0,
            "slot": "0",
            "type": "t_mapping(t_address,t_bool)"
          },
          {
            "astId": 18,
            "contract": "contracts/mocks/BasicNft.sol:BasicNft",
            "label": "adminRole",
            "offset": 0,
            "slot": "1",
            "type": "t_bytes32"
          }
        ],
        "numberOfBytes": "64"
      },
      "t_struct(RoyaltyInfo)6959_storage": {
        "encoding": "inplace",
        "label": "struct BasicNft.RoyaltyInfo",
        "members": [
          {
            "astId": 6956,
            "contract": "contracts/mocks/BasicNft.sol:BasicNft",
            "label": "recipient",
            "offset": 0,
            "slot": "0",
            "type": "t_address"
          },
          {
            "astId": 6958,
            "contract": "contracts/mocks/BasicNft.sol:BasicNft",
            "label": "amount",
            "offset": 0,
            "slot": "1",
            "type": "t_uint256"
          }
        ],
        "numberOfBytes": "64"
      },
      "t_uint256": {
        "encoding": "inplace",
        "label": "uint256",
        "numberOfBytes": "32"
      }
    }
  }
}