{
  "address": "0xDc64a140Aa3E981100a9becA4E685f962f0cF6C9",
  "abi": [
    {
      "inputs": [
        {
          "internalType": "address",
          "name": "_allowedErc20Token",
          "type": "address"
        },
        {
          "internalType": "address",
          "name": "_businessAddress",
          "type": "address"
        },
        {
          "internalType": "address",
          "name": "_treasuryAddress",
          "type": "address"
        },
        {
          "internalType": "uint256",
          "name": "_feeFraction",
          "type": "uint256"
        },
        {
          "internalType": "uint256[]",
          "name": "_amountsToBeRaised",
          "type": "uint256[]"
        },
        {
          "internalType": "uint256[]",
          "name": "_campaignAndDecisionPeriod",
          "type": "uint256[]"
        },
        {
          "components": [
            {
              "internalType": "uint256",
              "name": "fundingTier",
              "type": "uint256"
            },
            {
              "internalType": "uint256",
              "name": "tierCost",
              "type": "uint256"
            }
          ],
          "internalType": "struct IFundABusiness.FundingTierCost[]",
          "name": "_fundingTiers",
          "type": "tuple[]"
        },
        {
          "components": [
            {
              "internalType": "uint256",
              "name": "milestoneNumber",
              "type": "uint256"
            },
            {
              "internalType": "uint256",
              "name": "fractionToBeReleased",
              "type": "uint256"
            }
          ],
          "internalType": "struct IFundABusiness.MilestoneStruct[]",
          "name": "_milestonesData",
          "type": "tuple[]"
        }
      ],
      "stateMutability": "nonpayable",
      "type": "constructor"
    },
    {
      "inputs": [],
      "name": "AlreadyApproved",
      "type": "error"
    },
    {
      "inputs": [],
      "name": "CampaignEnded",
      "type": "error"
    },
    {
      "inputs": [],
      "name": "CampaignNotOpen",
      "type": "error"
    },
    {
      "inputs": [],
      "name": "CampaignUnsuccessful",
      "type": "error"
    },
    {
      "inputs": [],
      "name": "DecisionMade",
      "type": "error"
    },
    {
      "inputs": [],
      "name": "FractionTooHigh",
      "type": "error"
    },
    {
      "inputs": [],
      "name": "FunderHasClaimedNft",
      "type": "error"
    },
    {
      "inputs": [],
      "name": "InsufficientBalance",
      "type": "error"
    },
    {
      "inputs": [],
      "name": "InvalidTier",
      "type": "error"
    },
    {
      "inputs": [],
      "name": "InvalidTierAndQuantity",
      "type": "error"
    },
    {
      "inputs": [],
      "name": "InvalidValues",
      "type": "error"
    },
    {
      "inputs": [],
      "name": "NeedMoreTokens",
      "type": "error"
    },
    {
      "inputs": [],
      "name": "NftTokensNotSet",
      "type": "error"
    },
    {
      "inputs": [],
      "name": "NoFundDue",
      "type": "error"
    },
    {
      "inputs": [],
      "name": "NoRefund",
      "type": "error"
    },
    {
      "inputs": [],
      "name": "NotAFunder",
      "type": "error"
    },
    {
      "inputs": [],
      "name": "NotReceivingFunds",
      "type": "error"
    },
    {
      "inputs": [],
      "name": "NotTheOwner",
      "type": "error"
    },
    {
      "inputs": [],
      "name": "ReleasingMoreThanFundRaised",
      "type": "error"
    },
    {
      "inputs": [],
      "name": "TooLateToChange",
      "type": "error"
    },
    {
      "inputs": [],
      "name": "TransactionFailed",
      "type": "error"
    },
    {
      "inputs": [],
      "name": "Undecided",
      "type": "error"
    },
    {
      "inputs": [],
      "name": "ZeroAddress",
      "type": "error"
    },
    {
      "anonymous": false,
      "inputs": [
        {
          "indexed": false,
          "internalType": "uint256",
          "name": "time",
          "type": "uint256"
        }
      ],
      "name": "CampaignFailed",
      "type": "event"
    },
    {
      "anonymous": false,
      "inputs": [
        {
          "indexed": false,
          "internalType": "uint256",
          "name": "time",
          "type": "uint256"
        }
      ],
      "name": "CampaignSuccessful",
      "type": "event"
    },
    {
      "anonymous": false,
      "inputs": [
        {
          "indexed": false,
          "internalType": "address",
          "name": "funder",
          "type": "address"
        },
        {
          "indexed": false,
          "internalType": "uint256",
          "name": "tier",
          "type": "uint256"
        }
      ],
      "name": "ContributionReceived",
      "type": "event"
    },
    {
      "anonymous": false,
      "inputs": [
        {
          "indexed": false,
          "internalType": "address",
          "name": "funder",
          "type": "address"
        },
        {
          "indexed": false,
          "internalType": "uint256",
          "name": "tier",
          "type": "uint256"
        }
      ],
      "name": "ContributionRefunded",
      "type": "event"
    },
    {
      "anonymous": false,
      "inputs": [
        {
          "indexed": false,
          "internalType": "address",
          "name": "funder",
          "type": "address"
        },
        {
          "indexed": false,
          "internalType": "uint256",
          "name": "amount",
          "type": "uint256"
        }
      ],
      "name": "FiatContributionReceived",
      "type": "event"
    },
    {
      "anonymous": false,
      "inputs": [
        {
          "indexed": false,
          "internalType": "address",
          "name": "business",
          "type": "address"
        },
        {
          "indexed": false,
          "internalType": "uint256",
          "name": "amount",
          "type": "uint256"
        },
        {
          "indexed": false,
          "internalType": "uint256",
          "name": "time",
          "type": "uint256"
        }
      ],
      "name": "FundReleased",
      "type": "event"
    },
    {
      "anonymous": false,
      "inputs": [
        {
          "indexed": true,
          "internalType": "address",
          "name": "owner",
          "type": "address"
        },
        {
          "indexed": false,
          "internalType": "uint256",
          "name": "tier",
          "type": "uint256"
        },
        {
          "indexed": false,
          "internalType": "uint256",
          "name": "tokenId",
          "type": "uint256"
        }
      ],
      "name": "IsTheTrueOwner",
      "type": "event"
    },
    {
      "anonymous": false,
      "inputs": [
        {
          "indexed": false,
          "internalType": "address",
          "name": "funder",
          "type": "address"
        },
        {
          "indexed": false,
          "internalType": "uint256",
          "name": "tier",
          "type": "uint256"
        }
      ],
      "name": "NFTRewardClaimed",
      "type": "event"
    },
    {
      "anonymous": false,
      "inputs": [
        {
          "indexed": true,
          "internalType": "address",
          "name": "caller",
          "type": "address"
        },
        {
          "indexed": false,
          "internalType": "uint256",
          "name": "tier",
          "type": "uint256"
        },
        {
          "indexed": false,
          "internalType": "uint256",
          "name": "tokenId",
          "type": "uint256"
        }
      ],
      "name": "NotTheTrueOwner",
      "type": "event"
    },
    {
      "anonymous": false,
      "inputs": [
        {
          "indexed": false,
          "internalType": "address",
          "name": "account",
          "type": "address"
        }
      ],
      "name": "Paused",
      "type": "event"
    },
    {
      "anonymous": false,
      "inputs": [
        {
          "indexed": true,
          "internalType": "bytes32",
          "name": "role",
          "type": "bytes32"
        },
        {
          "indexed": true,
          "internalType": "bytes32",
          "name": "previousAdminRole",
          "type": "bytes32"
        },
        {
          "indexed": true,
          "internalType": "bytes32",
          "name": "newAdminRole",
          "type": "bytes32"
        }
      ],
      "name": "RoleAdminChanged",
      "type": "event"
    },
    {
      "anonymous": false,
      "inputs": [
        {
          "indexed": true,
          "internalType": "bytes32",
          "name": "role",
          "type": "bytes32"
        },
        {
          "indexed": true,
          "internalType": "address",
          "name": "account",
          "type": "address"
        },
        {
          "indexed": true,
          "internalType": "address",
          "name": "sender",
          "type": "address"
        }
      ],
      "name": "RoleGranted",
      "type": "event"
    },
    {
      "anonymous": false,
      "inputs": [
        {
          "indexed": true,
          "internalType": "bytes32",
          "name": "role",
          "type": "bytes32"
        },
        {
          "indexed": true,
          "internalType": "address",
          "name": "account",
          "type": "address"
        },
        {
          "indexed": true,
          "internalType": "address",
          "name": "sender",
          "type": "address"
        }
      ],
      "name": "RoleRevoked",
      "type": "event"
    },
    {
      "anonymous": false,
      "inputs": [
        {
          "indexed": false,
          "internalType": "address",
          "name": "account",
          "type": "address"
        }
      ],
      "name": "Unpaused",
      "type": "event"
    },
    {
      "inputs": [],
      "name": "DEFAULT_ADMIN_ROLE",
      "outputs": [
        {
          "internalType": "bytes32",
          "name": "",
          "type": "bytes32"
        }
      ],
      "stateMutability": "view",
      "type": "function"
    },
    {
      "inputs": [],
      "name": "MANAGER_ROLE",
      "outputs": [
        {
          "internalType": "bytes32",
          "name": "",
          "type": "bytes32"
        }
      ],
      "stateMutability": "view",
      "type": "function"
    },
    {
      "inputs": [],
      "name": "PAUSER_ROLE",
      "outputs": [
        {
          "internalType": "bytes32",
          "name": "",
          "type": "bytes32"
        }
      ],
      "stateMutability": "view",
      "type": "function"
    },
    {
      "inputs": [],
      "name": "allowedErc20Token",
      "outputs": [
        {
          "internalType": "contract IERC20",
          "name": "",
          "type": "address"
        }
      ],
      "stateMutability": "view",
      "type": "function"
    },
    {
      "inputs": [
        {
          "internalType": "uint256",
          "name": "_milestoneNumber",
          "type": "uint256"
        }
      ],
      "name": "approveMilestoneAndReleaseFund",
      "outputs": [],
      "stateMutability": "nonpayable",
      "type": "function"
    },
    {
      "inputs": [],
      "name": "areNftTokensSet",
      "outputs": [
        {
          "internalType": "bool",
          "name": "",
          "type": "bool"
        }
      ],
      "stateMutability": "view",
      "type": "function"
    },
    {
      "inputs": [],
      "name": "businessAddress",
      "outputs": [
        {
          "internalType": "address",
          "name": "",
          "type": "address"
        }
      ],
      "stateMutability": "view",
      "type": "function"
    },
    {
      "inputs": [
        {
          "internalType": "address",
          "name": "",
          "type": "address"
        }
      ],
      "name": "businessBalance",
      "outputs": [
        {
          "internalType": "uint256",
          "name": "",
          "type": "uint256"
        }
      ],
      "stateMutability": "view",
      "type": "function"
    },
    {
      "inputs": [],
      "name": "campaignDecisionTime",
      "outputs": [
        {
          "internalType": "uint256",
          "name": "",
          "type": "uint256"
        }
      ],
      "stateMutability": "view",
      "type": "function"
    },
    {
      "inputs": [],
      "name": "campaignEndTime",
      "outputs": [
        {
          "internalType": "uint256",
          "name": "",
          "type": "uint256"
        }
      ],
      "stateMutability": "view",
      "type": "function"
    },
    {
      "inputs": [],
      "name": "campaignStartTime",
      "outputs": [
        {
          "internalType": "uint256",
          "name": "",
          "type": "uint256"
        }
      ],
      "stateMutability": "view",
      "type": "function"
    },
    {
      "inputs": [
        {
          "internalType": "uint256",
          "name": "_tier",
          "type": "uint256"
        }
      ],
      "name": "claimNft",
      "outputs": [],
      "stateMutability": "nonpayable",
      "type": "function"
    },
    {
      "inputs": [
        {
          "internalType": "address",
          "name": "_funder",
          "type": "address"
        },
        {
          "internalType": "uint256",
          "name": "_tier",
          "type": "uint256"
        }
      ],
      "name": "claimNftFor",
      "outputs": [],
      "stateMutability": "nonpayable",
      "type": "function"
    },
    {
      "inputs": [
        {
          "internalType": "uint256",
          "name": "_tier",
          "type": "uint256"
        }
      ],
      "name": "claimRefund",
      "outputs": [],
      "stateMutability": "nonpayable",
      "type": "function"
    },
    {
      "inputs": [
        {
          "internalType": "address",
          "name": "_funder",
          "type": "address"
        },
        {
          "internalType": "uint256",
          "name": "_tier",
          "type": "uint256"
        }
      ],
      "name": "claimRefundFor",
      "outputs": [],
      "stateMutability": "nonpayable",
      "type": "function"
    },
    {
      "inputs": [
        {
          "internalType": "enum IFundABusiness.EndCampaign",
          "name": "_reasonForEnding",
          "type": "uint8"
        }
      ],
      "name": "closeFundingRound",
      "outputs": [],
      "stateMutability": "nonpayable",
      "type": "function"
    },
    {
      "inputs": [
        {
          "internalType": "uint256",
          "name": "_tier",
          "type": "uint256"
        },
        {
          "internalType": "uint256",
          "name": "_quantity",
          "type": "uint256"
        }
      ],
      "name": "contribute",
      "outputs": [],
      "stateMutability": "nonpayable",
      "type": "function"
    },
    {
      "inputs": [
        {
          "internalType": "address",
          "name": "_funder",
          "type": "address"
        },
        {
          "internalType": "uint256",
          "name": "_tier",
          "type": "uint256"
        },
        {
          "internalType": "uint256",
          "name": "_quantity",
          "type": "uint256"
        }
      ],
      "name": "contributeOnBehalfOf",
      "outputs": [],
      "stateMutability": "nonpayable",
      "type": "function"
    },
    {
      "inputs": [],
      "name": "cumFundReleased",
      "outputs": [
        {
          "internalType": "uint256",
          "name": "",
          "type": "uint256"
        }
      ],
      "stateMutability": "view",
      "type": "function"
    },
    {
      "inputs": [
        {
          "internalType": "address[]",
          "name": "_funders",
          "type": "address[]"
        },
        {
          "internalType": "uint256[]",
          "name": "_tiers",
          "type": "uint256[]"
        },
        {
          "internalType": "uint256[]",
          "name": "_quantities",
          "type": "uint256[]"
        },
        {
          "internalType": "uint256",
          "name": "_totalAmount",
          "type": "uint256"
        }
      ],
      "name": "fiatContributeOnBehalfOf",
      "outputs": [],
      "stateMutability": "nonpayable",
      "type": "function"
    },
    {
      "inputs": [
        {
          "internalType": "uint256",
          "name": "",
          "type": "uint256"
        }
      ],
      "name": "fractionOfMilestone",
      "outputs": [
        {
          "internalType": "uint256",
          "name": "",
          "type": "uint256"
        }
      ],
      "stateMutability": "view",
      "type": "function"
    },
    {
      "inputs": [],
      "name": "fundRaised",
      "outputs": [
        {
          "internalType": "uint256",
          "name": "",
          "type": "uint256"
        }
      ],
      "stateMutability": "view",
      "type": "function"
    },
    {
      "inputs": [],
      "name": "fundRaisedMinusFee",
      "outputs": [
        {
          "internalType": "uint256",
          "name": "",
          "type": "uint256"
        }
      ],
      "stateMutability": "view",
      "type": "function"
    },
    {
      "inputs": [],
      "name": "getBusinessBalance",
      "outputs": [
        {
          "internalType": "uint256",
          "name": "",
          "type": "uint256"
        }
      ],
      "stateMutability": "view",
      "type": "function"
    },
    {
      "inputs": [],
      "name": "getFundersAddresses",
      "outputs": [
        {
          "internalType": "address[]",
          "name": "",
          "type": "address[]"
        }
      ],
      "stateMutability": "view",
      "type": "function"
    },
    {
      "inputs": [
        {
          "internalType": "uint256",
          "name": "_tier",
          "type": "uint256"
        }
      ],
      "name": "getQuantityOfTierBought",
      "outputs": [
        {
          "internalType": "uint256",
          "name": "",
          "type": "uint256"
        }
      ],
      "stateMutability": "view",
      "type": "function"
    },
    {
      "inputs": [
        {
          "internalType": "bytes32",
          "name": "role",
          "type": "bytes32"
        }
      ],
      "name": "getRoleAdmin",
      "outputs": [
        {
          "internalType": "bytes32",
          "name": "",
          "type": "bytes32"
        }
      ],
      "stateMutability": "view",
      "type": "function"
    },
    {
      "inputs": [
        {
          "internalType": "uint256",
          "name": "_tier",
          "type": "uint256"
        }
      ],
      "name": "getTierPrice",
      "outputs": [
        {
          "internalType": "uint256",
          "name": "",
          "type": "uint256"
        }
      ],
      "stateMutability": "view",
      "type": "function"
    },
    {
      "inputs": [
        {
          "internalType": "bytes32",
          "name": "role",
          "type": "bytes32"
        },
        {
          "internalType": "address",
          "name": "account",
          "type": "address"
        }
      ],
      "name": "grantRole",
      "outputs": [],
      "stateMutability": "nonpayable",
      "type": "function"
    },
    {
      "inputs": [
        {
          "internalType": "address",
          "name": "",
          "type": "address"
        },
        {
          "internalType": "uint256",
          "name": "",
          "type": "uint256"
        }
      ],
      "name": "hasClaimedNft",
      "outputs": [
        {
          "internalType": "bool",
          "name": "",
          "type": "bool"
        }
      ],
      "stateMutability": "view",
      "type": "function"
    },
    {
      "inputs": [
        {
          "internalType": "bytes32",
          "name": "role",
          "type": "bytes32"
        },
        {
          "internalType": "address",
          "name": "account",
          "type": "address"
        }
      ],
      "name": "hasRole",
      "outputs": [
        {
          "internalType": "bool",
          "name": "",
          "type": "bool"
        }
      ],
      "stateMutability": "view",
      "type": "function"
    },
    {
      "inputs": [
        {
          "internalType": "address",
          "name": "",
          "type": "address"
        }
      ],
      "name": "isAFunder",
      "outputs": [
        {
          "internalType": "bool",
          "name": "",
          "type": "bool"
        }
      ],
      "stateMutability": "view",
      "type": "function"
    },
    {
      "inputs": [
        {
          "internalType": "uint256",
          "name": "",
          "type": "uint256"
        }
      ],
      "name": "isMilestoneApproved",
      "outputs": [
        {
          "internalType": "bool",
          "name": "",
          "type": "bool"
        }
      ],
      "stateMutability": "view",
      "type": "function"
    },
    {
      "inputs": [
        {
          "internalType": "uint256",
          "name": "_tier",
          "type": "uint256"
        },
        {
          "internalType": "uint256",
          "name": "_tokenId",
          "type": "uint256"
        }
      ],
      "name": "isOwnerOf",
      "outputs": [],
      "stateMutability": "nonpayable",
      "type": "function"
    },
    {
      "inputs": [],
      "name": "minTargetAmount",
      "outputs": [
        {
          "internalType": "uint256",
          "name": "",
          "type": "uint256"
        }
      ],
      "stateMutability": "view",
      "type": "function"
    },
    {
      "inputs": [],
      "name": "moatFeeNumerator",
      "outputs": [
        {
          "internalType": "uint256",
          "name": "",
          "type": "uint256"
        }
      ],
      "stateMutability": "view",
      "type": "function"
    },
    {
      "inputs": [
        {
          "internalType": "uint256",
          "name": "",
          "type": "uint256"
        }
      ],
      "name": "nftContractOf",
      "outputs": [
        {
          "internalType": "contract INftPerks",
          "name": "",
          "type": "address"
        }
      ],
      "stateMutability": "view",
      "type": "function"
    },
    {
      "inputs": [],
      "name": "pause",
      "outputs": [],
      "stateMutability": "nonpayable",
      "type": "function"
    },
    {
      "inputs": [],
      "name": "paused",
      "outputs": [
        {
          "internalType": "bool",
          "name": "",
          "type": "bool"
        }
      ],
      "stateMutability": "view",
      "type": "function"
    },
    {
      "inputs": [
        {
          "internalType": "bytes32",
          "name": "role",
          "type": "bytes32"
        },
        {
          "internalType": "address",
          "name": "account",
          "type": "address"
        }
      ],
      "name": "renounceRole",
      "outputs": [],
      "stateMutability": "nonpayable",
      "type": "function"
    },
    {
      "inputs": [
        {
          "internalType": "bytes32",
          "name": "role",
          "type": "bytes32"
        },
        {
          "internalType": "address",
          "name": "account",
          "type": "address"
        }
      ],
      "name": "revokeRole",
      "outputs": [],
      "stateMutability": "nonpayable",
      "type": "function"
    },
    {
      "inputs": [
        {
          "internalType": "address",
          "name": "_allowedErc20Token",
          "type": "address"
        }
      ],
      "name": "setAllowedToken",
      "outputs": [],
      "stateMutability": "nonpayable",
      "type": "function"
    },
    {
      "inputs": [
        {
          "internalType": "address",
          "name": "_businessAddress",
          "type": "address"
        }
      ],
      "name": "setBusinessAddress",
      "outputs": [],
      "stateMutability": "nonpayable",
      "type": "function"
    },
    {
      "inputs": [
        {
          "internalType": "uint256[]",
          "name": "_campaignTimesAndDecision",
          "type": "uint256[]"
        }
      ],
      "name": "setCampaignAndDecisionPeriod",
      "outputs": [],
      "stateMutability": "nonpayable",
      "type": "function"
    },
    {
      "inputs": [
        {
          "components": [
            {
              "internalType": "uint256",
              "name": "fundingTier",
              "type": "uint256"
            },
            {
              "internalType": "uint256",
              "name": "tierCost",
              "type": "uint256"
            }
          ],
          "internalType": "struct IFundABusiness.FundingTierCost[]",
          "name": "_fundingTiers",
          "type": "tuple[]"
        }
      ],
      "name": "setFundingTiersAndCosts",
      "outputs": [],
      "stateMutability": "nonpayable",
      "type": "function"
    },
    {
      "inputs": [
        {
          "internalType": "uint256",
          "name": "_feeFraction",
          "type": "uint256"
        }
      ],
      "name": "setMOATFee",
      "outputs": [],
      "stateMutability": "nonpayable",
      "type": "function"
    },
    {
      "inputs": [
        {
          "components": [
            {
              "internalType": "uint256",
              "name": "milestoneNumber",
              "type": "uint256"
            },
            {
              "internalType": "uint256",
              "name": "fractionToBeReleased",
              "type": "uint256"
            }
          ],
          "internalType": "struct IFundABusiness.MilestoneStruct[]",
          "name": "_milestonesData",
          "type": "tuple[]"
        }
      ],
      "name": "setMilestones",
      "outputs": [],
      "stateMutability": "nonpayable",
      "type": "function"
    },
    {
      "inputs": [
        {
          "components": [
            {
              "internalType": "uint256",
              "name": "fundingTier",
              "type": "uint256"
            },
            {
              "internalType": "address",
              "name": "nftTokenAddress",
              "type": "address"
            }
          ],
          "internalType": "struct IFundABusiness.NftTierContract[]",
          "name": "_nftTierContracts",
          "type": "tuple[]"
        }
      ],
      "name": "setNftPerkContracts",
      "outputs": [],
      "stateMutability": "nonpayable",
      "type": "function"
    },
    {
      "inputs": [
        {
          "internalType": "uint256[]",
          "name": "_amountsToBeRaised",
          "type": "uint256[]"
        }
      ],
      "name": "setTargetAmounts",
      "outputs": [],
      "stateMutability": "nonpayable",
      "type": "function"
    },
    {
      "inputs": [
        {
          "internalType": "address",
          "name": "_treasuryAddress",
          "type": "address"
        }
      ],
      "name": "setTreasuryAddress",
      "outputs": [],
      "stateMutability": "nonpayable",
      "type": "function"
    },
    {
      "inputs": [
        {
          "internalType": "bytes4",
          "name": "interfaceId",
          "type": "bytes4"
        }
      ],
      "name": "supportsInterface",
      "outputs": [
        {
          "internalType": "bool",
          "name": "",
          "type": "bool"
        }
      ],
      "stateMutability": "view",
      "type": "function"
    },
    {
      "inputs": [],
      "name": "targetAmount",
      "outputs": [
        {
          "internalType": "uint256",
          "name": "",
          "type": "uint256"
        }
      ],
      "stateMutability": "view",
      "type": "function"
    },
    {
      "inputs": [
        {
          "internalType": "address",
          "name": "",
          "type": "address"
        },
        {
          "internalType": "uint256",
          "name": "",
          "type": "uint256"
        }
      ],
      "name": "tierBalanceOf",
      "outputs": [
        {
          "internalType": "uint256",
          "name": "",
          "type": "uint256"
        }
      ],
      "stateMutability": "view",
      "type": "function"
    },
    {
      "inputs": [
        {
          "internalType": "uint256",
          "name": "",
          "type": "uint256"
        }
      ],
      "name": "tierCost",
      "outputs": [
        {
          "internalType": "uint256",
          "name": "",
          "type": "uint256"
        }
      ],
      "stateMutability": "view",
      "type": "function"
    },
    {
      "inputs": [],
      "name": "unpause",
      "outputs": [],
      "stateMutability": "nonpayable",
      "type": "function"
    },
    {
      "inputs": [],
      "name": "verdict",
      "outputs": [
        {
          "internalType": "enum IFundABusiness.CampaignState",
          "name": "",
          "type": "uint8"
        }
      ],
      "stateMutability": "view",
      "type": "function"
    },
    {
      "inputs": [],
      "name": "withdrawFundRaised",
      "outputs": [],
      "stateMutability": "nonpayable",
      "type": "function"
    },
    {
      "stateMutability": "payable",
      "type": "receive"
    }
  ],
  "transactionHash": "0xc5d25547af42a9ac639990d4c547932e71eed8822096696b882637857e418650",
  "args": [
    "0x5FbDB2315678afecb367f032d93F642f64180aa3",
    "0x70997970C51812dc3A010C7d01b50e0d17dc79C8",
    "0x3C44CdDdB6a900fa2b585dd299e03d12FA4293BC",
    10000,
    [
      "1000000000000000000000",
      "10000000000000000000000"
    ],
    [
      1683477930,
      1718601630,
      79200
    ],
    [
      [
        1,
        "100000000000000000000"
      ],
      [
        2,
        "200000000000000000000"
      ],
      [
        3,
        "300000000000000000000"
      ]
    ],
    [
      [
        0,
        20000
      ],
      [
        1,
        30000
      ],
      [
        2,
        40000
      ],
      [
        3,
        10000
      ]
    ]
  ],
  "numDeployments": 1,
  "solcInputHash": "2248eccee073d8f2514f39c340b24217",
  "bytecode": "0x6080604052600f805461ffff191690553480156200001c57600080fd5b5060405162004386380380620043868339810160408190526200003f9162000a91565b600180556002805460ff191690558251600314620000705760405163516e361d60e11b815260040160405180910390fd5b8260008151811062000086576200008662000b8d565b602002602001015160058190555082600181518110620000aa57620000aa62000b8d565b60200260200101516006819055506200010c83600281518110620000d257620000d262000b8d565b602002602001015184600181518110620000f057620000f062000b8d565b6020026020010151620001cc60201b620020f41790919060201c565b6007556200011c600033620001e3565b620001376000805160206200436683398151915233620001e3565b620001637f65d7a28e3265b37a6474929f336521b332c1681b933f6cb9f3376673440d862a33620001e3565b6200016e8862000284565b6200017984620002f4565b6200018482620003a2565b6200018f866200045f565b6200019a87620004cd565b620001a58162000535565b620001b0856200060e565b5050601b805460ff191660021790555062000cf3945050505050565b6000620001da828462000bb9565b90505b92915050565b6000828152602081815260408083206001600160a01b038516845290915290205460ff1662000280576000828152602081815260408083206001600160a01b03851684529091529020805460ff191660011790556200023f3390565b6001600160a01b0316816001600160a01b0316837f2f8788117e7eff1d82e926ec794901d17c78024a50270940304540a733656f0d60405160405180910390a45b5050565b600080516020620043668339815191526200029f8162000678565b816001600160a01b038116620002c85760405163d92e233d60e01b815260040160405180910390fd5b5050600f80546001600160a01b03909216620100000262010000600160b01b0319909216919091179055565b600080516020620043668339815191526200030f8162000678565b600754421115620003335760405163488e80ff60e01b815260040160405180910390fd5b8151600214620003565760405163516e361d60e11b815260040160405180910390fd5b816000815181106200036c576200036c62000b8d565b60200260200101516008819055508160018151811062000390576200039062000b8d565b60200260200101516009819055505050565b60008051602062004366833981519152620003bd8162000678565b600554421115620003e15760405163488e80ff60e01b815260040160405180910390fd5b60005b82518110156200045a5782818151811062000403576200040362000b8d565b6020026020010151602001516011600085848151811062000428576200042862000b8d565b60200260200101516000015181526020019081526020016000208190555080620004529062000bcf565b9050620003e4565b505050565b600080516020620043668339815191526200047a8162000678565b816001600160a01b038116620004a35760405163d92e233d60e01b815260040160405180910390fd5b5050600280546001600160a01b0390921661010002610100600160a81b0319909216919091179055565b60008051602062004366833981519152620004e88162000678565b816001600160a01b038116620005115760405163d92e233d60e01b815260040160405180910390fd5b5050600380546001600160a01b0319166001600160a01b0392909216919091179055565b60008051602062004366833981519152620005508162000678565b60005b82518110156200045a57620186a083828151811062000576576200057662000b8d565b6020026020010151602001511115620005a2576040516336d85bb560e11b815260040160405180910390fd5b828181518110620005b757620005b762000b8d565b60200260200101516020015160156000858481518110620005dc57620005dc62000b8d565b60200260200101516000015181526020019081526020016000208190555080620006069062000bcf565b905062000553565b60008051602062004366833981519152620006298162000678565b620186a08211156200064e5760405163516e361d60e11b815260040160405180910390fd5b600554421115620006725760405163488e80ff60e01b815260040160405180910390fd5b50600c55565b62000684813362000687565b50565b6000828152602081815260408083206001600160a01b038516845290915290205460ff166200028057620006c6816200072060201b620021071760201c565b620006dc8360206200211962000733821b17811c565b604051602001620006ef92919062000c11565b60408051601f198184030181529082905262461bcd60e51b8252620007179160040162000c8a565b60405180910390fd5b6060620001dd6001600160a01b03831660145b606060006200074483600262000cbf565b6200075190600262000bb9565b6001600160401b038111156200076b576200076b62000909565b6040519080825280601f01601f19166020018201604052801562000796576020820181803683370190505b509050600360fc1b81600081518110620007b457620007b462000b8d565b60200101906001600160f81b031916908160001a905350600f60fb1b81600181518110620007e657620007e662000b8d565b60200101906001600160f81b031916908160001a90535060006200080c84600262000cbf565b6200081990600162000bb9565b90505b60018111156200089b576f181899199a1a9b1b9c1cb0b131b232b360811b85600f166010811062000851576200085162000b8d565b1a60f81b8282815181106200086a576200086a62000b8d565b60200101906001600160f81b031916908160001a90535060049490941c93620008938162000cd9565b90506200081c565b508315620001da5760405162461bcd60e51b815260206004820181905260248201527f537472696e67733a20686578206c656e67746820696e73756666696369656e74604482015260640162000717565b80516001600160a01b03811681146200090457600080fd5b919050565b634e487b7160e01b600052604160045260246000fd5b604051601f8201601f191681016001600160401b03811182821017156200094a576200094a62000909565b604052919050565b60006001600160401b038211156200096e576200096e62000909565b5060051b60200190565b600082601f8301126200098a57600080fd5b81516020620009a36200099d8362000952565b6200091f565b82815260059290921b84018101918181019086841115620009c357600080fd5b8286015b84811015620009e05780518352918301918301620009c7565b509695505050505050565b600082601f830112620009fd57600080fd5b8151602062000a106200099d8362000952565b82815260069290921b8401810191818101908684111562000a3057600080fd5b8286015b84811015620009e057604080828a03121562000a505760008081fd5b80518082016001600160401b038111828210171562000a735762000a7362000909565b90915281518152848201518582015283529183019160400162000a34565b600080600080600080600080610100898b03121562000aaf57600080fd5b62000aba89620008ec565b975062000aca60208a01620008ec565b965062000ada60408a01620008ec565b60608a015160808b015191975095506001600160401b038082111562000aff57600080fd5b62000b0d8c838d0162000978565b955060a08b015191508082111562000b2457600080fd5b62000b328c838d0162000978565b945060c08b015191508082111562000b4957600080fd5b62000b578c838d01620009eb565b935060e08b015191508082111562000b6e57600080fd5b5062000b7d8b828c01620009eb565b9150509295985092959890939650565b634e487b7160e01b600052603260045260246000fd5b634e487b7160e01b600052601160045260246000fd5b80820180821115620001dd57620001dd62000ba3565b60006001820162000be45762000be462000ba3565b5060010190565b60005b8381101562000c0857818101518382015260200162000bee565b50506000910152565b7f416363657373436f6e74726f6c3a206163636f756e742000000000000000000081526000835162000c4b81601785016020880162000beb565b7001034b99036b4b9b9b4b733903937b6329607d1b601791840191820152835162000c7e81602884016020880162000beb565b01602801949350505050565b602081526000825180602084015262000cab81604085016020870162000beb565b601f01601f19169190910160400192915050565b8082028115828204841417620001dd57620001dd62000ba3565b60008162000ceb5762000ceb62000ba3565b506000190190565b6136638062000d036000396000f3fe60806040526004361061037a5760003560e01c80636aba253c116101d1578063b0100cf711610102578063d3717a02116100a0578063ec87621c1161006f578063ec87621c14610aba578063f35f206c14610adc578063f5e3dbdb14610b12578063fd4234e814610b3257600080fd5b8063d3717a0214610a26578063d547741f14610a46578063d84ed96614610a66578063e63ab1e914610a8657600080fd5b8063b68490bc116100dc578063b68490bc146109a3578063bc015f47146109c3578063bf3ea472146109e3578063c71c0b4014610a1057600080fd5b8063b0100cf714610931578063b0786fad14610961578063b2ab56e11461098357600080fd5b80638c5909171161016f578063a217fddf11610149578063a217fddf1461089f578063a4334daa146108b4578063a95185f0146108d4578063a9a4cab11461090457600080fd5b80638c5909171461082557806391d1485414610845578063953b8fb81461088957600080fd5b80637dd4ad2f116101ab5780637dd4ad2f146107ad5780637e3e010a146107da57806380961ad3146107f05780638456cb591461081057600080fd5b80636aba253c14610750578063750d0b67146107775780637b8b29ac1461079757600080fd5b80632ec09d39116102ab5780634e43ccb4116102495780635c975abb116102235780635c975abb146106e35780636605bfda146106fb57806366d021cb1461071b578063685406ca1461073057600080fd5b80634e43ccb41461068d5780634eb49482146106a35780635b7baf64146106c357600080fd5b8063371edcb211610285578063371edcb2146106185780633f4ba83a1461063257806341e1c716146106475780634c3adbfd1461066d57600080fd5b80632ec09d39146105b85780632f2ff15d146105d857806336568abe146105f857600080fd5b806313e7b33e11610318578063248a9ca3116102f2578063248a9ca314610503578063252a8875146105335780632669e8e3146105535780632b32e9ca1461058057600080fd5b806313e7b33e1461049f5780631583deb2146104b55780631a99dbaa146104ed57600080fd5b8063038b68dd11610354578063038b68dd1461041b5780630f01ec651461043b57806312498a701461045b578063134f275c1461047f57600080fd5b806301ffc9a714610389578063026686ee146103be57806302866962146103f957600080fd5b3661038457600080fd5b600080fd5b34801561039557600080fd5b506103a96103a4366004612e9d565b610b48565b60405190151581526020015b60405180910390f35b3480156103ca57600080fd5b506103a96103d9366004612edc565b601360209081526000928352604080842090915290825290205460ff1681565b34801561040557600080fd5b50610419610414366004613016565b610bb1565b005b34801561042757600080fd5b50610419610436366004612edc565b610c97565b34801561044757600080fd5b506104196104563660046130c5565b610e98565b34801561046757600080fd5b5061047160065481565b6040519081526020016103b5565b34801561048b57600080fd5b5061041961049a3660046130c5565b610f3b565b3480156104ab57600080fd5b5061047160055481565b3480156104c157600080fd5b506003546104d5906001600160a01b031681565b6040516001600160a01b0390911681526020016103b5565b3480156104f957600080fd5b5061047160075481565b34801561050f57600080fd5b5061047161051e3660046130fa565b60009081526020819052604090206001015490565b34801561053f57600080fd5b5061047161054e3660046130fa565b6110a8565b34801561055f57600080fd5b5061047161056e3660046130fa565b60116020526000908152604090205481565b34801561058c57600080fd5b5061047161059b366004612edc565b601060209081526000928352604080842090915290825290205481565b3480156105c457600080fd5b506104196105d33660046130fa565b611102565b3480156105e457600080fd5b506104196105f3366004613113565b61113c565b34801561060457600080fd5b50610419610613366004613113565b611161565b34801561062457600080fd5b50600f546103a99060ff1681565b34801561063e57600080fd5b506104196111ee565b34801561065357600080fd5b50600f546104d5906201000090046001600160a01b031681565b34801561067957600080fd5b50610419610688366004612edc565b611223565b34801561069957600080fd5b50610471600b5481565b3480156106af57600080fd5b506104196106be366004613143565b61136a565b3480156106cf57600080fd5b506104196106de3660046130fa565b611459565b3480156106ef57600080fd5b5060025460ff166103a9565b34801561070757600080fd5b50610419610716366004613178565b611493565b34801561072757600080fd5b50610419611514565b34801561073c57600080fd5b5061041961074b366004613016565b6116ab565b34801561075c57600080fd5b50601b5461076a9060ff1681565b6040516103b591906131ab565b34801561078357600080fd5b506104196107923660046131d3565b611755565b3480156107a357600080fd5b50610471600e5481565b3480156107b957600080fd5b506104716107c83660046130fa565b60156020526000908152604090205481565b3480156107e657600080fd5b5061047160085481565b3480156107fc57600080fd5b5061047161080b3660046130fa565b61189f565b34801561081c57600080fd5b506104196118cd565b34801561083157600080fd5b506104196108403660046131f4565b6118ff565b34801561085157600080fd5b506103a9610860366004613113565b6000918252602082815260408084206001600160a01b0393909316845291905290205460ff1690565b34801561089557600080fd5b5061047160095481565b3480156108ab57600080fd5b50610471600081565b3480156108c057600080fd5b506104196108cf3660046130fa565b61190a565b3480156108e057600080fd5b506103a96108ef3660046130fa565b60166020526000908152604090205460ff1681565b34801561091057600080fd5b506003546001600160a01b0316600090815260176020526040902054610471565b34801561093d57600080fd5b506103a961094c366004613178565b60146020526000908152604090205460ff1681565b34801561096d57600080fd5b50610976611a35565b6040516103b59190613216565b34801561098f57600080fd5b5061041961099e366004613263565b611ab4565b3480156109af57600080fd5b506104196109be366004613178565b611bbd565b3480156109cf57600080fd5b506104196109de3660046130fa565b611c3f565b3480156109ef57600080fd5b506104716109fe366004613178565b60176020526000908152604090205481565b348015610a1c57600080fd5b50610471600a5481565b348015610a3257600080fd5b50610419610a41366004613178565b611ca4565b348015610a5257600080fd5b50610419610a61366004613113565b611d15565b348015610a7257600080fd5b50610419610a81366004613318565b611d3a565b348015610a9257600080fd5b506104717f65d7a28e3265b37a6474929f336521b332c1681b933f6cb9f3376673440d862a81565b348015610ac657600080fd5b5061047160008051602061360e83398151915281565b348015610ae857600080fd5b506104d5610af73660046130fa565b6012602052600090815260409020546001600160a01b031681565b348015610b1e57600080fd5b50610419610b2d3660046131f4565b611fce565b348015610b3e57600080fd5b50610471600c5481565b60006001600160e01b031982167f7965db0b000000000000000000000000000000000000000000000000000000001480610bab57507f01ffc9a7000000000000000000000000000000000000000000000000000000006001600160e01b03198316145b92915050565b60008051602061360e833981519152610bc9816122fa565b60005b8251811015610c9257620186a0838281518110610beb57610beb613406565b6020026020010151602001511115610c2f576040517f6db0b76a00000000000000000000000000000000000000000000000000000000815260040160405180910390fd5b828181518110610c4157610c41613406565b60200260200101516020015160156000858481518110610c6357610c63613406565b60200260200101516000015181526020019081526020016000208190555080610c8b90613432565b9050610bcc565b505050565b600f5460ff16610cd3576040517f85cd26fd00000000000000000000000000000000000000000000000000000000815260040160405180910390fd5b610cdb612304565b610ce361235d565b610ceb6123b0565b601b805460ff19166001836002811115610d0757610d07613195565b02179055506000601b5460ff166002811115610d2557610d25613195565b14610d4357604051638d05f51560e01b815260040160405180910390fd5b6001600160a01b038216600090815260136020908152604080832084845290915290205460ff1615610da1576040517f708d73f200000000000000000000000000000000000000000000000000000000815260040160405180910390fd5b6001600160a01b03821660008181526010602090815260408083208584528083528184208054958552601384528285208786528452918420805460ff191660011790559091528190555b81811015610e8957600083815260126020526040908190205490517fe9c2e14b0000000000000000000000000000000000000000000000000000000081526001600160a01b0386811660048301529091169063e9c2e14b90602401600060405180830381600087803b158015610e6057600080fd5b505af1158015610e74573d6000803e3d6000fd5b5050505080610e8290613432565b9050610deb565b5050610e9460018055565b5050565b60008051602061360e833981519152610eb0816122fa565b600754421115610ed35760405163488e80ff60e01b815260040160405180910390fd5b8151600214610ef55760405163516e361d60e11b815260040160405180910390fd5b81600081518110610f0857610f08613406565b602002602001015160088190555081600181518110610f2957610f29613406565b60200260200101516009819055505050565b60008051602061360e833981519152610f53816122fa565b8151600314610f755760405163516e361d60e11b815260040160405180910390fd5b60055442101561100f5781600081518110610f9257610f92613406565b602002602001015160058190555081600181518110610fb357610fb3613406565b602002602001015160068190555061100882600281518110610fd757610fd7613406565b602002602001015183600181518110610ff257610ff2613406565b60200260200101516120f490919063ffffffff16565b6007555050565b61101761247c565b1561102f5781600181518110610fb357610fb3613406565b6006544210158015611042575060075442105b15611076576110088260028151811061105d5761105d613406565b60200260200101516006546120f490919063ffffffff16565b6040517f553ae05400000000000000000000000000000000000000000000000000000000815260040160405180910390fd5b60008181526011602052604081205481036110ef576040517fe142361700000000000000000000000000000000000000000000000000000000815260040160405180910390fd5b5060009081526011602052604090205490565b3360008181526014602052604090205460ff166111325760405163e02a527360e01b815260040160405180910390fd5b610e943383610c97565b600082815260208190526040902060010154611157816122fa565b610c9283836124e7565b6001600160a01b03811633146111e45760405162461bcd60e51b815260206004820152602f60248201527f416363657373436f6e74726f6c3a2063616e206f6e6c792072656e6f756e636560448201527f20726f6c657320666f722073656c66000000000000000000000000000000000060648201526084015b60405180910390fd5b610e948282612585565b7f65d7a28e3265b37a6474929f336521b332c1681b933f6cb9f3376673440d862a611218816122fa565b611220612604565b50565b61122b612304565b61123361235d565b61123b6123b0565b601b805460ff1916600183600281111561125757611257613195565b02179055506000601b5460ff16600281111561127557611275613195565b036112935760405163c6dfc20160e01b815260040160405180910390fd5b6001600160a01b038216600090815260106020908152604080832084845282528083205460119092528220549091906112cc9083612657565b9050600081116112ef5760405163c6dfc20160e01b815260040160405180910390fd5b6001600160a01b038416600090815260106020908152604080832086845290915281205561131d8482612663565b604080516001600160a01b0386168152602081018590527f2ef47cadc7e07ee6cea296446c8ca85ff6955693411d8868f7a04b6850034f08910160405180910390a15050610e9460018055565b611372612304565b61137a61235d565b826001600160a01b0381166113a25760405163d92e233d60e01b815260040160405180910390fd5b6113aa61247c565b15156001146113e5576040517fdf2d6b2800000000000000000000000000000000000000000000000000000000815260040160405180910390fd5b6000838152601160205260408120546113fe9084612657565b9050600081116114215760405163029819b760e01b815260040160405180910390fd5b61142b3382612682565b80600a600082825461143d919061344b565b9091555061144e905085858561276b565b5050610c9260018055565b3360008181526014602052604090205460ff166114895760405163e02a527360e01b815260040160405180910390fd5b610e943383611223565b60008051602061360e8339815191526114ab816122fa565b816001600160a01b0381166114d35760405163d92e233d60e01b815260040160405180910390fd5b5050600280546001600160a01b03909216610100027fffffffffffffffffffffff0000000000000000000000000000000000000000ff909216919091179055565b61151c612304565b61152461235d565b6003546001600160a01b03163314611568576040517f36b6b89500000000000000000000000000000000000000000000000000000000815260040160405180910390fd5b6115706123b0565b601b805460ff1916600183600281111561158c5761158c613195565b0217905550600754421180156115b957506000601b5460ff1660028111156115b6576115b6613195565b14155b156115d757604051638d05f51560e01b815260040160405180910390fd5b6003546001600160a01b031660009081526017602052604090205480611629576040517f569323d200000000000000000000000000000000000000000000000000000000815260040160405180910390fd5b600380546001600160a01b039081166000908152601760205260408120559054611654911682612663565b600354604080516001600160a01b039092168252602082018390524282820152517f3df25ea0269b814fac9e2b26b3cc6971a48c7bdd35be407f416e44a16466325b9181900360600190a1506116a960018055565b565b60008051602061360e8339815191526116c3816122fa565b6005544211156116e65760405163488e80ff60e01b815260040160405180910390fd5b60005b8251811015610c925782818151811061170457611704613406565b6020026020010151602001516011600085848151811061172657611726613406565b6020026020010151600001518152602001908152602001600020819055508061174e90613432565b90506116e9565b60008051602061360e83398151915261176d816122fa565b6117756123b0565b601b805460ff1916600183600281111561179157611791613195565b0217905550600754421180156117be57506002601b5460ff1660028111156117bb576117bb613195565b14155b156117f5576040517f61a7916f00000000000000000000000000000000000000000000000000000000815260040160405180910390fd5b426006819055600755600082600181111561181257611812613195565b0361182957601b805460ff19169055610e9461289e565b600182600181111561183d5761183d613195565b0361188657601b805460ff191660011790556040514281527f7b1418b19a03b176f641639ee79855da661fa88a08377ecd32ad6d38152b95369060200160405180910390a15050565b60405163516e361d60e11b815260040160405180910390fd5b600060008051602061360e8339815191526118b9816122fa565b505060009081526018602052604090205490565b7f65d7a28e3265b37a6474929f336521b332c1681b933f6cb9f3376673440d862a6118f7816122fa565b611220612949565b610e9433838361136a565b60008051602061360e833981519152611922816122fa565b61192a61235d565b6119326123b0565b601b805460ff1916600183600281111561194e5761194e613195565b021790555060075442101561198f576040517fc8dcac8200000000000000000000000000000000000000000000000000000000815260040160405180910390fd5b6000601b5460ff1660028111156119a8576119a8613195565b146119c657604051638d05f51560e01b815260040160405180910390fd5b60008281526016602052604090205460ff161515600103611a13576040517f101f817a00000000000000000000000000000000000000000000000000000000815260040160405180910390fd5b6000828152601660205260409020805460ff19166001179055610e9482612986565b606060008051602061360e833981519152611a4f816122fa565b60006004805480602002602001604051908101604052809291908181526020018280548015611aa757602002820191906000526020600020905b81546001600160a01b03168152600190910190602001808311611a89575b5093965050505050505090565b60008051602061360e833981519152611acc816122fa565b60005b8251811015611bab5760006001600160a01b0316838281518110611af557611af5613406565b6020026020010151602001516001600160a01b031603611b285760405163d92e233d60e01b815260040160405180910390fd5b828181518110611b3a57611b3a613406565b60200260200101516020015160126000858481518110611b5c57611b5c613406565b602002602001015160000151815260200190815260200160002060006101000a8154816001600160a01b0302191690836001600160a01b0316021790555080611ba490613432565b9050611acf565b5050600f805460ff1916600117905550565b60008051602061360e833981519152611bd5816122fa565b816001600160a01b038116611bfd5760405163d92e233d60e01b815260040160405180910390fd5b5050600f80546001600160a01b0390921662010000027fffffffffffffffffffff0000000000000000000000000000000000000000ffff909216919091179055565b60008051602061360e833981519152611c57816122fa565b620186a0821115611c7b5760405163516e361d60e11b815260040160405180910390fd5b600554421115611c9e5760405163488e80ff60e01b815260040160405180910390fd5b50600c55565b60008051602061360e833981519152611cbc816122fa565b816001600160a01b038116611ce45760405163d92e233d60e01b815260040160405180910390fd5b50506003805473ffffffffffffffffffffffffffffffffffffffff19166001600160a01b0392909216919091179055565b600082815260208190526040902060010154611d30816122fa565b610c928383612585565b60008051602061360e833981519152611d52816122fa565b611d5a612304565b611d6261235d565b611d6a6123b0565b601b805460ff19166001836002811115611d8657611d86613195565b0217905550600554421080611d9c575060075442115b80611dbe57506002601b5460ff166002811115611dbb57611dbb613195565b14155b15611df5576040517f6c9007f600000000000000000000000000000000000000000000000000000000815260040160405180910390fd5b83518551141580611e0857508251855114155b15611e265760405163516e361d60e11b815260040160405180910390fd5b611e303383612682565b81600a6000828254611e42919061344b565b90915550600090505b8551811015611f845760006001600160a01b0316868281518110611e7157611e71613406565b60200260200101516001600160a01b031603611ea05760405163d92e233d60e01b815260040160405180910390fd5b6000611efa858381518110611eb757611eb7613406565b602002602001015160116000898681518110611ed557611ed5613406565b602002602001015181526020019081526020016000205461265790919063ffffffff16565b905060008111611f1d5760405163029819b760e01b815260040160405180910390fd5b611f73878381518110611f3257611f32613406565b6020026020010151878481518110611f4c57611f4c613406565b6020026020010151878581518110611f6657611f66613406565b602002602001015161276b565b50611f7d81613432565b9050611e4b565b5060408051338152602081018490527fe239e1105983e10084987392ebe93c0f25988539d0d3af5edef1734822bb4054910160405180910390a1611fc760018055565b5050505050565b6000828152601260205260408082205490517f6352211e000000000000000000000000000000000000000000000000000000008152600481018490526001600160a01b0390911690636352211e90602401602060405180830381865afa15801561203c573d6000803e3d6000fd5b505050506040513d601f19601f82011682018060405250810190612060919061345e565b90506001600160a01b03811633036120bc5760408051848152602081018490526001600160a01b038316917fedd4554240dd1a638b09c980f40dc703eb268830b6c510fe08bb85ad718a49a491015b60405180910390a2505050565b604080518481526020810184905233917fc47708ace68bd929f19b2bd1463a10f326d7cedb49787e9cab6539032e5d518691016120af565b6000612100828461344b565b9392505050565b6060610bab6001600160a01b03831660145b6060600061212883600261347b565b61213390600261344b565b67ffffffffffffffff81111561214b5761214b612f08565b6040519080825280601f01601f191660200182016040528015612175576020820181803683370190505b5090507f3000000000000000000000000000000000000000000000000000000000000000816000815181106121ac576121ac613406565b60200101906001600160f81b031916908160001a9053507f7800000000000000000000000000000000000000000000000000000000000000816001815181106121f7576121f7613406565b60200101906001600160f81b031916908160001a905350600061221b84600261347b565b61222690600161344b565b90505b60018111156122ab577f303132333435363738396162636465660000000000000000000000000000000085600f166010811061226757612267613406565b1a60f81b82828151811061227d5761227d613406565b60200101906001600160f81b031916908160001a90535060049490941c936122a481613492565b9050612229565b5083156121005760405162461bcd60e51b815260206004820181905260248201527f537472696e67733a20686578206c656e67746820696e73756666696369656e7460448201526064016111db565b6112208133612a4c565b6002600154036123565760405162461bcd60e51b815260206004820152601f60248201527f5265656e7472616e637947756172643a207265656e7472616e742063616c6c0060448201526064016111db565b6002600155565b60025460ff16156116a95760405162461bcd60e51b815260206004820152601060248201527f5061757361626c653a207061757365640000000000000000000000000000000060448201526064016111db565b6000600754421180156123c75750600854600a5410155b80156123ea57506001601b5460ff1660028111156123e7576123e7613195565b14155b156123fd576123f761289e565b50600090565b600754421180156124115750600854600a54105b801561243457506000601b5460ff16600281111561243157612431613195565b14155b15612472576040514281527f7b1418b19a03b176f641639ee79855da661fa88a08377ecd32ad6d38152b95369060200160405180910390a150600190565b50601b5460ff1690565b60006124866123b0565b601b805460ff191660018360028111156124a2576124a2613195565b0217905550600554421180156124ba57506006544211155b80156124dc57506002601b5460ff1660028111156124da576124da613195565b145b156123f75750600190565b6000828152602081815260408083206001600160a01b038516845290915290205460ff16610e94576000828152602081815260408083206001600160a01b03851684529091529020805460ff191660011790556125413390565b6001600160a01b0316816001600160a01b0316837f2f8788117e7eff1d82e926ec794901d17c78024a50270940304540a733656f0d60405160405180910390a45050565b6000828152602081815260408083206001600160a01b038516845290915290205460ff1615610e94576000828152602081815260408083206001600160a01b0385168085529252808320805460ff1916905551339285917ff6391f5c32d9c69d2a47ea670b442974b53935d1edc7fd64eb21e047a839171b9190a45050565b61260c612abf565b6002805460ff191690557f5db9ee0a495bf2e6ff9c91a7834c1ba4fdd244a5e8aa4e537bd38aeae4b073aa335b6040516001600160a01b0390911681526020015b60405180910390a1565b6000612100828461347b565b600f548290610c92906201000090046001600160a01b03168284612b11565b600f546040517fdd62ed3e0000000000000000000000000000000000000000000000000000000081526001600160a01b0384811660048301523060248301528392620100009004169063dd62ed3e90604401602060405180830381865afa1580156126f1573d6000803e3d6000fd5b505050506040513d601f19601f8201168201806040525081019061271591906134a9565b101561274d576040517ffc8bf36c00000000000000000000000000000000000000000000000000000000815260040160405180910390fd5b600f54610e94906201000090046001600160a01b0316833084612ba2565b6001600160a01b03831660009081526010602090815260408083208584529091528120805483929061279e90849061344b565b9091555050600082815260186020526040812080548392906127c190849061344b565b9091555050604080516001600160a01b0385168152602081018490527f1bb460ccaaf70fbacfec17a376f8acbd278c1405590ffcc8ebe4b88daf4f64ad910160405180910390a16001600160a01b03831660009081526014602052604090205460ff16610c92576004805460018181019092557f8a35acfbc15ff81a39ae7d344fd709f28e8600b4aa8c65c6b64bfe7fe36bd19b0180546001600160a01b03861673ffffffffffffffffffffffffffffffffffffffff1990911681179091556000908152601460205260409020805460ff19169091179055505050565b600f54610100900460ff1615156000036116a9576128d6620186a06128d0600c54600a5461265790919063ffffffff16565b90612bf9565b600d819055600a546128e791612c05565b600b55600f805461010061ff00199091168117909155600254600d54612919929091046001600160a01b031690612663565b6040514281527ff2460a88147f5180b9df3609a3c66dda39614029da9fdf0b90564b7154374d2f9060200161264d565b61295161235d565b6002805460ff191660011790557f62e78cea01bee320cd4e420270b5ea74000d11b0c9f74754ebdbfc544b05a2586126393390565b600081815260156020526040812054600b549091906129af90620186a0906128d0908590612657565b9050600b546129c982600e546120f490919063ffffffff16565b1115612a01576040517fb24d2a1c00000000000000000000000000000000000000000000000000000000815260040160405180910390fd5b80600e6000828254612a13919061344b565b90915550506003546001600160a01b031660009081526017602052604081208054839290612a4290849061344b565b9091555050505050565b6000828152602081815260408083206001600160a01b038516845290915290205460ff16610e9457612a7d81612107565b612a88836020612119565b604051602001612a999291906134e6565b60408051601f198184030181529082905262461bcd60e51b82526111db91600401613567565b60025460ff166116a95760405162461bcd60e51b815260206004820152601460248201527f5061757361626c653a206e6f742070617573656400000000000000000000000060448201526064016111db565b6040516001600160a01b038316602482015260448101829052610c929084907fa9059cbb00000000000000000000000000000000000000000000000000000000906064015b60408051601f198184030181529190526020810180517bffffffffffffffffffffffffffffffffffffffffffffffffffffffff166001600160e01b031990931692909217909152612c11565b6040516001600160a01b0380851660248301528316604482015260648101829052612bf39085907f23b872dd0000000000000000000000000000000000000000000000000000000090608401612b56565b50505050565b6000612100828461359a565b600061210082846135bc565b6000612c66826040518060400160405280602081526020017f5361666545524332303a206c6f772d6c6576656c2063616c6c206661696c6564815250856001600160a01b0316612cf69092919063ffffffff16565b805190915015610c925780806020019051810190612c8491906135cf565b610c925760405162461bcd60e51b815260206004820152602a60248201527f5361666545524332303a204552433230206f7065726174696f6e20646964206e60448201527f6f7420737563636565640000000000000000000000000000000000000000000060648201526084016111db565b6060612d058484600085612d0d565b949350505050565b606082471015612d855760405162461bcd60e51b815260206004820152602660248201527f416464726573733a20696e73756666696369656e742062616c616e636520666f60448201527f722063616c6c000000000000000000000000000000000000000000000000000060648201526084016111db565b600080866001600160a01b03168587604051612da191906135f1565b60006040518083038185875af1925050503d8060008114612dde576040519150601f19603f3d011682016040523d82523d6000602084013e612de3565b606091505b5091509150612df487838387612dff565b979650505050505050565b60608315612e6e578251600003612e67576001600160a01b0385163b612e675760405162461bcd60e51b815260206004820152601d60248201527f416464726573733a2063616c6c20746f206e6f6e2d636f6e747261637400000060448201526064016111db565b5081612d05565b612d058383815115612e835781518083602001fd5b8060405162461bcd60e51b81526004016111db9190613567565b600060208284031215612eaf57600080fd5b81356001600160e01b03198116811461210057600080fd5b6001600160a01b038116811461122057600080fd5b60008060408385031215612eef57600080fd5b8235612efa81612ec7565b946020939093013593505050565b634e487b7160e01b600052604160045260246000fd5b6040805190810167ffffffffffffffff81118282101715612f4157612f41612f08565b60405290565b604051601f8201601f1916810167ffffffffffffffff81118282101715612f7057612f70612f08565b604052919050565b600067ffffffffffffffff821115612f9257612f92612f08565b5060051b60200190565b6000612faf612faa84612f78565b612f47565b8381529050602080820190600685901b840186811115612fce57600080fd5b845b8181101561300b5760408189031215612fe95760008081fd5b612ff1612f1e565b813581528382013584820152845292820192604001612fd0565b505050509392505050565b60006020828403121561302857600080fd5b813567ffffffffffffffff81111561303f57600080fd5b8201601f8101841361305057600080fd5b612d0584823560208401612f9c565b600082601f83011261307057600080fd5b81356020613080612faa83612f78565b82815260059290921b8401810191818101908684111561309f57600080fd5b8286015b848110156130ba57803583529183019183016130a3565b509695505050505050565b6000602082840312156130d757600080fd5b813567ffffffffffffffff8111156130ee57600080fd5b612d058482850161305f565b60006020828403121561310c57600080fd5b5035919050565b6000806040838503121561312657600080fd5b82359150602083013561313881612ec7565b809150509250929050565b60008060006060848603121561315857600080fd5b833561316381612ec7565b95602085013595506040909401359392505050565b60006020828403121561318a57600080fd5b813561210081612ec7565b634e487b7160e01b600052602160045260246000fd5b60208101600383106131cd57634e487b7160e01b600052602160045260246000fd5b91905290565b6000602082840312156131e557600080fd5b81356002811061210057600080fd5b6000806040838503121561320757600080fd5b50508035926020909101359150565b6020808252825182820181905260009190848201906040850190845b818110156132575783516001600160a01b031683529284019291840191600101613232565b50909695505050505050565b6000602080838503121561327657600080fd5b823567ffffffffffffffff81111561328d57600080fd5b8301601f8101851361329e57600080fd5b80356132ac612faa82612f78565b81815260069190911b820183019083810190878311156132cb57600080fd5b928401925b82841015612df457604084890312156132e95760008081fd5b6132f1612f1e565b843581528585013561330281612ec7565b81870152825260409390930192908401906132d0565b6000806000806080858703121561332e57600080fd5b843567ffffffffffffffff8082111561334657600080fd5b818701915087601f83011261335a57600080fd5b8135602061336a612faa83612f78565b82815260059290921b8401810191818101908b84111561338957600080fd5b948201945b838610156133b05785356133a181612ec7565b8252948201949082019061338e565b985050880135925050808211156133c657600080fd5b6133d28883890161305f565b945060408701359150808211156133e857600080fd5b506133f58782880161305f565b949793965093946060013593505050565b634e487b7160e01b600052603260045260246000fd5b634e487b7160e01b600052601160045260246000fd5b6000600182016134445761344461341c565b5060010190565b80820180821115610bab57610bab61341c565b60006020828403121561347057600080fd5b815161210081612ec7565b8082028115828204841417610bab57610bab61341c565b6000816134a1576134a161341c565b506000190190565b6000602082840312156134bb57600080fd5b5051919050565b60005b838110156134dd5781810151838201526020016134c5565b50506000910152565b7f416363657373436f6e74726f6c3a206163636f756e742000000000000000000081526000835161351e8160178501602088016134c2565b7f206973206d697373696e6720726f6c6520000000000000000000000000000000601791840191820152835161355b8160288401602088016134c2565b01602801949350505050565b60208152600082518060208401526135868160408501602087016134c2565b601f01601f19169190910160400192915050565b6000826135b757634e487b7160e01b600052601260045260246000fd5b500490565b81810381811115610bab57610bab61341c565b6000602082840312156135e157600080fd5b8151801515811461210057600080fd5b600082516136038184602087016134c2565b919091019291505056fe241ecf16d79d0f8dbfb92cbc07fe17840425976cf0667f022fe9877caa831b08a2646970667358221220db9318572f9b1f522a4a00d7a49f276316879a537d59385098c5be0ea99b7c7564736f6c63430008110033241ecf16d79d0f8dbfb92cbc07fe17840425976cf0667f022fe9877caa831b08",
  "devdoc": {
    "custom:security-contact": "hello@moat.com",
    "details": "This implements ERC-721 NFT as the rewards (NFT perks) to be minted to the funders.",
    "kind": "dev",
    "methods": {
      "approveMilestoneAndReleaseFund(uint256)": {
        "details": "milestone can be approved in any order",
        "params": {
          "_milestoneNumber": "the milestone to be approved"
        }
      },
      "claimNft(uint256)": {
        "details": "NFT with tokenId = _tier is transfer to the connected wallet",
        "params": {
          "_tier": "funding category"
        }
      },
      "claimNftFor(address,uint256)": {
        "details": "Claim NFT for another _funder. NFT with tokenId = _tier is transfer to the _funder",
        "params": {
          "_funder": "the funder address",
          "_tier": "funding category"
        }
      },
      "claimRefund(uint256)": {
        "details": "Claim a refund for the connected wallet",
        "params": {
          "_tier": "funding category"
        }
      },
      "claimRefundFor(address,uint256)": {
        "details": "Claim a refund on behalf of a funder",
        "params": {
          "_funder": "the funder address",
          "_tier": "funding category"
        }
      },
      "closeFundingRound(uint8)": {
        "details": "reason for closing the campaign is required",
        "params": {
          "_reasonForEnding": "enum only accepts TARGETMET or FAILURE"
        }
      },
      "contribute(uint256,uint256)": {
        "details": "only accepts ERC-20 deposit when campaign is open",
        "params": {
          "_quantity": "number of tiers",
          "_tier": "funding category"
        }
      },
      "contributeOnBehalfOf(address,uint256,uint256)": {
        "details": "only accepts ERC-20 deposit when campaign is open",
        "params": {
          "_funder": "the contributor address",
          "_quantity": "number of tiers",
          "_tier": "funding category"
        }
      },
      "fiatContributeOnBehalfOf(address[],uint256[],uint256[],uint256)": {
        "details": "only accepts ERC-20 deposit before campaign decision time passed",
        "params": {
          "_funders": "array of funder addresses",
          "_quantities": "array of number of tiers purchased by each funder All the arrays must be the same length",
          "_tiers": "array of funding category"
        }
      },
      "getBusinessBalance()": {
        "details": "returns the balance of the business address"
      },
      "getFundersAddresses()": {
        "details": "returns the array of all funder addresses"
      },
      "getQuantityOfTierBought(uint256)": {
        "details": "returns the quantities of tier perks bought so far",
        "params": {
          "_tier": "funding or perks category"
        }
      },
      "getRoleAdmin(bytes32)": {
        "details": "Returns the admin role that controls `role`. See {grantRole} and {revokeRole}. To change a role's admin, use {_setRoleAdmin}."
      },
      "getTierPrice(uint256)": {
        "details": "returns the price of a given tier",
        "params": {
          "_tier": "funding or perks category"
        }
      },
      "grantRole(bytes32,address)": {
        "details": "Grants `role` to `account`. If `account` had not been already granted `role`, emits a {RoleGranted} event. Requirements: - the caller must have ``role``'s admin role. May emit a {RoleGranted} event."
      },
      "hasRole(bytes32,address)": {
        "details": "Returns `true` if `account` has been granted `role`."
      },
      "isOwnerOf(uint256,uint256)": {
        "details": "Proves that a caller owns a particular NFT token by emitting IsTheTrueOwner event It emits NotTheTrueOwner event if the caller is not the owner",
        "params": {
          "_tier": "funding or perks category",
          "_tokenId": "id of the nft token"
        }
      },
      "pause()": {
        "details": "Pauses the contract"
      },
      "paused()": {
        "details": "Returns true if the contract is paused, and false otherwise."
      },
      "renounceRole(bytes32,address)": {
        "details": "Revokes `role` from the calling account. Roles are often managed via {grantRole} and {revokeRole}: this function's purpose is to provide a mechanism for accounts to lose their privileges if they are compromised (such as when a trusted device is misplaced). If the calling account had been revoked `role`, emits a {RoleRevoked} event. Requirements: - the caller must be `account`. May emit a {RoleRevoked} event."
      },
      "revokeRole(bytes32,address)": {
        "details": "Revokes `role` from `account`. If `account` had been granted `role`, emits a {RoleRevoked} event. Requirements: - the caller must have ``role``'s admin role. May emit a {RoleRevoked} event."
      },
      "setAllowedToken(address)": {
        "details": "sets the allowed ERC20 tokens for the campaign"
      },
      "setBusinessAddress(address)": {
        "details": "Set the wallet address of the business raising fund through this contract"
      },
      "setCampaignAndDecisionPeriod(uint256[])": {
        "params": {
          "_campaignTimesAndDecision": "array of length 3."
        }
      },
      "setFundingTiersAndCosts((uint256,uint256)[])": {
        "details": "sets the available tiers and their corresponding prices"
      },
      "setMOATFee(uint256)": {
        "params": {
          "_feeFraction": "e.g 5% => 5 * (10**5) / 100 = 5000"
        }
      },
      "setMilestones((uint256,uint256)[])": {
        "details": "sets the milestones"
      },
      "setNftPerkContracts((uint256,address)[])": {
        "details": "sets the NFT perks contracts"
      },
      "setTargetAmounts(uint256[])": {
        "params": {
          "_amountsToBeRaised": "array of length 2."
        }
      },
      "setTreasuryAddress(address)": {
        "details": "sets the MOAT treasury address"
      },
      "supportsInterface(bytes4)": {
        "details": "See {IERC165-supportsInterface}."
      },
      "unpause()": {
        "details": "Unpauses the contract"
      },
      "withdrawFundRaised()": {
        "details": "Only the authorised business wallet can withdraw"
      }
    },
    "title": "MOAT Crowd-funding Contract",
    "version": 1
  },
  "userdoc": {
    "kind": "user",
    "methods": {
      "approveMilestoneAndReleaseFund(uint256)": {
        "notice": "Manager role can approve the milestones at any time"
      },
      "claimNft(uint256)": {
        "notice": "The funders can claim NFT perks when the campaign is successful"
      },
      "claimNftFor(address,uint256)": {
        "notice": "The funders can claim NFT perks when the campaign is successful"
      },
      "claimRefund(uint256)": {
        "notice": "The funders can claim refund only when the campaign failed"
      },
      "claimRefundFor(address,uint256)": {
        "notice": "The funders can claim refund only when the campaign failed"
      },
      "closeFundingRound(uint8)": {
        "notice": "Manager role can close the funding round before the decision time passed"
      },
      "contribute(uint256,uint256)": {
        "notice": "Contribute fund from the connected wallet for the open campaign"
      },
      "contributeOnBehalfOf(address,uint256,uint256)": {
        "notice": "Contribute fund on behalf of another address for the open campaign."
      },
      "fiatContributeOnBehalfOf(address[],uint256[],uint256[],uint256)": {
        "notice": "Manager role can contribute fund on behalf of other addresses before decision time passed."
      },
      "withdrawFundRaised()": {
        "notice": "Funds are released to the authorised business wallet based on the milestone schedule."
      }
    },
    "notice": "This contract is for crowd-funding a business by interested parties and to release funds to the business in a transparent but monitored way. Rewards, in form of NFTs are distributed to funders after the funding round has been declared successful.",
    "version": 1
  },
  "storageLayout": {
    "storage": [
      {
        "astId": 24,
        "contract": "contracts/FundABusiness.sol:FundABusiness",
        "label": "_roles",
        "offset": 0,
        "slot": "0",
        "type": "t_mapping(t_bytes32,t_struct(RoleData)19_storage)"
      },
      {
        "astId": 507,
        "contract": "contracts/FundABusiness.sol:FundABusiness",
        "label": "_status",
        "offset": 0,
        "slot": "1",
        "type": "t_uint256"
      },
      {
        "astId": 406,
        "contract": "contracts/FundABusiness.sol:FundABusiness",
        "label": "_paused",
        "offset": 0,
        "slot": "2",
        "type": "t_bool"
      },
      {
        "astId": 3028,
        "contract": "contracts/FundABusiness.sol:FundABusiness",
        "label": "treasuryAddress",
        "offset": 1,
        "slot": "2",
        "type": "t_address"
      },
      {
        "astId": 3030,
        "contract": "contracts/FundABusiness.sol:FundABusiness",
        "label": "businessAddress",
        "offset": 0,
        "slot": "3",
        "type": "t_address"
      },
      {
        "astId": 3033,
        "contract": "contracts/FundABusiness.sol:FundABusiness",
        "label": "fundersAddresses",
        "offset": 0,
        "slot": "4",
        "type": "t_array(t_address)dyn_storage"
      },
      {
        "astId": 3035,
        "contract": "contracts/FundABusiness.sol:FundABusiness",
        "label": "campaignStartTime",
        "offset": 0,
        "slot": "5",
        "type": "t_uint256"
      },
      {
        "astId": 3037,
        "contract": "contracts/FundABusiness.sol:FundABusiness",
        "label": "campaignEndTime",
        "offset": 0,
        "slot": "6",
        "type": "t_uint256"
      },
      {
        "astId": 3039,
        "contract": "contracts/FundABusiness.sol:FundABusiness",
        "label": "campaignDecisionTime",
        "offset": 0,
        "slot": "7",
        "type": "t_uint256"
      },
      {
        "astId": 3041,
        "contract": "contracts/FundABusiness.sol:FundABusiness",
        "label": "minTargetAmount",
        "offset": 0,
        "slot": "8",
        "type": "t_uint256"
      },
      {
        "astId": 3043,
        "contract": "contracts/FundABusiness.sol:FundABusiness",
        "label": "targetAmount",
        "offset": 0,
        "slot": "9",
        "type": "t_uint256"
      },
      {
        "astId": 3045,
        "contract": "contracts/FundABusiness.sol:FundABusiness",
        "label": "fundRaised",
        "offset": 0,
        "slot": "10",
        "type": "t_uint256"
      },
      {
        "astId": 3047,
        "contract": "contracts/FundABusiness.sol:FundABusiness",
        "label": "fundRaisedMinusFee",
        "offset": 0,
        "slot": "11",
        "type": "t_uint256"
      },
      {
        "astId": 3049,
        "contract": "contracts/FundABusiness.sol:FundABusiness",
        "label": "moatFeeNumerator",
        "offset": 0,
        "slot": "12",
        "type": "t_uint256"
      },
      {
        "astId": 3051,
        "contract": "contracts/FundABusiness.sol:FundABusiness",
        "label": "moatFee",
        "offset": 0,
        "slot": "13",
        "type": "t_uint256"
      },
      {
        "astId": 3053,
        "contract": "contracts/FundABusiness.sol:FundABusiness",
        "label": "cumFundReleased",
        "offset": 0,
        "slot": "14",
        "type": "t_uint256"
      },
      {
        "astId": 3056,
        "contract": "contracts/FundABusiness.sol:FundABusiness",
        "label": "areNftTokensSet",
        "offset": 0,
        "slot": "15",
        "type": "t_bool"
      },
      {
        "astId": 3059,
        "contract": "contracts/FundABusiness.sol:FundABusiness",
        "label": "isFeeTaken",
        "offset": 1,
        "slot": "15",
        "type": "t_bool"
      },
      {
        "astId": 3062,
        "contract": "contracts/FundABusiness.sol:FundABusiness",
        "label": "allowedErc20Token",
        "offset": 2,
        "slot": "15",
        "type": "t_contract(IERC20)628"
      },
      {
        "astId": 3068,
        "contract": "contracts/FundABusiness.sol:FundABusiness",
        "label": "tierBalanceOf",
        "offset": 0,
        "slot": "16",
        "type": "t_mapping(t_address,t_mapping(t_uint256,t_uint256))"
      },
      {
        "astId": 3072,
        "contract": "contracts/FundABusiness.sol:FundABusiness",
        "label": "tierCost",
        "offset": 0,
        "slot": "17",
        "type": "t_mapping(t_uint256,t_uint256)"
      },
      {
        "astId": 3077,
        "contract": "contracts/FundABusiness.sol:FundABusiness",
        "label": "nftContractOf",
        "offset": 0,
        "slot": "18",
        "type": "t_mapping(t_uint256,t_contract(INftPerks)5017)"
      },
      {
        "astId": 3083,
        "contract": "contracts/FundABusiness.sol:FundABusiness",
        "label": "hasClaimedNft",
        "offset": 0,
        "slot": "19",
        "type": "t_mapping(t_address,t_mapping(t_uint256,t_bool))"
      },
      {
        "astId": 3087,
        "contract": "contracts/FundABusiness.sol:FundABusiness",
        "label": "isAFunder",
        "offset": 0,
        "slot": "20",
        "type": "t_mapping(t_address,t_bool)"
      },
      {
        "astId": 3091,
        "contract": "contracts/FundABusiness.sol:FundABusiness",
        "label": "fractionOfMilestone",
        "offset": 0,
        "slot": "21",
        "type": "t_mapping(t_uint256,t_uint256)"
      },
      {
        "astId": 3095,
        "contract": "contracts/FundABusiness.sol:FundABusiness",
        "label": "isMilestoneApproved",
        "offset": 0,
        "slot": "22",
        "type": "t_mapping(t_uint256,t_bool)"
      },
      {
        "astId": 3099,
        "contract": "contracts/FundABusiness.sol:FundABusiness",
        "label": "businessBalance",
        "offset": 0,
        "slot": "23",
        "type": "t_mapping(t_address,t_uint256)"
      },
      {
        "astId": 3103,
        "contract": "contracts/FundABusiness.sol:FundABusiness",
        "label": "quantityOfTierBought",
        "offset": 0,
        "slot": "24",
        "type": "t_mapping(t_uint256,t_uint256)"
      },
      {
        "astId": 3107,
        "contract": "contracts/FundABusiness.sol:FundABusiness",
        "label": "fundingTiersCosts",
        "offset": 0,
        "slot": "25",
        "type": "t_array(t_struct(FundingTierCost)4689_storage)dyn_storage"
      },
      {
        "astId": 3111,
        "contract": "contracts/FundABusiness.sol:FundABusiness",
        "label": "nftTierContracts",
        "offset": 0,
        "slot": "26",
        "type": "t_array(t_struct(NftTierContract)4694_storage)dyn_storage"
      },
      {
        "astId": 3114,
        "contract": "contracts/FundABusiness.sol:FundABusiness",
        "label": "verdict",
        "offset": 0,
        "slot": "27",
        "type": "t_enum(CampaignState)4703"
      },
      {
        "astId": 3117,
        "contract": "contracts/FundABusiness.sol:FundABusiness",
        "label": "reasonForEnding",
        "offset": 1,
        "slot": "27",
        "type": "t_enum(EndCampaign)4706"
      }
    ],
    "types": {
      "t_address": {
        "encoding": "inplace",
        "label": "address",
        "numberOfBytes": "20"
      },
      "t_array(t_address)dyn_storage": {
        "base": "t_address",
        "encoding": "dynamic_array",
        "label": "address[]",
        "numberOfBytes": "32"
      },
      "t_array(t_struct(FundingTierCost)4689_storage)dyn_storage": {
        "base": "t_struct(FundingTierCost)4689_storage",
        "encoding": "dynamic_array",
        "label": "struct IFundABusiness.FundingTierCost[]",
        "numberOfBytes": "32"
      },
      "t_array(t_struct(NftTierContract)4694_storage)dyn_storage": {
        "base": "t_struct(NftTierContract)4694_storage",
        "encoding": "dynamic_array",
        "label": "struct IFundABusiness.NftTierContract[]",
        "numberOfBytes": "32"
      },
      "t_bool": {
        "encoding": "inplace",
        "label": "bool",
        "numberOfBytes": "1"
      },
      "t_bytes32": {
        "encoding": "inplace",
        "label": "bytes32",
        "numberOfBytes": "32"
      },
      "t_contract(IERC20)628": {
        "encoding": "inplace",
        "label": "contract IERC20",
        "numberOfBytes": "20"
      },
      "t_contract(INftPerks)5017": {
        "encoding": "inplace",
        "label": "contract INftPerks",
        "numberOfBytes": "20"
      },
      "t_enum(CampaignState)4703": {
        "encoding": "inplace",
        "label": "enum IFundABusiness.CampaignState",
        "numberOfBytes": "1"
      },
      "t_enum(EndCampaign)4706": {
        "encoding": "inplace",
        "label": "enum IFundABusiness.EndCampaign",
        "numberOfBytes": "1"
      },
      "t_mapping(t_address,t_bool)": {
        "encoding": "mapping",
        "key": "t_address",
        "label": "mapping(address => bool)",
        "numberOfBytes": "32",
        "value": "t_bool"
      },
      "t_mapping(t_address,t_mapping(t_uint256,t_bool))": {
        "encoding": "mapping",
        "key": "t_address",
        "label": "mapping(address => mapping(uint256 => bool))",
        "numberOfBytes": "32",
        "value": "t_mapping(t_uint256,t_bool)"
      },
      "t_mapping(t_address,t_mapping(t_uint256,t_uint256))": {
        "encoding": "mapping",
        "key": "t_address",
        "label": "mapping(address => mapping(uint256 => uint256))",
        "numberOfBytes": "32",
        "value": "t_mapping(t_uint256,t_uint256)"
      },
      "t_mapping(t_address,t_uint256)": {
        "encoding": "mapping",
        "key": "t_address",
        "label": "mapping(address => uint256)",
        "numberOfBytes": "32",
        "value": "t_uint256"
      },
      "t_mapping(t_bytes32,t_struct(RoleData)19_storage)": {
        "encoding": "mapping",
        "key": "t_bytes32",
        "label": "mapping(bytes32 => struct AccessControl.RoleData)",
        "numberOfBytes": "32",
        "value": "t_struct(RoleData)19_storage"
      },
      "t_mapping(t_uint256,t_bool)": {
        "encoding": "mapping",
        "key": "t_uint256",
        "label": "mapping(uint256 => bool)",
        "numberOfBytes": "32",
        "value": "t_bool"
      },
      "t_mapping(t_uint256,t_contract(INftPerks)5017)": {
        "encoding": "mapping",
        "key": "t_uint256",
        "label": "mapping(uint256 => contract INftPerks)",
        "numberOfBytes": "32",
        "value": "t_contract(INftPerks)5017"
      },
      "t_mapping(t_uint256,t_uint256)": {
        "encoding": "mapping",
        "key": "t_uint256",
        "label": "mapping(uint256 => uint256)",
        "numberOfBytes": "32",
        "value": "t_uint256"
      },
      "t_struct(FundingTierCost)4689_storage": {
        "encoding": "inplace",
        "label": "struct IFundABusiness.FundingTierCost",
        "members": [
          {
            "astId": 4686,
            "contract": "contracts/FundABusiness.sol:FundABusiness",
            "label": "fundingTier",
            "offset": 0,
            "slot": "0",
            "type": "t_uint256"
          },
          {
            "astId": 4688,
            "contract": "contracts/FundABusiness.sol:FundABusiness",
            "label": "tierCost",
            "offset": 0,
            "slot": "1",
            "type": "t_uint256"
          }
        ],
        "numberOfBytes": "64"
      },
      "t_struct(NftTierContract)4694_storage": {
        "encoding": "inplace",
        "label": "struct IFundABusiness.NftTierContract",
        "members": [
          {
            "astId": 4691,
            "contract": "contracts/FundABusiness.sol:FundABusiness",
            "label": "fundingTier",
            "offset": 0,
            "slot": "0",
            "type": "t_uint256"
          },
          {
            "astId": 4693,
            "contract": "contracts/FundABusiness.sol:FundABusiness",
            "label": "nftTokenAddress",
            "offset": 0,
            "slot": "1",
            "type": "t_address"
          }
        ],
        "numberOfBytes": "64"
      },
      "t_struct(RoleData)19_storage": {
        "encoding": "inplace",
        "label": "struct AccessControl.RoleData",
        "members": [
          {
            "astId": 16,
            "contract": "contracts/FundABusiness.sol:FundABusiness",
            "label": "members",
            "offset": 0,
            "slot": "0",
            "type": "t_mapping(t_address,t_bool)"
          },
          {
            "astId": 18,
            "contract": "contracts/FundABusiness.sol:FundABusiness",
            "label": "adminRole",
            "offset": 0,
            "slot": "1",
            "type": "t_bytes32"
          }
        ],
        "numberOfBytes": "64"
      },
      "t_uint256": {
        "encoding": "inplace",
        "label": "uint256",
        "numberOfBytes": "32"
      }
    }
  }
}