{
  "address": "0xDc64a140Aa3E981100a9becA4E685f962f0cF6C9",
  "abi": [
    {
      "inputs": [
        {
          "internalType": "address",
          "name": "_businessAddress",
          "type": "address"
        },
        {
          "internalType": "address",
          "name": "_treasuryAddress",
          "type": "address"
        },
        {
          "internalType": "uint256",
          "name": "_feeFraction",
          "type": "uint256"
        },
        {
          "internalType": "address",
          "name": "_priceFeed",
          "type": "address"
        },
        {
          "internalType": "uint256[]",
          "name": "_amountsToBeRaised",
          "type": "uint256[]"
        },
        {
          "internalType": "uint256[]",
          "name": "_campaignAndDecisionPeriod",
          "type": "uint256[]"
        },
        {
          "components": [
            {
              "internalType": "uint256",
              "name": "fundingTier",
              "type": "uint256"
            },
            {
              "internalType": "uint256",
              "name": "tierCost",
              "type": "uint256"
            }
          ],
          "internalType": "struct IFundABusiness.FundingTierCost[]",
          "name": "_fundingTiers",
          "type": "tuple[]"
        },
        {
          "components": [
            {
              "internalType": "uint256",
              "name": "milestoneNumber",
              "type": "uint256"
            },
            {
              "internalType": "uint256",
              "name": "fractionToBeReleased",
              "type": "uint256"
            }
          ],
          "internalType": "struct IFundABusiness.MilestoneStruct[]",
          "name": "_milestonesData",
          "type": "tuple[]"
        }
      ],
      "stateMutability": "nonpayable",
      "type": "constructor"
    },
    {
      "inputs": [],
      "name": "AlreadyApproved",
      "type": "error"
    },
    {
      "inputs": [],
      "name": "CampaignEnded",
      "type": "error"
    },
    {
      "inputs": [],
      "name": "CampaignNotOpen",
      "type": "error"
    },
    {
      "inputs": [],
      "name": "CampaignUnsuccessful",
      "type": "error"
    },
    {
      "inputs": [],
      "name": "DecisionMade",
      "type": "error"
    },
    {
      "inputs": [],
      "name": "FractionTooHigh",
      "type": "error"
    },
    {
      "inputs": [],
      "name": "FunderHasClaimedNft",
      "type": "error"
    },
    {
      "inputs": [],
      "name": "InsufficientBalance",
      "type": "error"
    },
    {
      "inputs": [],
      "name": "InvalidAmount",
      "type": "error"
    },
    {
      "inputs": [],
      "name": "InvalidTier",
      "type": "error"
    },
    {
      "inputs": [],
      "name": "InvalidTierAndQuantity",
      "type": "error"
    },
    {
      "inputs": [],
      "name": "InvalidValues",
      "type": "error"
    },
    {
      "inputs": [],
      "name": "NeedMoreTokens",
      "type": "error"
    },
    {
      "inputs": [],
      "name": "NftTokensNotSet",
      "type": "error"
    },
    {
      "inputs": [],
      "name": "NoFundDue",
      "type": "error"
    },
    {
      "inputs": [],
      "name": "NoRefund",
      "type": "error"
    },
    {
      "inputs": [],
      "name": "NotAFunder",
      "type": "error"
    },
    {
      "inputs": [],
      "name": "NotReceivingFunds",
      "type": "error"
    },
    {
      "inputs": [],
      "name": "NotTheOwner",
      "type": "error"
    },
    {
      "inputs": [],
      "name": "ReleasingMoreThanFundRaised",
      "type": "error"
    },
    {
      "inputs": [],
      "name": "TooLateToChange",
      "type": "error"
    },
    {
      "inputs": [],
      "name": "TransactionFailed",
      "type": "error"
    },
    {
      "inputs": [],
      "name": "Undecided",
      "type": "error"
    },
    {
      "inputs": [],
      "name": "ZeroAddress",
      "type": "error"
    },
    {
      "anonymous": false,
      "inputs": [
        {
          "indexed": false,
          "internalType": "uint256",
          "name": "time",
          "type": "uint256"
        }
      ],
      "name": "CampaignFailed",
      "type": "event"
    },
    {
      "anonymous": false,
      "inputs": [
        {
          "indexed": false,
          "internalType": "uint256",
          "name": "time",
          "type": "uint256"
        }
      ],
      "name": "CampaignSuccessful",
      "type": "event"
    },
    {
      "anonymous": false,
      "inputs": [
        {
          "indexed": false,
          "internalType": "address",
          "name": "funder",
          "type": "address"
        },
        {
          "indexed": false,
          "internalType": "uint256",
          "name": "tier",
          "type": "uint256"
        }
      ],
      "name": "ContributionReceived",
      "type": "event"
    },
    {
      "anonymous": false,
      "inputs": [
        {
          "indexed": false,
          "internalType": "address",
          "name": "funder",
          "type": "address"
        },
        {
          "indexed": false,
          "internalType": "uint256",
          "name": "tier",
          "type": "uint256"
        }
      ],
      "name": "ContributionRefunded",
      "type": "event"
    },
    {
      "anonymous": false,
      "inputs": [
        {
          "indexed": false,
          "internalType": "address",
          "name": "business",
          "type": "address"
        },
        {
          "indexed": false,
          "internalType": "uint256",
          "name": "amount",
          "type": "uint256"
        },
        {
          "indexed": false,
          "internalType": "uint256",
          "name": "time",
          "type": "uint256"
        }
      ],
      "name": "FundReleased",
      "type": "event"
    },
    {
      "anonymous": false,
      "inputs": [
        {
          "indexed": false,
          "internalType": "address",
          "name": "funder",
          "type": "address"
        },
        {
          "indexed": false,
          "internalType": "uint256",
          "name": "tier",
          "type": "uint256"
        }
      ],
      "name": "NFTRewardClaimed",
      "type": "event"
    },
    {
      "anonymous": false,
      "inputs": [
        {
          "indexed": false,
          "internalType": "address",
          "name": "account",
          "type": "address"
        }
      ],
      "name": "Paused",
      "type": "event"
    },
    {
      "anonymous": false,
      "inputs": [
        {
          "indexed": true,
          "internalType": "bytes32",
          "name": "role",
          "type": "bytes32"
        },
        {
          "indexed": true,
          "internalType": "bytes32",
          "name": "previousAdminRole",
          "type": "bytes32"
        },
        {
          "indexed": true,
          "internalType": "bytes32",
          "name": "newAdminRole",
          "type": "bytes32"
        }
      ],
      "name": "RoleAdminChanged",
      "type": "event"
    },
    {
      "anonymous": false,
      "inputs": [
        {
          "indexed": true,
          "internalType": "bytes32",
          "name": "role",
          "type": "bytes32"
        },
        {
          "indexed": true,
          "internalType": "address",
          "name": "account",
          "type": "address"
        },
        {
          "indexed": true,
          "internalType": "address",
          "name": "sender",
          "type": "address"
        }
      ],
      "name": "RoleGranted",
      "type": "event"
    },
    {
      "anonymous": false,
      "inputs": [
        {
          "indexed": true,
          "internalType": "bytes32",
          "name": "role",
          "type": "bytes32"
        },
        {
          "indexed": true,
          "internalType": "address",
          "name": "account",
          "type": "address"
        },
        {
          "indexed": true,
          "internalType": "address",
          "name": "sender",
          "type": "address"
        }
      ],
      "name": "RoleRevoked",
      "type": "event"
    },
    {
      "anonymous": false,
      "inputs": [
        {
          "indexed": false,
          "internalType": "address",
          "name": "account",
          "type": "address"
        }
      ],
      "name": "Unpaused",
      "type": "event"
    },
    {
      "inputs": [],
      "name": "DEFAULT_ADMIN_ROLE",
      "outputs": [
        {
          "internalType": "bytes32",
          "name": "",
          "type": "bytes32"
        }
      ],
      "stateMutability": "view",
      "type": "function"
    },
    {
      "inputs": [],
      "name": "MANAGER_ROLE",
      "outputs": [
        {
          "internalType": "bytes32",
          "name": "",
          "type": "bytes32"
        }
      ],
      "stateMutability": "view",
      "type": "function"
    },
    {
      "inputs": [],
      "name": "PAUSER_ROLE",
      "outputs": [
        {
          "internalType": "bytes32",
          "name": "",
          "type": "bytes32"
        }
      ],
      "stateMutability": "view",
      "type": "function"
    },
    {
      "inputs": [
        {
          "internalType": "uint256",
          "name": "_milestoneNumber",
          "type": "uint256"
        }
      ],
      "name": "approveMilestoneAndReleaseFund",
      "outputs": [],
      "stateMutability": "nonpayable",
      "type": "function"
    },
    {
      "inputs": [],
      "name": "areNftTokensSet",
      "outputs": [
        {
          "internalType": "bool",
          "name": "",
          "type": "bool"
        }
      ],
      "stateMutability": "view",
      "type": "function"
    },
    {
      "inputs": [],
      "name": "businessAddress",
      "outputs": [
        {
          "internalType": "address",
          "name": "",
          "type": "address"
        }
      ],
      "stateMutability": "view",
      "type": "function"
    },
    {
      "inputs": [
        {
          "internalType": "address",
          "name": "",
          "type": "address"
        }
      ],
      "name": "businessBalance",
      "outputs": [
        {
          "internalType": "uint256",
          "name": "",
          "type": "uint256"
        }
      ],
      "stateMutability": "view",
      "type": "function"
    },
    {
      "inputs": [],
      "name": "campaignDecisionTime",
      "outputs": [
        {
          "internalType": "uint256",
          "name": "",
          "type": "uint256"
        }
      ],
      "stateMutability": "view",
      "type": "function"
    },
    {
      "inputs": [],
      "name": "campaignEndTime",
      "outputs": [
        {
          "internalType": "uint256",
          "name": "",
          "type": "uint256"
        }
      ],
      "stateMutability": "view",
      "type": "function"
    },
    {
      "inputs": [],
      "name": "campaignStartTime",
      "outputs": [
        {
          "internalType": "uint256",
          "name": "",
          "type": "uint256"
        }
      ],
      "stateMutability": "view",
      "type": "function"
    },
    {
      "inputs": [
        {
          "internalType": "uint256",
          "name": "_tier",
          "type": "uint256"
        }
      ],
      "name": "claimNft",
      "outputs": [],
      "stateMutability": "nonpayable",
      "type": "function"
    },
    {
      "inputs": [
        {
          "internalType": "address",
          "name": "_funder",
          "type": "address"
        },
        {
          "internalType": "uint256",
          "name": "_tier",
          "type": "uint256"
        }
      ],
      "name": "claimNftFor",
      "outputs": [],
      "stateMutability": "nonpayable",
      "type": "function"
    },
    {
      "inputs": [
        {
          "internalType": "uint256",
          "name": "_tier",
          "type": "uint256"
        }
      ],
      "name": "claimRefund",
      "outputs": [],
      "stateMutability": "nonpayable",
      "type": "function"
    },
    {
      "inputs": [
        {
          "internalType": "address",
          "name": "_funder",
          "type": "address"
        },
        {
          "internalType": "uint256",
          "name": "_tier",
          "type": "uint256"
        }
      ],
      "name": "claimRefundFor",
      "outputs": [],
      "stateMutability": "nonpayable",
      "type": "function"
    },
    {
      "inputs": [
        {
          "internalType": "enum IFundABusiness.EndCampaign",
          "name": "_reasonForEnding",
          "type": "uint8"
        }
      ],
      "name": "closeFundingRound",
      "outputs": [],
      "stateMutability": "nonpayable",
      "type": "function"
    },
    {
      "inputs": [
        {
          "internalType": "uint256",
          "name": "_tier",
          "type": "uint256"
        },
        {
          "internalType": "uint256",
          "name": "_quantity",
          "type": "uint256"
        }
      ],
      "name": "contribute",
      "outputs": [],
      "stateMutability": "payable",
      "type": "function"
    },
    {
      "inputs": [
        {
          "internalType": "address",
          "name": "_funder",
          "type": "address"
        },
        {
          "internalType": "uint256",
          "name": "_tier",
          "type": "uint256"
        },
        {
          "internalType": "uint256",
          "name": "_quantity",
          "type": "uint256"
        }
      ],
      "name": "contributeOnBehalfOf",
      "outputs": [],
      "stateMutability": "payable",
      "type": "function"
    },
    {
      "inputs": [],
      "name": "cumFundReleased",
      "outputs": [
        {
          "internalType": "uint256",
          "name": "",
          "type": "uint256"
        }
      ],
      "stateMutability": "view",
      "type": "function"
    },
    {
      "inputs": [
        {
          "internalType": "uint256",
          "name": "",
          "type": "uint256"
        }
      ],
      "name": "fractionOfMilestone",
      "outputs": [
        {
          "internalType": "uint256",
          "name": "",
          "type": "uint256"
        }
      ],
      "stateMutability": "view",
      "type": "function"
    },
    {
      "inputs": [],
      "name": "fundRaised",
      "outputs": [
        {
          "internalType": "uint256",
          "name": "",
          "type": "uint256"
        }
      ],
      "stateMutability": "view",
      "type": "function"
    },
    {
      "inputs": [],
      "name": "fundRaisedMinusFee",
      "outputs": [
        {
          "internalType": "uint256",
          "name": "",
          "type": "uint256"
        }
      ],
      "stateMutability": "view",
      "type": "function"
    },
    {
      "inputs": [],
      "name": "getBusinessBalance",
      "outputs": [
        {
          "internalType": "uint256",
          "name": "",
          "type": "uint256"
        }
      ],
      "stateMutability": "view",
      "type": "function"
    },
    {
      "inputs": [],
      "name": "getFundersAddresses",
      "outputs": [
        {
          "internalType": "address[]",
          "name": "",
          "type": "address[]"
        }
      ],
      "stateMutability": "view",
      "type": "function"
    },
    {
      "inputs": [
        {
          "internalType": "uint256",
          "name": "_tier",
          "type": "uint256"
        },
        {
          "internalType": "uint256",
          "name": "_quantity",
          "type": "uint256"
        }
      ],
      "name": "getOneNativeCoinRate",
      "outputs": [
        {
          "internalType": "uint256",
          "name": "",
          "type": "uint256"
        }
      ],
      "stateMutability": "view",
      "type": "function"
    },
    {
      "inputs": [
        {
          "internalType": "uint256",
          "name": "_tier",
          "type": "uint256"
        }
      ],
      "name": "getQuantityOfTierBought",
      "outputs": [
        {
          "internalType": "uint256",
          "name": "",
          "type": "uint256"
        }
      ],
      "stateMutability": "view",
      "type": "function"
    },
    {
      "inputs": [
        {
          "internalType": "bytes32",
          "name": "role",
          "type": "bytes32"
        }
      ],
      "name": "getRoleAdmin",
      "outputs": [
        {
          "internalType": "bytes32",
          "name": "",
          "type": "bytes32"
        }
      ],
      "stateMutability": "view",
      "type": "function"
    },
    {
      "inputs": [
        {
          "internalType": "uint256",
          "name": "_tier",
          "type": "uint256"
        }
      ],
      "name": "getTierPrice",
      "outputs": [
        {
          "internalType": "uint256",
          "name": "",
          "type": "uint256"
        }
      ],
      "stateMutability": "view",
      "type": "function"
    },
    {
      "inputs": [
        {
          "internalType": "bytes32",
          "name": "role",
          "type": "bytes32"
        },
        {
          "internalType": "address",
          "name": "account",
          "type": "address"
        }
      ],
      "name": "grantRole",
      "outputs": [],
      "stateMutability": "nonpayable",
      "type": "function"
    },
    {
      "inputs": [
        {
          "internalType": "address",
          "name": "",
          "type": "address"
        },
        {
          "internalType": "uint256",
          "name": "",
          "type": "uint256"
        }
      ],
      "name": "hasClaimedNft",
      "outputs": [
        {
          "internalType": "bool",
          "name": "",
          "type": "bool"
        }
      ],
      "stateMutability": "view",
      "type": "function"
    },
    {
      "inputs": [
        {
          "internalType": "bytes32",
          "name": "role",
          "type": "bytes32"
        },
        {
          "internalType": "address",
          "name": "account",
          "type": "address"
        }
      ],
      "name": "hasRole",
      "outputs": [
        {
          "internalType": "bool",
          "name": "",
          "type": "bool"
        }
      ],
      "stateMutability": "view",
      "type": "function"
    },
    {
      "inputs": [
        {
          "internalType": "address",
          "name": "",
          "type": "address"
        }
      ],
      "name": "isAFunder",
      "outputs": [
        {
          "internalType": "bool",
          "name": "",
          "type": "bool"
        }
      ],
      "stateMutability": "view",
      "type": "function"
    },
    {
      "inputs": [
        {
          "internalType": "uint256",
          "name": "",
          "type": "uint256"
        }
      ],
      "name": "isMilestoneApproved",
      "outputs": [
        {
          "internalType": "bool",
          "name": "",
          "type": "bool"
        }
      ],
      "stateMutability": "view",
      "type": "function"
    },
    {
      "inputs": [],
      "name": "minTargetAmount",
      "outputs": [
        {
          "internalType": "uint256",
          "name": "",
          "type": "uint256"
        }
      ],
      "stateMutability": "view",
      "type": "function"
    },
    {
      "inputs": [],
      "name": "moatFeeNumerator",
      "outputs": [
        {
          "internalType": "uint256",
          "name": "",
          "type": "uint256"
        }
      ],
      "stateMutability": "view",
      "type": "function"
    },
    {
      "inputs": [
        {
          "internalType": "uint256",
          "name": "",
          "type": "uint256"
        }
      ],
      "name": "nftContractOf",
      "outputs": [
        {
          "internalType": "contract INftPerks",
          "name": "",
          "type": "address"
        }
      ],
      "stateMutability": "view",
      "type": "function"
    },
    {
      "inputs": [],
      "name": "pause",
      "outputs": [],
      "stateMutability": "nonpayable",
      "type": "function"
    },
    {
      "inputs": [],
      "name": "paused",
      "outputs": [
        {
          "internalType": "bool",
          "name": "",
          "type": "bool"
        }
      ],
      "stateMutability": "view",
      "type": "function"
    },
    {
      "inputs": [
        {
          "internalType": "bytes32",
          "name": "role",
          "type": "bytes32"
        },
        {
          "internalType": "address",
          "name": "account",
          "type": "address"
        }
      ],
      "name": "renounceRole",
      "outputs": [],
      "stateMutability": "nonpayable",
      "type": "function"
    },
    {
      "inputs": [
        {
          "internalType": "bytes32",
          "name": "role",
          "type": "bytes32"
        },
        {
          "internalType": "address",
          "name": "account",
          "type": "address"
        }
      ],
      "name": "revokeRole",
      "outputs": [],
      "stateMutability": "nonpayable",
      "type": "function"
    },
    {
      "inputs": [
        {
          "internalType": "address",
          "name": "_businessAddress",
          "type": "address"
        }
      ],
      "name": "setBusinessAddress",
      "outputs": [],
      "stateMutability": "nonpayable",
      "type": "function"
    },
    {
      "inputs": [
        {
          "internalType": "uint256[]",
          "name": "_campaignTimesAndDecision",
          "type": "uint256[]"
        }
      ],
      "name": "setCampaignAndDecisionPeriod",
      "outputs": [],
      "stateMutability": "nonpayable",
      "type": "function"
    },
    {
      "inputs": [
        {
          "components": [
            {
              "internalType": "uint256",
              "name": "fundingTier",
              "type": "uint256"
            },
            {
              "internalType": "uint256",
              "name": "tierCost",
              "type": "uint256"
            }
          ],
          "internalType": "struct IFundABusiness.FundingTierCost[]",
          "name": "_fundingTiers",
          "type": "tuple[]"
        }
      ],
      "name": "setFundingTiersAndCosts",
      "outputs": [],
      "stateMutability": "nonpayable",
      "type": "function"
    },
    {
      "inputs": [
        {
          "internalType": "uint256",
          "name": "_feeFraction",
          "type": "uint256"
        }
      ],
      "name": "setMOATFee",
      "outputs": [],
      "stateMutability": "nonpayable",
      "type": "function"
    },
    {
      "inputs": [
        {
          "components": [
            {
              "internalType": "uint256",
              "name": "milestoneNumber",
              "type": "uint256"
            },
            {
              "internalType": "uint256",
              "name": "fractionToBeReleased",
              "type": "uint256"
            }
          ],
          "internalType": "struct IFundABusiness.MilestoneStruct[]",
          "name": "_milestonesData",
          "type": "tuple[]"
        }
      ],
      "name": "setMilestones",
      "outputs": [],
      "stateMutability": "nonpayable",
      "type": "function"
    },
    {
      "inputs": [
        {
          "components": [
            {
              "internalType": "uint256",
              "name": "fundingTier",
              "type": "uint256"
            },
            {
              "internalType": "address",
              "name": "nftTokenAddress",
              "type": "address"
            }
          ],
          "internalType": "struct IFundABusiness.NftTierContract[]",
          "name": "_nftTierContracts",
          "type": "tuple[]"
        }
      ],
      "name": "setNftPerkContracts",
      "outputs": [],
      "stateMutability": "nonpayable",
      "type": "function"
    },
    {
      "inputs": [
        {
          "internalType": "uint256[]",
          "name": "_amountsToBeRaised",
          "type": "uint256[]"
        }
      ],
      "name": "setTargetAmounts",
      "outputs": [],
      "stateMutability": "nonpayable",
      "type": "function"
    },
    {
      "inputs": [
        {
          "internalType": "address",
          "name": "_treasuryAddress",
          "type": "address"
        }
      ],
      "name": "setTreasuryAddress",
      "outputs": [],
      "stateMutability": "nonpayable",
      "type": "function"
    },
    {
      "inputs": [
        {
          "internalType": "bytes4",
          "name": "interfaceId",
          "type": "bytes4"
        }
      ],
      "name": "supportsInterface",
      "outputs": [
        {
          "internalType": "bool",
          "name": "",
          "type": "bool"
        }
      ],
      "stateMutability": "view",
      "type": "function"
    },
    {
      "inputs": [],
      "name": "targetAmount",
      "outputs": [
        {
          "internalType": "uint256",
          "name": "",
          "type": "uint256"
        }
      ],
      "stateMutability": "view",
      "type": "function"
    },
    {
      "inputs": [
        {
          "internalType": "address",
          "name": "",
          "type": "address"
        },
        {
          "internalType": "uint256",
          "name": "",
          "type": "uint256"
        }
      ],
      "name": "tierBalanceOf",
      "outputs": [
        {
          "internalType": "uint256",
          "name": "",
          "type": "uint256"
        }
      ],
      "stateMutability": "view",
      "type": "function"
    },
    {
      "inputs": [
        {
          "internalType": "uint256",
          "name": "",
          "type": "uint256"
        }
      ],
      "name": "tierCost",
      "outputs": [
        {
          "internalType": "uint256",
          "name": "",
          "type": "uint256"
        }
      ],
      "stateMutability": "view",
      "type": "function"
    },
    {
      "inputs": [],
      "name": "unpause",
      "outputs": [],
      "stateMutability": "nonpayable",
      "type": "function"
    },
    {
      "inputs": [],
      "name": "verdict",
      "outputs": [
        {
          "internalType": "enum IFundABusiness.CampaignState",
          "name": "",
          "type": "uint8"
        }
      ],
      "stateMutability": "view",
      "type": "function"
    },
    {
      "inputs": [],
      "name": "withdrawFundRaised",
      "outputs": [],
      "stateMutability": "nonpayable",
      "type": "function"
    },
    {
      "stateMutability": "payable",
      "type": "receive"
    }
  ],
  "transactionHash": "0xe26afe0c05503a369d67f0872a947049926ecee30df9ad49bb9d3502f3b4537e",
  "args": [
    "0x70997970C51812dc3A010C7d01b50e0d17dc79C8",
    "0x3C44CdDdB6a900fa2b585dd299e03d12FA4293BC",
    10000,
    "0x5FbDB2315678afecb367f032d93F642f64180aa3",
    [
      "3000000000000000000",
      "5000000000000000000"
    ],
    [
      1686004350,
      1749154230,
      79200
    ],
    [
      [
        1,
        100
      ],
      [
        2,
        200
      ],
      [
        3,
        300
      ]
    ],
    [
      [
        0,
        20000
      ],
      [
        1,
        30000
      ],
      [
        2,
        40000
      ],
      [
        3,
        10000
      ]
    ]
  ],
  "numDeployments": 1,
  "solcInputHash": "4e37086f315ff8f87dd185e904eaca29",
  "bytecode": "0x6080604052600f805461ffff191690553480156200001c57600080fd5b5060405162003b5238038062003b528339810160408190526200003f9162000a38565b600180556002805460ff191690558251600314620000705760405163516e361d60e11b815260040160405180910390fd5b8260008151811062000086576200008662000b34565b602002602001015160058190555082600181518110620000aa57620000aa62000b34565b60200260200101516006819055506200010c83600281518110620000d257620000d262000b34565b602002602001015184600181518110620000f057620000f062000b34565b6020026020010151620001e360201b62001ce51790919060201c565b600755600f805462010000600160b01b031916620100006001600160a01b038816021790556200013e600033620001fa565b6200015960008051602062003b3283398151915233620001fa565b620001857f65d7a28e3265b37a6474929f336521b332c1681b933f6cb9f3376673440d862a33620001fa565b62000190846200029b565b6200019b8262000349565b620001a68762000406565b620001b18862000474565b620001bc81620004dc565b620001c786620005b5565b5050601c805460ff191660021790555062000c9a945050505050565b6000620001f1828462000b60565b90505b92915050565b6000828152602081815260408083206001600160a01b038516845290915290205460ff1662000297576000828152602081815260408083206001600160a01b03851684529091529020805460ff19166001179055620002563390565b6001600160a01b0316816001600160a01b0316837f2f8788117e7eff1d82e926ec794901d17c78024a50270940304540a733656f0d60405160405180910390a45b5050565b60008051602062003b32833981519152620002b6816200061f565b600754421115620002da5760405163488e80ff60e01b815260040160405180910390fd5b8151600214620002fd5760405163516e361d60e11b815260040160405180910390fd5b8160008151811062000313576200031362000b34565b60200260200101516008819055508160018151811062000337576200033762000b34565b60200260200101516009819055505050565b60008051602062003b3283398151915262000364816200061f565b600554421115620003885760405163488e80ff60e01b815260040160405180910390fd5b60005b82518110156200040157828181518110620003aa57620003aa62000b34565b60200260200101516020015160116000858481518110620003cf57620003cf62000b34565b60200260200101516000015181526020019081526020016000208190555080620003f99062000b76565b90506200038b565b505050565b60008051602062003b3283398151915262000421816200061f565b816001600160a01b0381166200044a5760405163d92e233d60e01b815260040160405180910390fd5b5050600280546001600160a01b0390921661010002610100600160a81b0319909216919091179055565b60008051602062003b328339815191526200048f816200061f565b816001600160a01b038116620004b85760405163d92e233d60e01b815260040160405180910390fd5b5050600380546001600160a01b0319166001600160a01b0392909216919091179055565b60008051602062003b32833981519152620004f7816200061f565b60005b82518110156200040157620186a08382815181106200051d576200051d62000b34565b602002602001015160200151111562000549576040516336d85bb560e11b815260040160405180910390fd5b8281815181106200055e576200055e62000b34565b6020026020010151602001516015600085848151811062000583576200058362000b34565b60200260200101516000015181526020019081526020016000208190555080620005ad9062000b76565b9050620004fa565b60008051602062003b32833981519152620005d0816200061f565b620186a0821115620005f55760405163516e361d60e11b815260040160405180910390fd5b600554421115620006195760405163488e80ff60e01b815260040160405180910390fd5b50600c55565b6200062b81336200062e565b50565b6000828152602081815260408083206001600160a01b038516845290915290205460ff1662000297576200066d81620006c760201b62001cf81760201c565b6200068383602062001d0a620006da821b17811c565b6040516020016200069692919062000bb8565b60408051601f198184030181529082905262461bcd60e51b8252620006be9160040162000c31565b60405180910390fd5b6060620001f46001600160a01b03831660145b60606000620006eb83600262000c66565b620006f890600262000b60565b6001600160401b03811115620007125762000712620008b0565b6040519080825280601f01601f1916602001820160405280156200073d576020820181803683370190505b509050600360fc1b816000815181106200075b576200075b62000b34565b60200101906001600160f81b031916908160001a905350600f60fb1b816001815181106200078d576200078d62000b34565b60200101906001600160f81b031916908160001a9053506000620007b384600262000c66565b620007c090600162000b60565b90505b600181111562000842576f181899199a1a9b1b9c1cb0b131b232b360811b85600f1660108110620007f857620007f862000b34565b1a60f81b82828151811062000811576200081162000b34565b60200101906001600160f81b031916908160001a90535060049490941c936200083a8162000c80565b9050620007c3565b508315620001f15760405162461bcd60e51b815260206004820181905260248201527f537472696e67733a20686578206c656e67746820696e73756666696369656e746044820152606401620006be565b80516001600160a01b0381168114620008ab57600080fd5b919050565b634e487b7160e01b600052604160045260246000fd5b604051601f8201601f191681016001600160401b0381118282101715620008f157620008f1620008b0565b604052919050565b60006001600160401b03821115620009155762000915620008b0565b5060051b60200190565b600082601f8301126200093157600080fd5b815160206200094a6200094483620008f9565b620008c6565b82815260059290921b840181019181810190868411156200096a57600080fd5b8286015b848110156200098757805183529183019183016200096e565b509695505050505050565b600082601f830112620009a457600080fd5b81516020620009b76200094483620008f9565b82815260069290921b84018101918181019086841115620009d757600080fd5b8286015b848110156200098757604080828a031215620009f75760008081fd5b80518082016001600160401b038111828210171562000a1a5762000a1a620008b0565b909152815181528482015185820152835291830191604001620009db565b600080600080600080600080610100898b03121562000a5657600080fd5b62000a618962000893565b975062000a7160208a0162000893565b96506040890151955062000a8860608a0162000893565b60808a01519095506001600160401b038082111562000aa657600080fd5b62000ab48c838d016200091f565b955060a08b015191508082111562000acb57600080fd5b62000ad98c838d016200091f565b945060c08b015191508082111562000af057600080fd5b62000afe8c838d0162000992565b935060e08b015191508082111562000b1557600080fd5b5062000b248b828c0162000992565b9150509295985092959890939650565b634e487b7160e01b600052603260045260246000fd5b634e487b7160e01b600052601160045260246000fd5b80820180821115620001f457620001f462000b4a565b60006001820162000b8b5762000b8b62000b4a565b5060010190565b60005b8381101562000baf57818101518382015260200162000b95565b50506000910152565b7f416363657373436f6e74726f6c3a206163636f756e742000000000000000000081526000835162000bf281601785016020880162000b92565b7001034b99036b4b9b9b4b733903937b6329607d1b601791840191820152835162000c2581602884016020880162000b92565b01602801949350505050565b602081526000825180602084015262000c5281604085016020870162000b92565b601f01601f19169190910160400192915050565b8082028115828204841417620001f457620001f462000b4a565b60008162000c925762000c9262000b4a565b506000190190565b612e888062000caa6000396000f3fe6080604052600436106103595760003560e01c8063685406ca116101bb578063a95185f0116100f7578063c71c0b4011610095578063e63ab1e91161006f578063e63ab1e914610a05578063ec87621c14610a39578063f35f206c14610a5b578063fd4234e814610a9157600080fd5b8063c71c0b40146109af578063d3717a02146109c5578063d547741f146109e557600080fd5b8063b0786fad116100d1578063b0786fad14610920578063b2ab56e114610942578063bc015f4714610962578063bf3ea4721461098257600080fd5b8063a95185f014610893578063a9a4cab1146108c3578063b0100cf7146108f057600080fd5b806380961ad31161016457806391d148541161013e57806391d1485414610804578063953b8fb814610848578063a217fddf1461085e578063a4334daa1461087357600080fd5b806380961ad3146107bc5780638456cb59146107dc5780638c590917146107f157600080fd5b80637b8b29ac116101955780637b8b29ac146107635780637dd4ad2f146107795780637e3e010a146107a657600080fd5b8063685406ca146106fc5780636aba253c1461071c578063750d0b671461074357600080fd5b80632b32e9ca116102955780634c3adbfd116102335780635b7baf641161020d5780635b7baf641461068f5780635c975abb146106af5780636605bfda146106c757806366d021cb146106e757600080fd5b80634c3adbfd146106465780634e43ccb4146106665780634eb494821461067c57600080fd5b806336568abe1161026f57806336568abe146105d7578063371edcb2146105f75780633f4ba83a146106115780634758c2cb1461062657600080fd5b80632b32e9ca1461055f5780632ec09d39146105975780632f2ff15d146105b757600080fd5b8063134f275c116103025780631a99dbaa116102dc5780631a99dbaa146104cc578063248a9ca3146104e2578063252a8875146105125780632669e8e31461053257600080fd5b8063134f275c1461045e57806313e7b33e1461047e5780631583deb21461049457600080fd5b8063038b68dd11610333578063038b68dd146103fa5780630f01ec651461041a57806312498a701461043a57600080fd5b806301ffc9a714610368578063026686ee1461039d57806302866962146103d857600080fd5b3661036357600080fd5b600080fd5b34801561037457600080fd5b5061038861038336600461275d565b610aa7565b60405190151581526020015b60405180910390f35b3480156103a957600080fd5b506103886103b83660046127bb565b601360209081526000928352604080842090915290825290205460ff1681565b3480156103e457600080fd5b506103f86103f33660046128f3565b610b40565b005b34801561040657600080fd5b506103f86104153660046127bb565b610c26565b34801561042657600080fd5b506103f8610435366004612944565b610e27565b34801561044657600080fd5b5061045060065481565b604051908152602001610394565b34801561046a57600080fd5b506103f8610479366004612944565b610eca565b34801561048a57600080fd5b5061045060055481565b3480156104a057600080fd5b506003546104b4906001600160a01b031681565b6040516001600160a01b039091168152602001610394565b3480156104d857600080fd5b5061045060075481565b3480156104ee57600080fd5b506104506104fd3660046129d5565b60009081526020819052604090206001015490565b34801561051e57600080fd5b5061045061052d3660046129d5565b611037565b34801561053e57600080fd5b5061045061054d3660046129d5565b60116020526000908152604090205481565b34801561056b57600080fd5b5061045061057a3660046127bb565b601060209081526000928352604080842090915290825290205481565b3480156105a357600080fd5b506103f86105b23660046129d5565b611091565b3480156105c357600080fd5b506103f86105d23660046129ee565b6110cb565b3480156105e357600080fd5b506103f86105f23660046129ee565b6110f0565b34801561060357600080fd5b50600f546103889060ff1681565b34801561061d57600080fd5b506103f861117d565b34801561063257600080fd5b50610450610641366004612a1a565b6111b2565b34801561065257600080fd5b506103f86106613660046127bb565b611219565b34801561067257600080fd5b50610450600b5481565b6103f861068a366004612a3c565b61135a565b34801561069b57600080fd5b506103f86106aa3660046129d5565b611486565b3480156106bb57600080fd5b5060025460ff16610388565b3480156106d357600080fd5b506103f86106e2366004612a6f565b6114c0565b3480156106f357600080fd5b506103f8611541565b34801561070857600080fd5b506103f86107173660046128f3565b6116d8565b34801561072857600080fd5b50601c546107369060ff1681565b6040516103949190612aa0565b34801561074f57600080fd5b506103f861075e366004612ac8565b611782565b34801561076f57600080fd5b50610450600e5481565b34801561078557600080fd5b506104506107943660046129d5565b60156020526000908152604090205481565b3480156107b257600080fd5b5061045060085481565b3480156107c857600080fd5b506104506107d73660046129d5565b6118cc565b3480156107e857600080fd5b506103f86118fa565b6103f86107ff366004612a1a565b61192c565b34801561081057600080fd5b5061038861081f3660046129ee565b6000918252602082815260408084206001600160a01b0393909316845291905290205460ff1690565b34801561085457600080fd5b5061045060095481565b34801561086a57600080fd5b50610450600081565b34801561087f57600080fd5b506103f861088e3660046129d5565b611937565b34801561089f57600080fd5b506103886108ae3660046129d5565b60166020526000908152604090205460ff1681565b3480156108cf57600080fd5b506003546001600160a01b0316600090815260176020526040902054610450565b3480156108fc57600080fd5b5061038861090b366004612a6f565b60146020526000908152604090205460ff1681565b34801561092c57600080fd5b50610935611a62565b6040516103949190612ae9565b34801561094e57600080fd5b506103f861095d366004612b36565b611ae1565b34801561096e57600080fd5b506103f861097d3660046129d5565b611bea565b34801561098e57600080fd5b5061045061099d366004612a6f565b60176020526000908152604090205481565b3480156109bb57600080fd5b50610450600a5481565b3480156109d157600080fd5b506103f86109e0366004612a6f565b611c4f565b3480156109f157600080fd5b506103f8610a003660046129ee565b611cc0565b348015610a1157600080fd5b506104507f65d7a28e3265b37a6474929f336521b332c1681b933f6cb9f3376673440d862a81565b348015610a4557600080fd5b50610450600080516020612e3383398151915281565b348015610a6757600080fd5b506104b4610a763660046129d5565b6012602052600090815260409020546001600160a01b031681565b348015610a9d57600080fd5b50610450600c5481565b60007fffffffff0000000000000000000000000000000000000000000000000000000082167f7965db0b000000000000000000000000000000000000000000000000000000001480610b3a57507f01ffc9a7000000000000000000000000000000000000000000000000000000007fffffffff000000000000000000000000000000000000000000000000000000008316145b92915050565b600080516020612e33833981519152610b5881611eeb565b60005b8251811015610c2157620186a0838281518110610b7a57610b7a612be9565b6020026020010151602001511115610bbe576040517f6db0b76a00000000000000000000000000000000000000000000000000000000815260040160405180910390fd5b828181518110610bd057610bd0612be9565b60200260200101516020015160156000858481518110610bf257610bf2612be9565b60200260200101516000015181526020019081526020016000208190555080610c1a90612c15565b9050610b5b565b505050565b600f5460ff16610c62576040517f85cd26fd00000000000000000000000000000000000000000000000000000000815260040160405180910390fd5b610c6a611ef5565b610c72611f4e565b610c7a611fa1565b601c805460ff19166001836002811115610c9657610c96612a8a565b02179055506000601c5460ff166002811115610cb457610cb4612a8a565b14610cd257604051638d05f51560e01b815260040160405180910390fd5b6001600160a01b038216600090815260136020908152604080832084845290915290205460ff1615610d30576040517f708d73f200000000000000000000000000000000000000000000000000000000815260040160405180910390fd5b6001600160a01b03821660008181526010602090815260408083208584528083528184208054958552601384528285208786528452918420805460ff191660011790559091528190555b81811015610e1857600083815260126020526040908190205490517fe9c2e14b0000000000000000000000000000000000000000000000000000000081526001600160a01b0386811660048301529091169063e9c2e14b90602401600060405180830381600087803b158015610def57600080fd5b505af1158015610e03573d6000803e3d6000fd5b5050505080610e1190612c15565b9050610d7a565b5050610e2360018055565b5050565b600080516020612e33833981519152610e3f81611eeb565b600754421115610e625760405163488e80ff60e01b815260040160405180910390fd5b8151600214610e845760405163516e361d60e11b815260040160405180910390fd5b81600081518110610e9757610e97612be9565b602002602001015160088190555081600181518110610eb857610eb8612be9565b60200260200101516009819055505050565b600080516020612e33833981519152610ee281611eeb565b8151600314610f045760405163516e361d60e11b815260040160405180910390fd5b600554421015610f9e5781600081518110610f2157610f21612be9565b602002602001015160058190555081600181518110610f4257610f42612be9565b6020026020010151600681905550610f9782600281518110610f6657610f66612be9565b602002602001015183600181518110610f8157610f81612be9565b6020026020010151611ce590919063ffffffff16565b6007555050565b610fa661206d565b15610fbe5781600181518110610f4257610f42612be9565b6006544210158015610fd1575060075442105b1561100557610f9782600281518110610fec57610fec612be9565b6020026020010151600654611ce590919063ffffffff16565b6040517f553ae05400000000000000000000000000000000000000000000000000000000815260040160405180910390fd5b600081815260116020526040812054810361107e576040517fe142361700000000000000000000000000000000000000000000000000000000815260040160405180910390fd5b5060009081526011602052604090205490565b3360008181526014602052604090205460ff166110c15760405163e02a527360e01b815260040160405180910390fd5b610e233383610c26565b6000828152602081905260409020600101546110e681611eeb565b610c2183836120d8565b6001600160a01b03811633146111735760405162461bcd60e51b815260206004820152602f60248201527f416363657373436f6e74726f6c3a2063616e206f6e6c792072656e6f756e636560448201527f20726f6c657320666f722073656c66000000000000000000000000000000000060648201526084015b60405180910390fd5b610e238282612176565b7f65d7a28e3265b37a6474929f336521b332c1681b933f6cb9f3376673440d862a6111a781611eeb565b6111af6121f5565b50565b60008281526011602052604081205481906111cd9084612248565b600f5490915060019060009061120f906111f79084906201000090046001600160a01b0316612254565b61120985670de0b6b3a7640000612248565b9061228a565b9695505050505050565b611221611ef5565b611229611f4e565b611231611fa1565b601c805460ff1916600183600281111561124d5761124d612a8a565b02179055506000601c5460ff16600281111561126b5761126b612a8a565b036112895760405163c6dfc20160e01b815260040160405180910390fd5b6001600160a01b0382166000908152601960209081526040808320848452909152902054806112cb5760405163c6dfc20160e01b815260040160405180910390fd5b6001600160a01b038316600081815260106020908152604080832086845282528083208390559282526019815282822085835290529081205561130e8382612296565b604080516001600160a01b0385168152602081018490527f2ef47cadc7e07ee6cea296446c8ca85ff6955693411d8868f7a04b6850034f08910160405180910390a150610e2360018055565b611362611ef5565b61136a611f4e565b826001600160a01b0381166113925760405163d92e233d60e01b815260040160405180910390fd5b61139a61206d565b15156001146113d5576040517fdf2d6b2800000000000000000000000000000000000000000000000000000000815260040160405180910390fd5b60006113e184846111b2565b90506000811161141d576040517f029819b700000000000000000000000000000000000000000000000000000000815260040160405180910390fd5b80341015611457576040517f2c5211c600000000000000000000000000000000000000000000000000000000815260040160405180910390fd5b34600a60008282546114699190612c2e565b9091555061147b9050858585346122fc565b5050610c2160018055565b3360008181526014602052604090205460ff166114b65760405163e02a527360e01b815260040160405180910390fd5b610e233383611219565b600080516020612e338339815191526114d881611eeb565b816001600160a01b0381166115005760405163d92e233d60e01b815260040160405180910390fd5b5050600280546001600160a01b03909216610100027fffffffffffffffffffffff0000000000000000000000000000000000000000ff909216919091179055565b611549611ef5565b611551611f4e565b6003546001600160a01b03163314611595576040517f36b6b89500000000000000000000000000000000000000000000000000000000815260040160405180910390fd5b61159d611fa1565b601c805460ff191660018360028111156115b9576115b9612a8a565b0217905550600754421180156115e657506000601c5460ff1660028111156115e3576115e3612a8a565b14155b1561160457604051638d05f51560e01b815260040160405180910390fd5b6003546001600160a01b031660009081526017602052604090205480611656576040517f569323d200000000000000000000000000000000000000000000000000000000815260040160405180910390fd5b600380546001600160a01b039081166000908152601760205260408120559054611681911682612296565b600354604080516001600160a01b039092168252602082018390524282820152517f3df25ea0269b814fac9e2b26b3cc6971a48c7bdd35be407f416e44a16466325b9181900360600190a1506116d660018055565b565b600080516020612e338339815191526116f081611eeb565b6005544211156117135760405163488e80ff60e01b815260040160405180910390fd5b60005b8251811015610c215782818151811061173157611731612be9565b6020026020010151602001516011600085848151811061175357611753612be9565b6020026020010151600001518152602001908152602001600020819055508061177b90612c15565b9050611716565b600080516020612e3383398151915261179a81611eeb565b6117a2611fa1565b601c805460ff191660018360028111156117be576117be612a8a565b0217905550600754421180156117eb57506002601c5460ff1660028111156117e8576117e8612a8a565b14155b15611822576040517f61a7916f00000000000000000000000000000000000000000000000000000000815260040160405180910390fd5b426006819055600755600082600181111561183f5761183f612a8a565b0361185657601c805460ff19169055610e23612468565b600182600181111561186a5761186a612a8a565b036118b357601c805460ff191660011790556040514281527f7b1418b19a03b176f641639ee79855da661fa88a08377ecd32ad6d38152b95369060200160405180910390a15050565b60405163516e361d60e11b815260040160405180910390fd5b6000600080516020612e338339815191526118e681611eeb565b505060009081526018602052604090205490565b7f65d7a28e3265b37a6474929f336521b332c1681b933f6cb9f3376673440d862a61192481611eeb565b6111af61250d565b610e2333838361135a565b600080516020612e3383398151915261194f81611eeb565b611957611f4e565b61195f611fa1565b601c805460ff1916600183600281111561197b5761197b612a8a565b02179055506007544210156119bc576040517fc8dcac8200000000000000000000000000000000000000000000000000000000815260040160405180910390fd5b6000601c5460ff1660028111156119d5576119d5612a8a565b146119f357604051638d05f51560e01b815260040160405180910390fd5b60008281526016602052604090205460ff161515600103611a40576040517f101f817a00000000000000000000000000000000000000000000000000000000815260040160405180910390fd5b6000828152601660205260409020805460ff19166001179055610e238261254a565b6060600080516020612e33833981519152611a7c81611eeb565b60006004805480602002602001604051908101604052809291908181526020018280548015611ad457602002820191906000526020600020905b81546001600160a01b03168152600190910190602001808311611ab6575b5093965050505050505090565b600080516020612e33833981519152611af981611eeb565b60005b8251811015611bd85760006001600160a01b0316838281518110611b2257611b22612be9565b6020026020010151602001516001600160a01b031603611b555760405163d92e233d60e01b815260040160405180910390fd5b828181518110611b6757611b67612be9565b60200260200101516020015160126000858481518110611b8957611b89612be9565b602002602001015160000151815260200190815260200160002060006101000a8154816001600160a01b0302191690836001600160a01b0316021790555080611bd190612c15565b9050611afc565b5050600f805460ff1916600117905550565b600080516020612e33833981519152611c0281611eeb565b620186a0821115611c265760405163516e361d60e11b815260040160405180910390fd5b600554421115611c495760405163488e80ff60e01b815260040160405180910390fd5b50600c55565b600080516020612e33833981519152611c6781611eeb565b816001600160a01b038116611c8f5760405163d92e233d60e01b815260040160405180910390fd5b50506003805473ffffffffffffffffffffffffffffffffffffffff19166001600160a01b0392909216919091179055565b600082815260208190526040902060010154611cdb81611eeb565b610c218383612176565b6000611cf18284612c2e565b9392505050565b6060610b3a6001600160a01b03831660145b60606000611d19836002612c41565b611d24906002612c2e565b67ffffffffffffffff811115611d3c57611d3c6127e5565b6040519080825280601f01601f191660200182016040528015611d66576020820181803683370190505b5090507f300000000000000000000000000000000000000000000000000000000000000081600081518110611d9d57611d9d612be9565b60200101906001600160f81b031916908160001a9053507f780000000000000000000000000000000000000000000000000000000000000081600181518110611de857611de8612be9565b60200101906001600160f81b031916908160001a9053506000611e0c846002612c41565b611e17906001612c2e565b90505b6001811115611e9c577f303132333435363738396162636465660000000000000000000000000000000085600f1660108110611e5857611e58612be9565b1a60f81b828281518110611e6e57611e6e612be9565b60200101906001600160f81b031916908160001a90535060049490941c93611e9581612c58565b9050611e1a565b508315611cf15760405162461bcd60e51b815260206004820181905260248201527f537472696e67733a20686578206c656e67746820696e73756666696369656e74604482015260640161116a565b6111af8133612610565b600260015403611f475760405162461bcd60e51b815260206004820152601f60248201527f5265656e7472616e637947756172643a207265656e7472616e742063616c6c00604482015260640161116a565b6002600155565b60025460ff16156116d65760405162461bcd60e51b815260206004820152601060248201527f5061757361626c653a2070617573656400000000000000000000000000000000604482015260640161116a565b600060075442118015611fb85750600854600a5410155b8015611fdb57506001601c5460ff166002811115611fd857611fd8612a8a565b14155b15611fee57611fe8612468565b50600090565b600754421180156120025750600854600a54105b801561202557506000601c5460ff16600281111561202257612022612a8a565b14155b15612063576040514281527f7b1418b19a03b176f641639ee79855da661fa88a08377ecd32ad6d38152b95369060200160405180910390a150600190565b50601c5460ff1690565b6000612077611fa1565b601c805460ff1916600183600281111561209357612093612a8a565b0217905550600554421180156120ab57506006544211155b80156120cd57506002601c5460ff1660028111156120cb576120cb612a8a565b145b15611fe85750600190565b6000828152602081815260408083206001600160a01b038516845290915290205460ff16610e23576000828152602081815260408083206001600160a01b03851684529091529020805460ff191660011790556121323390565b6001600160a01b0316816001600160a01b0316837f2f8788117e7eff1d82e926ec794901d17c78024a50270940304540a733656f0d60405160405180910390a45050565b6000828152602081815260408083206001600160a01b038516845290915290205460ff1615610e23576000828152602081815260408083206001600160a01b0385168085529252808320805460ff1916905551339285917ff6391f5c32d9c69d2a47ea670b442974b53935d1edc7fd64eb21e047a839171b9190a45050565b6121fd612683565b6002805460ff191690557f5db9ee0a495bf2e6ff9c91a7834c1ba4fdd244a5e8aa4e537bd38aeae4b073aa335b6040516001600160a01b0390911681526020015b60405180910390a1565b6000611cf18284612c41565b600080612260836126d5565b90506000670de0b6b3a76400006122778684612c41565b6122819190612c6f565b95945050505050565b6000611cf18284612c6f565b60405182906000906001600160a01b0383169084908381818185875af1925050503d80600081146122e3576040519150601f19603f3d011682016040523d82523d6000602084013e6122e8565b606091505b50509050806122f657600080fd5b50505050565b6001600160a01b03841660009081526019602090815260408083208684529091528120805483929061232f908490612c2e565b90915550506001600160a01b038416600090815260106020908152604080832086845290915281208054849290612367908490612c2e565b90915550506000838152601860205260408120805484929061238a908490612c2e565b9091555050604080516001600160a01b0386168152602081018590527f1bb460ccaaf70fbacfec17a376f8acbd278c1405590ffcc8ebe4b88daf4f64ad910160405180910390a16001600160a01b03841660009081526014602052604090205460ff166122f6576004805460018181019092557f8a35acfbc15ff81a39ae7d344fd709f28e8600b4aa8c65c6b64bfe7fe36bd19b0180546001600160a01b03871673ffffffffffffffffffffffffffffffffffffffff1990911681179091556000908152601460205260409020805460ff1916909117905550505050565b600f54610100900460ff1615156000036116d65761249a620186a0611209600c54600a5461224890919063ffffffff16565b600d819055600a546124ab91612751565b600b55600f805461010061ff00199091168117909155600254600d546124dd929091046001600160a01b031690612296565b6040514281527ff2460a88147f5180b9df3609a3c66dda39614029da9fdf0b90564b7154374d2f9060200161223e565b612515611f4e565b6002805460ff191660011790557f62e78cea01bee320cd4e420270b5ea74000d11b0c9f74754ebdbfc544b05a25861222a3390565b600081815260156020526040812054600b5490919061257390620186a090611209908590612248565b9050600b5461258d82600e54611ce590919063ffffffff16565b11156125c5576040517fb24d2a1c00000000000000000000000000000000000000000000000000000000815260040160405180910390fd5b80600e60008282546125d79190612c2e565b90915550506003546001600160a01b031660009081526017602052604081208054839290612606908490612c2e565b9091555050505050565b6000828152602081815260408083206001600160a01b038516845290915290205460ff16610e235761264181611cf8565b61264c836020611d0a565b60405160200161265d929190612cb5565b60408051601f198184030181529082905262461bcd60e51b825261116a91600401612d36565b60025460ff166116d65760405162461bcd60e51b815260206004820152601460248201527f5061757361626c653a206e6f7420706175736564000000000000000000000000604482015260640161116a565b600080826001600160a01b031663feaf968c6040518163ffffffff1660e01b815260040160a060405180830381865afa158015612716573d6000803e3d6000fd5b505050506040513d601f19601f8201168201806040525081019061273a9190612d83565b505050915050806402540be400611cf19190612dd3565b6000611cf18284612e1f565b60006020828403121561276f57600080fd5b81357fffffffff0000000000000000000000000000000000000000000000000000000081168114611cf157600080fd5b80356001600160a01b03811681146127b657600080fd5b919050565b600080604083850312156127ce57600080fd5b6127d78361279f565b946020939093013593505050565b634e487b7160e01b600052604160045260246000fd5b6040805190810167ffffffffffffffff8111828210171561281e5761281e6127e5565b60405290565b604051601f8201601f1916810167ffffffffffffffff8111828210171561284d5761284d6127e5565b604052919050565b600067ffffffffffffffff82111561286f5761286f6127e5565b5060051b60200190565b600061288c61288784612855565b612824565b8381529050602080820190600685901b8401868111156128ab57600080fd5b845b818110156128e857604081890312156128c65760008081fd5b6128ce6127fb565b8135815283820135848201528452928201926040016128ad565b505050509392505050565b60006020828403121561290557600080fd5b813567ffffffffffffffff81111561291c57600080fd5b8201601f8101841361292d57600080fd5b61293c84823560208401612879565b949350505050565b6000602080838503121561295757600080fd5b823567ffffffffffffffff81111561296e57600080fd5b8301601f8101851361297f57600080fd5b803561298d61288782612855565b81815260059190911b820183019083810190878311156129ac57600080fd5b928401925b828410156129ca578335825292840192908401906129b1565b979650505050505050565b6000602082840312156129e757600080fd5b5035919050565b60008060408385031215612a0157600080fd5b82359150612a116020840161279f565b90509250929050565b60008060408385031215612a2d57600080fd5b50508035926020909101359150565b600080600060608486031215612a5157600080fd5b612a5a8461279f565b95602085013595506040909401359392505050565b600060208284031215612a8157600080fd5b611cf18261279f565b634e487b7160e01b600052602160045260246000fd5b6020810160038310612ac257634e487b7160e01b600052602160045260246000fd5b91905290565b600060208284031215612ada57600080fd5b813560028110611cf157600080fd5b6020808252825182820181905260009190848201906040850190845b81811015612b2a5783516001600160a01b031683529284019291840191600101612b05565b50909695505050505050565b60006020808385031215612b4957600080fd5b823567ffffffffffffffff811115612b6057600080fd5b8301601f81018513612b7157600080fd5b8035612b7f61288782612855565b81815260069190911b82018301908381019087831115612b9e57600080fd5b928401925b828410156129ca5760408489031215612bbc5760008081fd5b612bc46127fb565b84358152612bd386860161279f565b8187015282526040939093019290840190612ba3565b634e487b7160e01b600052603260045260246000fd5b634e487b7160e01b600052601160045260246000fd5b600060018201612c2757612c27612bff565b5060010190565b80820180821115610b3a57610b3a612bff565b8082028115828204841417610b3a57610b3a612bff565b600081612c6757612c67612bff565b506000190190565b600082612c8c57634e487b7160e01b600052601260045260246000fd5b500490565b60005b83811015612cac578181015183820152602001612c94565b50506000910152565b7f416363657373436f6e74726f6c3a206163636f756e7420000000000000000000815260008351612ced816017850160208801612c91565b7f206973206d697373696e6720726f6c65200000000000000000000000000000006017918401918201528351612d2a816028840160208801612c91565b01602801949350505050565b6020815260008251806020840152612d55816040850160208701612c91565b601f01601f19169190910160400192915050565b805169ffffffffffffffffffff811681146127b657600080fd5b600080600080600060a08688031215612d9b57600080fd5b612da486612d69565b9450602086015193506040860151925060608601519150612dc760808701612d69565b90509295509295909350565b808202600082127f800000000000000000000000000000000000000000000000000000000000000084141615612e0b57612e0b612bff565b8181058314821517610b3a57610b3a612bff565b81810381811115610b3a57610b3a612bff56fe241ecf16d79d0f8dbfb92cbc07fe17840425976cf0667f022fe9877caa831b08a2646970667358221220f14499167cc4e2762a8ade4a30ef60745c5bf76bcc5762b6c8c62afd16d8878164736f6c63430008110033241ecf16d79d0f8dbfb92cbc07fe17840425976cf0667f022fe9877caa831b08",
  "devdoc": {
    "custom:security-contact": "hello@moat.com",
    "details": "This implements ERC-721 NFT as the rewards (NFT perks) to be minted to the funders.",
    "kind": "dev",
    "methods": {
      "approveMilestoneAndReleaseFund(uint256)": {
        "details": "milestone can be approved in any order",
        "params": {
          "_milestoneNumber": "the milestone to be approved"
        }
      },
      "claimNft(uint256)": {
        "details": "NFT with tokenId = _tier is transfer to the connected wallet",
        "params": {
          "_tier": "funding category"
        }
      },
      "claimNftFor(address,uint256)": {
        "details": "Claim NFT for another _funder. NFT with tokenId = _tier is transfer to the _funder",
        "params": {
          "_funder": "the funder address",
          "_tier": "funding category"
        }
      },
      "claimRefund(uint256)": {
        "details": "Claim a refund for the connected wallet",
        "params": {
          "_tier": "funding category"
        }
      },
      "claimRefundFor(address,uint256)": {
        "details": "Claim a refund on behalf of a funder",
        "params": {
          "_funder": "the funder address",
          "_tier": "funding category"
        }
      },
      "closeFundingRound(uint8)": {
        "details": "reason for closing the campaign is required",
        "params": {
          "_reasonForEnding": "enum only accepts TARGETMET or FAILURE"
        }
      },
      "contribute(uint256,uint256)": {
        "details": "only accepts ERC-20 deposit when campaign is open",
        "params": {
          "_quantity": "number of tiers",
          "_tier": "funding category"
        }
      },
      "contributeOnBehalfOf(address,uint256,uint256)": {
        "details": "only accepts ERC-20 deposit when campaign is open",
        "params": {
          "_funder": "the contributor address",
          "_quantity": "number of tiers",
          "_tier": "funding category"
        }
      },
      "getBusinessBalance()": {
        "details": "returns the balance of the business address"
      },
      "getFundersAddresses()": {
        "details": "returns the array of all funder addresses"
      },
      "getOneNativeCoinRate(uint256,uint256)": {
        "params": {
          "_quantity": "number of tiers",
          "_tier": "funding category"
        }
      },
      "getQuantityOfTierBought(uint256)": {
        "details": "returns the quantities of tier perks bought so far",
        "params": {
          "_tier": "funding or perks category"
        }
      },
      "getRoleAdmin(bytes32)": {
        "details": "Returns the admin role that controls `role`. See {grantRole} and {revokeRole}. To change a role's admin, use {_setRoleAdmin}."
      },
      "getTierPrice(uint256)": {
        "details": "returns the price of a given tier",
        "params": {
          "_tier": "funding or perks category"
        }
      },
      "grantRole(bytes32,address)": {
        "details": "Grants `role` to `account`. If `account` had not been already granted `role`, emits a {RoleGranted} event. Requirements: - the caller must have ``role``'s admin role. May emit a {RoleGranted} event."
      },
      "hasRole(bytes32,address)": {
        "details": "Returns `true` if `account` has been granted `role`."
      },
      "pause()": {
        "details": "Pauses the contract"
      },
      "paused()": {
        "details": "Returns true if the contract is paused, and false otherwise."
      },
      "renounceRole(bytes32,address)": {
        "details": "Revokes `role` from the calling account. Roles are often managed via {grantRole} and {revokeRole}: this function's purpose is to provide a mechanism for accounts to lose their privileges if they are compromised (such as when a trusted device is misplaced). If the calling account had been revoked `role`, emits a {RoleRevoked} event. Requirements: - the caller must be `account`. May emit a {RoleRevoked} event."
      },
      "revokeRole(bytes32,address)": {
        "details": "Revokes `role` from `account`. If `account` had been granted `role`, emits a {RoleRevoked} event. Requirements: - the caller must have ``role``'s admin role. May emit a {RoleRevoked} event."
      },
      "setBusinessAddress(address)": {
        "details": "Set the wallet address of the business raising fund through this contract"
      },
      "setCampaignAndDecisionPeriod(uint256[])": {
        "params": {
          "_campaignTimesAndDecision": "array of length 3."
        }
      },
      "setFundingTiersAndCosts((uint256,uint256)[])": {
        "details": "sets the available tiers and their corresponding prices"
      },
      "setMOATFee(uint256)": {
        "params": {
          "_feeFraction": "e.g 5% => 5 * (10**5) / 100 = 5000"
        }
      },
      "setMilestones((uint256,uint256)[])": {
        "details": "sets the milestones"
      },
      "setNftPerkContracts((uint256,address)[])": {
        "details": "sets the NFT perks contracts"
      },
      "setTargetAmounts(uint256[])": {
        "params": {
          "_amountsToBeRaised": "array of length 2."
        }
      },
      "setTreasuryAddress(address)": {
        "details": "sets the MOAT treasury address"
      },
      "supportsInterface(bytes4)": {
        "details": "See {IERC165-supportsInterface}."
      },
      "unpause()": {
        "details": "Unpauses the contract"
      },
      "withdrawFundRaised()": {
        "details": "Only the authorised business wallet can withdraw"
      }
    },
    "title": "MOAT Crowd-funding Contract",
    "version": 1
  },
  "userdoc": {
    "kind": "user",
    "methods": {
      "approveMilestoneAndReleaseFund(uint256)": {
        "notice": "Manager role can approve the milestones at any time"
      },
      "claimNft(uint256)": {
        "notice": "The funders can claim NFT perks when the campaign is successful"
      },
      "claimNftFor(address,uint256)": {
        "notice": "The funders can claim NFT perks when the campaign is successful"
      },
      "claimRefund(uint256)": {
        "notice": "The funders can claim refund only when the campaign failed"
      },
      "claimRefundFor(address,uint256)": {
        "notice": "The funders can claim refund only when the campaign failed"
      },
      "closeFundingRound(uint8)": {
        "notice": "Manager role can close the funding round before the decision time passed"
      },
      "contribute(uint256,uint256)": {
        "notice": "Contribute fund from the connected wallet for the open campaign"
      },
      "contributeOnBehalfOf(address,uint256,uint256)": {
        "notice": "Contribute fund on behalf of another address for the open campaign."
      },
      "getOneNativeCoinRate(uint256,uint256)": {
        "notice": "Returns the equivalent amount of a token in native coin (eg. Eth, Matic)"
      },
      "withdrawFundRaised()": {
        "notice": "Funds are released to the authorised business wallet based on the milestone schedule."
      }
    },
    "notice": "This contract is for crowd-funding a business by interested parties and to release funds to the business in a transparent but monitored way. Rewards, in form of NFTs are distributed to funders after the funding round has been declared successful.",
    "version": 1
  },
  "storageLayout": {
    "storage": [
      {
        "astId": 70,
        "contract": "contracts/FundABusiness.sol:FundABusiness",
        "label": "_roles",
        "offset": 0,
        "slot": "0",
        "type": "t_mapping(t_bytes32,t_struct(RoleData)65_storage)"
      },
      {
        "astId": 553,
        "contract": "contracts/FundABusiness.sol:FundABusiness",
        "label": "_status",
        "offset": 0,
        "slot": "1",
        "type": "t_uint256"
      },
      {
        "astId": 452,
        "contract": "contracts/FundABusiness.sol:FundABusiness",
        "label": "_paused",
        "offset": 0,
        "slot": "2",
        "type": "t_bool"
      },
      {
        "astId": 3079,
        "contract": "contracts/FundABusiness.sol:FundABusiness",
        "label": "treasuryAddress",
        "offset": 1,
        "slot": "2",
        "type": "t_address"
      },
      {
        "astId": 3081,
        "contract": "contracts/FundABusiness.sol:FundABusiness",
        "label": "businessAddress",
        "offset": 0,
        "slot": "3",
        "type": "t_address"
      },
      {
        "astId": 3084,
        "contract": "contracts/FundABusiness.sol:FundABusiness",
        "label": "fundersAddresses",
        "offset": 0,
        "slot": "4",
        "type": "t_array(t_address)dyn_storage"
      },
      {
        "astId": 3086,
        "contract": "contracts/FundABusiness.sol:FundABusiness",
        "label": "campaignStartTime",
        "offset": 0,
        "slot": "5",
        "type": "t_uint256"
      },
      {
        "astId": 3088,
        "contract": "contracts/FundABusiness.sol:FundABusiness",
        "label": "campaignEndTime",
        "offset": 0,
        "slot": "6",
        "type": "t_uint256"
      },
      {
        "astId": 3090,
        "contract": "contracts/FundABusiness.sol:FundABusiness",
        "label": "campaignDecisionTime",
        "offset": 0,
        "slot": "7",
        "type": "t_uint256"
      },
      {
        "astId": 3092,
        "contract": "contracts/FundABusiness.sol:FundABusiness",
        "label": "minTargetAmount",
        "offset": 0,
        "slot": "8",
        "type": "t_uint256"
      },
      {
        "astId": 3094,
        "contract": "contracts/FundABusiness.sol:FundABusiness",
        "label": "targetAmount",
        "offset": 0,
        "slot": "9",
        "type": "t_uint256"
      },
      {
        "astId": 3096,
        "contract": "contracts/FundABusiness.sol:FundABusiness",
        "label": "fundRaised",
        "offset": 0,
        "slot": "10",
        "type": "t_uint256"
      },
      {
        "astId": 3098,
        "contract": "contracts/FundABusiness.sol:FundABusiness",
        "label": "fundRaisedMinusFee",
        "offset": 0,
        "slot": "11",
        "type": "t_uint256"
      },
      {
        "astId": 3100,
        "contract": "contracts/FundABusiness.sol:FundABusiness",
        "label": "moatFeeNumerator",
        "offset": 0,
        "slot": "12",
        "type": "t_uint256"
      },
      {
        "astId": 3102,
        "contract": "contracts/FundABusiness.sol:FundABusiness",
        "label": "moatFee",
        "offset": 0,
        "slot": "13",
        "type": "t_uint256"
      },
      {
        "astId": 3104,
        "contract": "contracts/FundABusiness.sol:FundABusiness",
        "label": "cumFundReleased",
        "offset": 0,
        "slot": "14",
        "type": "t_uint256"
      },
      {
        "astId": 3107,
        "contract": "contracts/FundABusiness.sol:FundABusiness",
        "label": "areNftTokensSet",
        "offset": 0,
        "slot": "15",
        "type": "t_bool"
      },
      {
        "astId": 3110,
        "contract": "contracts/FundABusiness.sol:FundABusiness",
        "label": "isFeeTaken",
        "offset": 1,
        "slot": "15",
        "type": "t_bool"
      },
      {
        "astId": 3113,
        "contract": "contracts/FundABusiness.sol:FundABusiness",
        "label": "priceFeed",
        "offset": 2,
        "slot": "15",
        "type": "t_contract(AggregatorV3Interface)45"
      },
      {
        "astId": 3119,
        "contract": "contracts/FundABusiness.sol:FundABusiness",
        "label": "tierBalanceOf",
        "offset": 0,
        "slot": "16",
        "type": "t_mapping(t_address,t_mapping(t_uint256,t_uint256))"
      },
      {
        "astId": 3123,
        "contract": "contracts/FundABusiness.sol:FundABusiness",
        "label": "tierCost",
        "offset": 0,
        "slot": "17",
        "type": "t_mapping(t_uint256,t_uint256)"
      },
      {
        "astId": 3128,
        "contract": "contracts/FundABusiness.sol:FundABusiness",
        "label": "nftContractOf",
        "offset": 0,
        "slot": "18",
        "type": "t_mapping(t_uint256,t_contract(INftPerks)4927)"
      },
      {
        "astId": 3134,
        "contract": "contracts/FundABusiness.sol:FundABusiness",
        "label": "hasClaimedNft",
        "offset": 0,
        "slot": "19",
        "type": "t_mapping(t_address,t_mapping(t_uint256,t_bool))"
      },
      {
        "astId": 3138,
        "contract": "contracts/FundABusiness.sol:FundABusiness",
        "label": "isAFunder",
        "offset": 0,
        "slot": "20",
        "type": "t_mapping(t_address,t_bool)"
      },
      {
        "astId": 3142,
        "contract": "contracts/FundABusiness.sol:FundABusiness",
        "label": "fractionOfMilestone",
        "offset": 0,
        "slot": "21",
        "type": "t_mapping(t_uint256,t_uint256)"
      },
      {
        "astId": 3146,
        "contract": "contracts/FundABusiness.sol:FundABusiness",
        "label": "isMilestoneApproved",
        "offset": 0,
        "slot": "22",
        "type": "t_mapping(t_uint256,t_bool)"
      },
      {
        "astId": 3150,
        "contract": "contracts/FundABusiness.sol:FundABusiness",
        "label": "businessBalance",
        "offset": 0,
        "slot": "23",
        "type": "t_mapping(t_address,t_uint256)"
      },
      {
        "astId": 3154,
        "contract": "contracts/FundABusiness.sol:FundABusiness",
        "label": "quantityOfTierBought",
        "offset": 0,
        "slot": "24",
        "type": "t_mapping(t_uint256,t_uint256)"
      },
      {
        "astId": 3160,
        "contract": "contracts/FundABusiness.sol:FundABusiness",
        "label": "nativeCoinContributedBy",
        "offset": 0,
        "slot": "25",
        "type": "t_mapping(t_address,t_mapping(t_uint256,t_uint256))"
      },
      {
        "astId": 3164,
        "contract": "contracts/FundABusiness.sol:FundABusiness",
        "label": "fundingTiersCosts",
        "offset": 0,
        "slot": "26",
        "type": "t_array(t_struct(FundingTierCost)4640_storage)dyn_storage"
      },
      {
        "astId": 3168,
        "contract": "contracts/FundABusiness.sol:FundABusiness",
        "label": "nftTierContracts",
        "offset": 0,
        "slot": "27",
        "type": "t_array(t_struct(NftTierContract)4645_storage)dyn_storage"
      },
      {
        "astId": 3171,
        "contract": "contracts/FundABusiness.sol:FundABusiness",
        "label": "verdict",
        "offset": 0,
        "slot": "28",
        "type": "t_enum(CampaignState)4654"
      },
      {
        "astId": 3174,
        "contract": "contracts/FundABusiness.sol:FundABusiness",
        "label": "reasonForEnding",
        "offset": 1,
        "slot": "28",
        "type": "t_enum(EndCampaign)4657"
      }
    ],
    "types": {
      "t_address": {
        "encoding": "inplace",
        "label": "address",
        "numberOfBytes": "20"
      },
      "t_array(t_address)dyn_storage": {
        "base": "t_address",
        "encoding": "dynamic_array",
        "label": "address[]",
        "numberOfBytes": "32"
      },
      "t_array(t_struct(FundingTierCost)4640_storage)dyn_storage": {
        "base": "t_struct(FundingTierCost)4640_storage",
        "encoding": "dynamic_array",
        "label": "struct IFundABusiness.FundingTierCost[]",
        "numberOfBytes": "32"
      },
      "t_array(t_struct(NftTierContract)4645_storage)dyn_storage": {
        "base": "t_struct(NftTierContract)4645_storage",
        "encoding": "dynamic_array",
        "label": "struct IFundABusiness.NftTierContract[]",
        "numberOfBytes": "32"
      },
      "t_bool": {
        "encoding": "inplace",
        "label": "bool",
        "numberOfBytes": "1"
      },
      "t_bytes32": {
        "encoding": "inplace",
        "label": "bytes32",
        "numberOfBytes": "32"
      },
      "t_contract(AggregatorV3Interface)45": {
        "encoding": "inplace",
        "label": "contract AggregatorV3Interface",
        "numberOfBytes": "20"
      },
      "t_contract(INftPerks)4927": {
        "encoding": "inplace",
        "label": "contract INftPerks",
        "numberOfBytes": "20"
      },
      "t_enum(CampaignState)4654": {
        "encoding": "inplace",
        "label": "enum IFundABusiness.CampaignState",
        "numberOfBytes": "1"
      },
      "t_enum(EndCampaign)4657": {
        "encoding": "inplace",
        "label": "enum IFundABusiness.EndCampaign",
        "numberOfBytes": "1"
      },
      "t_mapping(t_address,t_bool)": {
        "encoding": "mapping",
        "key": "t_address",
        "label": "mapping(address => bool)",
        "numberOfBytes": "32",
        "value": "t_bool"
      },
      "t_mapping(t_address,t_mapping(t_uint256,t_bool))": {
        "encoding": "mapping",
        "key": "t_address",
        "label": "mapping(address => mapping(uint256 => bool))",
        "numberOfBytes": "32",
        "value": "t_mapping(t_uint256,t_bool)"
      },
      "t_mapping(t_address,t_mapping(t_uint256,t_uint256))": {
        "encoding": "mapping",
        "key": "t_address",
        "label": "mapping(address => mapping(uint256 => uint256))",
        "numberOfBytes": "32",
        "value": "t_mapping(t_uint256,t_uint256)"
      },
      "t_mapping(t_address,t_uint256)": {
        "encoding": "mapping",
        "key": "t_address",
        "label": "mapping(address => uint256)",
        "numberOfBytes": "32",
        "value": "t_uint256"
      },
      "t_mapping(t_bytes32,t_struct(RoleData)65_storage)": {
        "encoding": "mapping",
        "key": "t_bytes32",
        "label": "mapping(bytes32 => struct AccessControl.RoleData)",
        "numberOfBytes": "32",
        "value": "t_struct(RoleData)65_storage"
      },
      "t_mapping(t_uint256,t_bool)": {
        "encoding": "mapping",
        "key": "t_uint256",
        "label": "mapping(uint256 => bool)",
        "numberOfBytes": "32",
        "value": "t_bool"
      },
      "t_mapping(t_uint256,t_contract(INftPerks)4927)": {
        "encoding": "mapping",
        "key": "t_uint256",
        "label": "mapping(uint256 => contract INftPerks)",
        "numberOfBytes": "32",
        "value": "t_contract(INftPerks)4927"
      },
      "t_mapping(t_uint256,t_uint256)": {
        "encoding": "mapping",
        "key": "t_uint256",
        "label": "mapping(uint256 => uint256)",
        "numberOfBytes": "32",
        "value": "t_uint256"
      },
      "t_struct(FundingTierCost)4640_storage": {
        "encoding": "inplace",
        "label": "struct IFundABusiness.FundingTierCost",
        "members": [
          {
            "astId": 4637,
            "contract": "contracts/FundABusiness.sol:FundABusiness",
            "label": "fundingTier",
            "offset": 0,
            "slot": "0",
            "type": "t_uint256"
          },
          {
            "astId": 4639,
            "contract": "contracts/FundABusiness.sol:FundABusiness",
            "label": "tierCost",
            "offset": 0,
            "slot": "1",
            "type": "t_uint256"
          }
        ],
        "numberOfBytes": "64"
      },
      "t_struct(NftTierContract)4645_storage": {
        "encoding": "inplace",
        "label": "struct IFundABusiness.NftTierContract",
        "members": [
          {
            "astId": 4642,
            "contract": "contracts/FundABusiness.sol:FundABusiness",
            "label": "fundingTier",
            "offset": 0,
            "slot": "0",
            "type": "t_uint256"
          },
          {
            "astId": 4644,
            "contract": "contracts/FundABusiness.sol:FundABusiness",
            "label": "nftTokenAddress",
            "offset": 0,
            "slot": "1",
            "type": "t_address"
          }
        ],
        "numberOfBytes": "64"
      },
      "t_struct(RoleData)65_storage": {
        "encoding": "inplace",
        "label": "struct AccessControl.RoleData",
        "members": [
          {
            "astId": 62,
            "contract": "contracts/FundABusiness.sol:FundABusiness",
            "label": "members",
            "offset": 0,
            "slot": "0",
            "type": "t_mapping(t_address,t_bool)"
          },
          {
            "astId": 64,
            "contract": "contracts/FundABusiness.sol:FundABusiness",
            "label": "adminRole",
            "offset": 0,
            "slot": "1",
            "type": "t_bytes32"
          }
        ],
        "numberOfBytes": "64"
      },
      "t_uint256": {
        "encoding": "inplace",
        "label": "uint256",
        "numberOfBytes": "32"
      }
    }
  }
}