{
  "address": "0x0DCd1Bf9A1b36cE34237eEaFef220932846BCD82",
  "abi": [
    {
      "inputs": [
        {
          "internalType": "string",
          "name": "_tierName",
          "type": "string"
        },
        {
          "internalType": "string",
          "name": "_tierSymbol",
          "type": "string"
        },
        {
          "internalType": "uint256",
          "name": "_maxSupply",
          "type": "uint256"
        },
        {
          "internalType": "address",
          "name": "_receiver",
          "type": "address"
        },
        {
          "internalType": "uint256",
          "name": "_royaltyFee",
          "type": "uint256"
        }
      ],
      "stateMutability": "nonpayable",
      "type": "constructor"
    },
    {
      "inputs": [],
      "name": "InvalidValue",
      "type": "error"
    },
    {
      "inputs": [],
      "name": "MaxSupplyReached",
      "type": "error"
    },
    {
      "inputs": [],
      "name": "NonexistentToken",
      "type": "error"
    },
    {
      "inputs": [],
      "name": "TokenUriNotSet",
      "type": "error"
    },
    {
      "anonymous": false,
      "inputs": [
        {
          "indexed": true,
          "internalType": "address",
          "name": "owner",
          "type": "address"
        },
        {
          "indexed": true,
          "internalType": "address",
          "name": "approved",
          "type": "address"
        },
        {
          "indexed": true,
          "internalType": "uint256",
          "name": "tokenId",
          "type": "uint256"
        }
      ],
      "name": "Approval",
      "type": "event"
    },
    {
      "anonymous": false,
      "inputs": [
        {
          "indexed": true,
          "internalType": "address",
          "name": "owner",
          "type": "address"
        },
        {
          "indexed": true,
          "internalType": "address",
          "name": "operator",
          "type": "address"
        },
        {
          "indexed": false,
          "internalType": "bool",
          "name": "approved",
          "type": "bool"
        }
      ],
      "name": "ApprovalForAll",
      "type": "event"
    },
    {
      "anonymous": false,
      "inputs": [
        {
          "indexed": true,
          "internalType": "uint256",
          "name": "tokenId",
          "type": "uint256"
        },
        {
          "indexed": false,
          "internalType": "address",
          "name": "to",
          "type": "address"
        }
      ],
      "name": "NFTMinted",
      "type": "event"
    },
    {
      "anonymous": false,
      "inputs": [
        {
          "indexed": true,
          "internalType": "bytes32",
          "name": "role",
          "type": "bytes32"
        },
        {
          "indexed": true,
          "internalType": "bytes32",
          "name": "previousAdminRole",
          "type": "bytes32"
        },
        {
          "indexed": true,
          "internalType": "bytes32",
          "name": "newAdminRole",
          "type": "bytes32"
        }
      ],
      "name": "RoleAdminChanged",
      "type": "event"
    },
    {
      "anonymous": false,
      "inputs": [
        {
          "indexed": true,
          "internalType": "bytes32",
          "name": "role",
          "type": "bytes32"
        },
        {
          "indexed": true,
          "internalType": "address",
          "name": "account",
          "type": "address"
        },
        {
          "indexed": true,
          "internalType": "address",
          "name": "sender",
          "type": "address"
        }
      ],
      "name": "RoleGranted",
      "type": "event"
    },
    {
      "anonymous": false,
      "inputs": [
        {
          "indexed": true,
          "internalType": "bytes32",
          "name": "role",
          "type": "bytes32"
        },
        {
          "indexed": true,
          "internalType": "address",
          "name": "account",
          "type": "address"
        },
        {
          "indexed": true,
          "internalType": "address",
          "name": "sender",
          "type": "address"
        }
      ],
      "name": "RoleRevoked",
      "type": "event"
    },
    {
      "anonymous": false,
      "inputs": [
        {
          "indexed": true,
          "internalType": "address",
          "name": "from",
          "type": "address"
        },
        {
          "indexed": true,
          "internalType": "address",
          "name": "to",
          "type": "address"
        },
        {
          "indexed": true,
          "internalType": "uint256",
          "name": "tokenId",
          "type": "uint256"
        }
      ],
      "name": "Transfer",
      "type": "event"
    },
    {
      "anonymous": false,
      "inputs": [
        {
          "indexed": false,
          "internalType": "string",
          "name": "value",
          "type": "string"
        }
      ],
      "name": "UriUpdated",
      "type": "event"
    },
    {
      "inputs": [],
      "name": "DEFAULT_ADMIN_ROLE",
      "outputs": [
        {
          "internalType": "bytes32",
          "name": "",
          "type": "bytes32"
        }
      ],
      "stateMutability": "view",
      "type": "function"
    },
    {
      "inputs": [],
      "name": "MANAGER_ROLE",
      "outputs": [
        {
          "internalType": "bytes32",
          "name": "",
          "type": "bytes32"
        }
      ],
      "stateMutability": "view",
      "type": "function"
    },
    {
      "inputs": [],
      "name": "MINTER_ROLE",
      "outputs": [
        {
          "internalType": "bytes32",
          "name": "",
          "type": "bytes32"
        }
      ],
      "stateMutability": "view",
      "type": "function"
    },
    {
      "inputs": [
        {
          "internalType": "address",
          "name": "to",
          "type": "address"
        },
        {
          "internalType": "uint256",
          "name": "tokenId",
          "type": "uint256"
        }
      ],
      "name": "approve",
      "outputs": [],
      "stateMutability": "nonpayable",
      "type": "function"
    },
    {
      "inputs": [
        {
          "internalType": "address",
          "name": "owner",
          "type": "address"
        }
      ],
      "name": "balanceOf",
      "outputs": [
        {
          "internalType": "uint256",
          "name": "",
          "type": "uint256"
        }
      ],
      "stateMutability": "view",
      "type": "function"
    },
    {
      "inputs": [
        {
          "internalType": "uint256",
          "name": "tokenId",
          "type": "uint256"
        }
      ],
      "name": "getApproved",
      "outputs": [
        {
          "internalType": "address",
          "name": "",
          "type": "address"
        }
      ],
      "stateMutability": "view",
      "type": "function"
    },
    {
      "inputs": [
        {
          "internalType": "bytes32",
          "name": "role",
          "type": "bytes32"
        }
      ],
      "name": "getRoleAdmin",
      "outputs": [
        {
          "internalType": "bytes32",
          "name": "",
          "type": "bytes32"
        }
      ],
      "stateMutability": "view",
      "type": "function"
    },
    {
      "inputs": [
        {
          "internalType": "bytes32",
          "name": "role",
          "type": "bytes32"
        },
        {
          "internalType": "address",
          "name": "account",
          "type": "address"
        }
      ],
      "name": "grantRole",
      "outputs": [],
      "stateMutability": "nonpayable",
      "type": "function"
    },
    {
      "inputs": [],
      "name": "hasReachedCap",
      "outputs": [
        {
          "internalType": "bool",
          "name": "",
          "type": "bool"
        }
      ],
      "stateMutability": "view",
      "type": "function"
    },
    {
      "inputs": [
        {
          "internalType": "bytes32",
          "name": "role",
          "type": "bytes32"
        },
        {
          "internalType": "address",
          "name": "account",
          "type": "address"
        }
      ],
      "name": "hasRole",
      "outputs": [
        {
          "internalType": "bool",
          "name": "",
          "type": "bool"
        }
      ],
      "stateMutability": "view",
      "type": "function"
    },
    {
      "inputs": [
        {
          "internalType": "address",
          "name": "owner",
          "type": "address"
        },
        {
          "internalType": "address",
          "name": "operator",
          "type": "address"
        }
      ],
      "name": "isApprovedForAll",
      "outputs": [
        {
          "internalType": "bool",
          "name": "",
          "type": "bool"
        }
      ],
      "stateMutability": "view",
      "type": "function"
    },
    {
      "inputs": [],
      "name": "isTokenUriSet",
      "outputs": [
        {
          "internalType": "bool",
          "name": "",
          "type": "bool"
        }
      ],
      "stateMutability": "view",
      "type": "function"
    },
    {
      "inputs": [],
      "name": "maxSupply",
      "outputs": [
        {
          "internalType": "uint256",
          "name": "",
          "type": "uint256"
        }
      ],
      "stateMutability": "view",
      "type": "function"
    },
    {
      "inputs": [
        {
          "internalType": "address",
          "name": "_to",
          "type": "address"
        }
      ],
      "name": "mintNft",
      "outputs": [],
      "stateMutability": "nonpayable",
      "type": "function"
    },
    {
      "inputs": [],
      "name": "name",
      "outputs": [
        {
          "internalType": "string",
          "name": "",
          "type": "string"
        }
      ],
      "stateMutability": "view",
      "type": "function"
    },
    {
      "inputs": [
        {
          "internalType": "uint256",
          "name": "tokenId",
          "type": "uint256"
        }
      ],
      "name": "ownerOf",
      "outputs": [
        {
          "internalType": "address",
          "name": "",
          "type": "address"
        }
      ],
      "stateMutability": "view",
      "type": "function"
    },
    {
      "inputs": [
        {
          "internalType": "bytes32",
          "name": "role",
          "type": "bytes32"
        },
        {
          "internalType": "address",
          "name": "account",
          "type": "address"
        }
      ],
      "name": "renounceRole",
      "outputs": [],
      "stateMutability": "nonpayable",
      "type": "function"
    },
    {
      "inputs": [
        {
          "internalType": "bytes32",
          "name": "role",
          "type": "bytes32"
        },
        {
          "internalType": "address",
          "name": "account",
          "type": "address"
        }
      ],
      "name": "revokeRole",
      "outputs": [],
      "stateMutability": "nonpayable",
      "type": "function"
    },
    {
      "inputs": [
        {
          "internalType": "uint256",
          "name": "",
          "type": "uint256"
        },
        {
          "internalType": "uint256",
          "name": "_salePrice",
          "type": "uint256"
        }
      ],
      "name": "royaltyInfo",
      "outputs": [
        {
          "internalType": "address",
          "name": "receiver",
          "type": "address"
        },
        {
          "internalType": "uint256",
          "name": "royaltyAmount",
          "type": "uint256"
        }
      ],
      "stateMutability": "view",
      "type": "function"
    },
    {
      "inputs": [
        {
          "internalType": "address",
          "name": "from",
          "type": "address"
        },
        {
          "internalType": "address",
          "name": "to",
          "type": "address"
        },
        {
          "internalType": "uint256",
          "name": "tokenId",
          "type": "uint256"
        }
      ],
      "name": "safeTransferFrom",
      "outputs": [],
      "stateMutability": "nonpayable",
      "type": "function"
    },
    {
      "inputs": [
        {
          "internalType": "address",
          "name": "from",
          "type": "address"
        },
        {
          "internalType": "address",
          "name": "to",
          "type": "address"
        },
        {
          "internalType": "uint256",
          "name": "tokenId",
          "type": "uint256"
        },
        {
          "internalType": "bytes",
          "name": "data",
          "type": "bytes"
        }
      ],
      "name": "safeTransferFrom",
      "outputs": [],
      "stateMutability": "nonpayable",
      "type": "function"
    },
    {
      "inputs": [
        {
          "internalType": "address",
          "name": "operator",
          "type": "address"
        },
        {
          "internalType": "bool",
          "name": "approved",
          "type": "bool"
        }
      ],
      "name": "setApprovalForAll",
      "outputs": [],
      "stateMutability": "nonpayable",
      "type": "function"
    },
    {
      "inputs": [
        {
          "internalType": "address",
          "name": "_recipient",
          "type": "address"
        },
        {
          "internalType": "uint256",
          "name": "_royaltyFee",
          "type": "uint256"
        }
      ],
      "name": "setRoyalties",
      "outputs": [],
      "stateMutability": "nonpayable",
      "type": "function"
    },
    {
      "inputs": [
        {
          "internalType": "string",
          "name": "tokenURI_",
          "type": "string"
        }
      ],
      "name": "setTokenURI",
      "outputs": [],
      "stateMutability": "nonpayable",
      "type": "function"
    },
    {
      "inputs": [
        {
          "internalType": "bytes4",
          "name": "interfaceId",
          "type": "bytes4"
        }
      ],
      "name": "supportsInterface",
      "outputs": [
        {
          "internalType": "bool",
          "name": "",
          "type": "bool"
        }
      ],
      "stateMutability": "view",
      "type": "function"
    },
    {
      "inputs": [],
      "name": "symbol",
      "outputs": [
        {
          "internalType": "string",
          "name": "",
          "type": "string"
        }
      ],
      "stateMutability": "view",
      "type": "function"
    },
    {
      "inputs": [],
      "name": "tokenId",
      "outputs": [
        {
          "internalType": "uint256",
          "name": "",
          "type": "uint256"
        }
      ],
      "stateMutability": "view",
      "type": "function"
    },
    {
      "inputs": [
        {
          "internalType": "uint256",
          "name": "_tokenId",
          "type": "uint256"
        }
      ],
      "name": "tokenURI",
      "outputs": [
        {
          "internalType": "string",
          "name": "",
          "type": "string"
        }
      ],
      "stateMutability": "view",
      "type": "function"
    },
    {
      "inputs": [
        {
          "internalType": "address",
          "name": "from",
          "type": "address"
        },
        {
          "internalType": "address",
          "name": "to",
          "type": "address"
        },
        {
          "internalType": "uint256",
          "name": "tokenId",
          "type": "uint256"
        }
      ],
      "name": "transferFrom",
      "outputs": [],
      "stateMutability": "nonpayable",
      "type": "function"
    }
  ],
  "transactionHash": "0x770739ddbae8de643541f931c850ae90878b9acee0512d3f878dd7eeb1387b1b",
  "args": [
    "TIER3",
    "TIER3",
    100,
    "0x3C44CdDdB6a900fa2b585dd299e03d12FA4293BC",
    2500
  ],
  "numDeployments": 3,
  "solcInputHash": "fee0e92db780ea314d589baf49febe24",
  "bytecode": "0x60c0604052600060a09081526007906200001a908262000517565b503480156200002857600080fd5b50604051620029ec380380620029ec8339810160408190526200004b916200069a565b848460006200005b838262000517565b5060016200006a828262000517565b506200007c91506000905033620000dd565b620000a87f9f2df0fed2c77648de5860a4cc508cd0818c85b8b8a1ab4ceeef8d981c8956a633620000dd565b620000c3600080516020620029cc83398151915233620000dd565b620000cf828262000168565b505060805250620008679050565b620000e98282620001e2565b620001645760008281526006602090815260408083206001600160a01b03851684529091529020805460ff19166001179055620001233390565b6001600160a01b0316816001600160a01b0316837f2f8788117e7eff1d82e926ec794901d17c78024a50270940304540a733656f0d60405160405180910390a45b5050565b600080516020620029cc83398151915262000183816200020f565b620186a0821115620001a857604051632a9ffab760e21b815260040160405180910390fd5b50604080518082019091526001600160a01b039092168083526020909201819052600a80546001600160a01b031916909217909155600b55565b60008281526006602090815260408083206001600160a01b038516845290915290205460ff165b92915050565b6200021b81336200021e565b50565b6200022a8282620001e2565b620001645762000245816200029f60201b62000da61760201c565b6200025b83602062000db8620002b2821b17811c565b6040516020016200026e9291906200073b565b60408051601f198184030181529082905262461bcd60e51b82526200029691600401620007b4565b60405180910390fd5b6060620002096001600160a01b03831660145b60606000620002c3836002620007ff565b620002d090600262000821565b6001600160401b03811115620002ea57620002ea62000472565b6040519080825280601f01601f19166020018201604052801562000315576020820181803683370190505b509050600360fc1b8160008151811062000333576200033362000837565b60200101906001600160f81b031916908160001a905350600f60fb1b8160018151811062000365576200036562000837565b60200101906001600160f81b031916908160001a90535060006200038b846002620007ff565b6200039890600162000821565b90505b60018111156200041a576f181899199a1a9b1b9c1cb0b131b232b360811b85600f1660108110620003d057620003d062000837565b1a60f81b828281518110620003e957620003e962000837565b60200101906001600160f81b031916908160001a90535060049490941c9362000412816200084d565b90506200039b565b5083156200046b5760405162461bcd60e51b815260206004820181905260248201527f537472696e67733a20686578206c656e67746820696e73756666696369656e74604482015260640162000296565b9392505050565b634e487b7160e01b600052604160045260246000fd5b600181811c908216806200049d57607f821691505b602082108103620004be57634e487b7160e01b600052602260045260246000fd5b50919050565b601f8211156200051257600081815260208120601f850160051c81016020861015620004ed5750805b601f850160051c820191505b818110156200050e57828155600101620004f9565b5050505b505050565b81516001600160401b0381111562000533576200053362000472565b6200054b8162000544845462000488565b84620004c4565b602080601f8311600181146200058357600084156200056a5750858301515b600019600386901b1c1916600185901b1785556200050e565b600085815260208120601f198616915b82811015620005b45788860151825594840194600190910190840162000593565b5085821015620005d35787850151600019600388901b60f8161c191681555b5050505050600190811b01905550565b60005b8381101562000600578181015183820152602001620005e6565b50506000910152565b600082601f8301126200061b57600080fd5b81516001600160401b038082111562000638576200063862000472565b604051601f8301601f19908116603f0116810190828211818310171562000663576200066362000472565b816040528381528660208588010111156200067d57600080fd5b62000690846020830160208901620005e3565b9695505050505050565b600080600080600060a08688031215620006b357600080fd5b85516001600160401b0380821115620006cb57600080fd5b620006d989838a0162000609565b96506020880151915080821115620006f057600080fd5b50620006ff8882890162000609565b60408801516060890151919650945090506001600160a01b03811681146200072657600080fd5b80925050608086015190509295509295909350565b7f416363657373436f6e74726f6c3a206163636f756e742000000000000000000081526000835162000775816017850160208801620005e3565b7001034b99036b4b9b9b4b733903937b6329607d1b6017918401918201528351620007a8816028840160208801620005e3565b01602801949350505050565b6020815260008251806020840152620007d5816040850160208701620005e3565b601f01601f19169190910160400192915050565b634e487b7160e01b600052601160045260246000fd5b60008160001904831182151516156200081c576200081c620007e9565b500290565b80820180821115620002095762000209620007e9565b634e487b7160e01b600052603260045260246000fd5b6000816200085f576200085f620007e9565b506000190190565b6080516121426200088a60003960008181610418015261088b01526121426000f3fe608060405234801561001057600080fd5b50600436106101cf5760003560e01c80638b85b1f611610104578063c87b56dd116100a2578063e0df5b6f11610071578063e0df5b6f1461043a578063e985e9c51461044d578063e9c2e14b14610489578063ec87621c1461049c57600080fd5b8063c87b56dd146103c6578063d5391393146103d9578063d547741f14610400578063d5abeb011461041357600080fd5b806395d89b41116100de57806395d89b4114610390578063a217fddf14610398578063a22cb465146103a0578063b88d4fde146103b357600080fd5b80638b85b1f6146103375780638c7ea24b1461034457806391d148541461035757600080fd5b80632a55205a1161017157806342842e0e1161014b57806342842e0e146102f6578063462cce48146103095780636352211e1461031157806370a082311461032457600080fd5b80632a55205a1461029e5780632f2ff15d146102d057806336568abe146102e357600080fd5b8063095ea7b3116101ad578063095ea7b31461023c57806317d70f7c1461025157806323b872dd14610268578063248a9ca31461027b57600080fd5b806301ffc9a7146101d457806306fdde03146101fc578063081812fc14610211575b600080fd5b6101e76101e2366004611b05565b6104c3565b60405190151581526020015b60405180910390f35b610204610507565b6040516101f39190611b72565b61022461021f366004611b85565b610599565b6040516001600160a01b0390911681526020016101f3565b61024f61024a366004611bba565b6105c0565b005b61025a60085481565b6040519081526020016101f3565b61024f610276366004611be4565b6106f6565b61025a610289366004611b85565b60009081526006602052604090206001015490565b6102b16102ac366004611c20565b61076d565b604080516001600160a01b0390931683526020830191909152016101f3565b61024f6102de366004611c42565b6107b8565b61024f6102f1366004611c42565b6107dd565b61024f610304366004611be4565b610869565b6101e7610884565b61022461031f366004611b85565b6108bb565b61025a610332366004611c6e565b610920565b6009546101e79060ff1681565b61024f610352366004611bba565b6109ba565b6101e7610365366004611c42565b60009182526006602090815260408084206001600160a01b0393909316845291905290205460ff1690565b610204610a4f565b61025a600081565b61024f6103ae366004611c89565b610a5e565b61024f6103c1366004611d51565b610a69565b6102046103d4366004611b85565b610ae7565b61025a7f9f2df0fed2c77648de5860a4cc508cd0818c85b8b8a1ab4ceeef8d981c8956a681565b61024f61040e366004611c42565b610bed565b61025a7f000000000000000000000000000000000000000000000000000000000000000081565b61024f610448366004611dcd565b610c12565b6101e761045b366004611e16565b6001600160a01b03918216600090815260056020908152604080832093909416825291909152205460ff1690565b61024f610497366004611c6e565b610cb3565b61025a7f241ecf16d79d0f8dbfb92cbc07fe17840425976cf0667f022fe9877caa831b0881565b60006001600160e01b031982167f2a55205a000000000000000000000000000000000000000000000000000000001480610501575061050182610fa0565b92915050565b60606000805461051690611e40565b80601f016020809104026020016040519081016040528092919081815260200182805461054290611e40565b801561058f5780601f106105645761010080835404028352916020019161058f565b820191906000526020600020905b81548152906001019060200180831161057257829003601f168201915b5050505050905090565b60006105a482610fde565b506000908152600460205260409020546001600160a01b031690565b60006105cb826108bb565b9050806001600160a01b0316836001600160a01b0316036106595760405162461bcd60e51b815260206004820152602160248201527f4552433732313a20617070726f76616c20746f2063757272656e74206f776e6560448201527f720000000000000000000000000000000000000000000000000000000000000060648201526084015b60405180910390fd5b336001600160a01b03821614806106755750610675813361045b565b6106e75760405162461bcd60e51b815260206004820152603d60248201527f4552433732313a20617070726f76652063616c6c6572206973206e6f7420746f60448201527f6b656e206f776e6572206f7220617070726f76656420666f7220616c6c0000006064820152608401610650565b6106f18383611045565b505050565b61070033826110c0565b6107625760405162461bcd60e51b815260206004820152602d60248201527f4552433732313a2063616c6c6572206973206e6f7420746f6b656e206f776e6560448201526c1c881bdc88185c1c1c9bdd9959609a1b6064820152608401610650565b6106f183838361113f565b60408051808201909152600a546001600160a01b0316808252600b54602083018190529091600091620186a0906107a49086611e90565b6107ae9190611eaf565b9150509250929050565b6000828152600660205260409020600101546107d381611352565b6106f1838361135c565b6001600160a01b038116331461085b5760405162461bcd60e51b815260206004820152602f60248201527f416363657373436f6e74726f6c3a2063616e206f6e6c792072656e6f756e636560448201527f20726f6c657320666f722073656c6600000000000000000000000000000000006064820152608401610650565b61086582826113fe565b5050565b6106f183838360405180602001604052806000815250610a69565b60006008547f0000000000000000000000000000000000000000000000000000000000000000116108b55750600190565b50600090565b6000818152600260205260408120546001600160a01b0316806105015760405162461bcd60e51b815260206004820152601860248201527f4552433732313a20696e76616c696420746f6b656e20494400000000000000006044820152606401610650565b60006001600160a01b03821661099e5760405162461bcd60e51b815260206004820152602960248201527f4552433732313a2061646472657373207a65726f206973206e6f74206120766160448201527f6c6964206f776e657200000000000000000000000000000000000000000000006064820152608401610650565b506001600160a01b031660009081526003602052604090205490565b7f241ecf16d79d0f8dbfb92cbc07fe17840425976cf0667f022fe9877caa831b086109e481611352565b620186a0821115610a0857604051632a9ffab760e21b815260040160405180910390fd5b50604080518082019091526001600160a01b039092168083526020909201819052600a805473ffffffffffffffffffffffffffffffffffffffff1916909217909155600b55565b60606001805461051690611e40565b610865338383611481565b610a7333836110c0565b610ad55760405162461bcd60e51b815260206004820152602d60248201527f4552433732313a2063616c6c6572206973206e6f7420746f6b656e206f776e6560448201526c1c881bdc88185c1c1c9bdd9959609a1b6064820152608401610650565b610ae18484848461154f565b50505050565b6000818152600260205260409020546060906001600160a01b0316610b38576040517fb1d04f0800000000000000000000000000000000000000000000000000000000815260040160405180910390fd5b60095460ff16610b5b57604051637b81b8a160e01b815260040160405180910390fd5b60078054610b6890611e40565b80601f0160208091040260200160405190810160405280929190818152602001828054610b9490611e40565b8015610be15780601f10610bb657610100808354040283529160200191610be1565b820191906000526020600020905b815481529060010190602001808311610bc457829003601f168201915b50505050509050919050565b600082815260066020526040902060010154610c0881611352565b6106f183836113fe565b7f241ecf16d79d0f8dbfb92cbc07fe17840425976cf0667f022fe9877caa831b08610c3c81611352565b6000825111610c5e57604051632a9ffab760e21b815260040160405180910390fd5b6009805460ff191660011790556007610c778382611f1f565b507f4405f9f72187d24d444b6d55ef67bfb2ef76aacbc07d6d642a5763dd5fd77cbf82604051610ca79190611b72565b60405180910390a15050565b7f9f2df0fed2c77648de5860a4cc508cd0818c85b8b8a1ab4ceeef8d981c8956a6610cdd81611352565b60095460ff16610d0057604051637b81b8a160e01b815260040160405180910390fd5b610d08610884565b15610d3f576040517fd05cb60900000000000000000000000000000000000000000000000000000000815260040160405180910390fd5b610d4b826008546115cd565b6008546040516001600160a01b03841681527f0176f203df400d7bd5f1b1c9ef36c16709bf3b5d9fd35f000a6bae32393f66c39060200160405180910390a2600160086000828254610d9d9190611fdf565b90915550505050565b60606105016001600160a01b03831660145b60606000610dc7836002611e90565b610dd2906002611fdf565b67ffffffffffffffff811115610dea57610dea611cc5565b6040519080825280601f01601f191660200182016040528015610e14576020820181803683370190505b5090507f300000000000000000000000000000000000000000000000000000000000000081600081518110610e4b57610e4b611ff2565b60200101906001600160f81b031916908160001a9053507f780000000000000000000000000000000000000000000000000000000000000081600181518110610e9657610e96611ff2565b60200101906001600160f81b031916908160001a9053506000610eba846002611e90565b610ec5906001611fdf565b90505b6001811115610f4a577f303132333435363738396162636465660000000000000000000000000000000085600f1660108110610f0657610f06611ff2565b1a60f81b828281518110610f1c57610f1c611ff2565b60200101906001600160f81b031916908160001a90535060049490941c93610f4381612008565b9050610ec8565b508315610f995760405162461bcd60e51b815260206004820181905260248201527f537472696e67733a20686578206c656e67746820696e73756666696369656e746044820152606401610650565b9392505050565b60006001600160e01b031982167f7965db0b0000000000000000000000000000000000000000000000000000000014806105015750610501826115e7565b6000818152600260205260409020546001600160a01b03166110425760405162461bcd60e51b815260206004820152601860248201527f4552433732313a20696e76616c696420746f6b656e20494400000000000000006044820152606401610650565b50565b6000818152600460205260409020805473ffffffffffffffffffffffffffffffffffffffff19166001600160a01b0384169081179091558190611087826108bb565b6001600160a01b03167f8c5be1e5ebec7d5bd14f71427d1e84f3dd0314c0f7b2291e5b200ac8c7c3b92560405160405180910390a45050565b6000806110cc836108bb565b9050806001600160a01b0316846001600160a01b0316148061111357506001600160a01b0380821660009081526005602090815260408083209388168352929052205460ff165b806111375750836001600160a01b031661112c84610599565b6001600160a01b0316145b949350505050565b826001600160a01b0316611152826108bb565b6001600160a01b0316146111b65760405162461bcd60e51b815260206004820152602560248201527f4552433732313a207472616e736665722066726f6d20696e636f72726563742060448201526437bbb732b960d91b6064820152608401610650565b6001600160a01b0382166112315760405162461bcd60e51b8152602060048201526024808201527f4552433732313a207472616e7366657220746f20746865207a65726f2061646460448201527f72657373000000000000000000000000000000000000000000000000000000006064820152608401610650565b61123e8383836001611682565b826001600160a01b0316611251826108bb565b6001600160a01b0316146112b55760405162461bcd60e51b815260206004820152602560248201527f4552433732313a207472616e736665722066726f6d20696e636f72726563742060448201526437bbb732b960d91b6064820152608401610650565b6000818152600460209081526040808320805473ffffffffffffffffffffffffffffffffffffffff199081169091556001600160a01b0387811680865260038552838620805460001901905590871680865283862080546001019055868652600290945282852080549092168417909155905184937fddf252ad1be2c89b69c2b068fc378daa952ba7f163c4a11628f55a4df523b3ef91a4505050565b611042813361170a565b60008281526006602090815260408083206001600160a01b038516845290915290205460ff166108655760008281526006602090815260408083206001600160a01b03851684529091529020805460ff191660011790556113ba3390565b6001600160a01b0316816001600160a01b0316837f2f8788117e7eff1d82e926ec794901d17c78024a50270940304540a733656f0d60405160405180910390a45050565b60008281526006602090815260408083206001600160a01b038516845290915290205460ff16156108655760008281526006602090815260408083206001600160a01b0385168085529252808320805460ff1916905551339285917ff6391f5c32d9c69d2a47ea670b442974b53935d1edc7fd64eb21e047a839171b9190a45050565b816001600160a01b0316836001600160a01b0316036114e25760405162461bcd60e51b815260206004820152601960248201527f4552433732313a20617070726f766520746f2063616c6c6572000000000000006044820152606401610650565b6001600160a01b03838116600081815260056020908152604080832094871680845294825291829020805460ff191686151590811790915591519182527f17307eab39ab6107e8899845ad3d59bd9653f200f220920489ca2b5937696c31910160405180910390a3505050565b61155a84848461113f565b6115668484848461177f565b610ae15760405162461bcd60e51b815260206004820152603260248201527f4552433732313a207472616e7366657220746f206e6f6e20455243373231526560448201527131b2b4bb32b91034b6b83632b6b2b73a32b960711b6064820152608401610650565b6108658282604051806020016040528060008152506118cb565b60006001600160e01b031982167f80ac58cd00000000000000000000000000000000000000000000000000000000148061164a57506001600160e01b031982167f5b5e139f00000000000000000000000000000000000000000000000000000000145b8061050157507f01ffc9a7000000000000000000000000000000000000000000000000000000006001600160e01b0319831614610501565b6001811115610ae1576001600160a01b038416156116c8576001600160a01b038416600090815260036020526040812080548392906116c290849061201f565b90915550505b6001600160a01b03831615610ae1576001600160a01b038316600090815260036020526040812080548392906116ff908490611fdf565b909155505050505050565b60008281526006602090815260408083206001600160a01b038516845290915290205460ff166108655761173d81610da6565b611748836020610db8565b604051602001611759929190612032565b60408051601f198184030181529082905262461bcd60e51b825261065091600401611b72565b60006001600160a01b0384163b156118c057604051630a85bd0160e11b81526001600160a01b0385169063150b7a02906117c39033908990889088906004016120b3565b6020604051808303816000875af19250505080156117fe575060408051601f3d908101601f191682019092526117fb918101906120ef565b60015b6118a6573d80801561182c576040519150601f19603f3d011682016040523d82523d6000602084013e611831565b606091505b50805160000361189e5760405162461bcd60e51b815260206004820152603260248201527f4552433732313a207472616e7366657220746f206e6f6e20455243373231526560448201527131b2b4bb32b91034b6b83632b6b2b73a32b960711b6064820152608401610650565b805181602001fd5b6001600160e01b031916630a85bd0160e11b149050611137565b506001949350505050565b6118d58383611949565b6118e2600084848461177f565b6106f15760405162461bcd60e51b815260206004820152603260248201527f4552433732313a207472616e7366657220746f206e6f6e20455243373231526560448201527131b2b4bb32b91034b6b83632b6b2b73a32b960711b6064820152608401610650565b6001600160a01b03821661199f5760405162461bcd60e51b815260206004820181905260248201527f4552433732313a206d696e7420746f20746865207a65726f20616464726573736044820152606401610650565b6000818152600260205260409020546001600160a01b031615611a045760405162461bcd60e51b815260206004820152601c60248201527f4552433732313a20746f6b656e20616c7265616479206d696e746564000000006044820152606401610650565b611a12600083836001611682565b6000818152600260205260409020546001600160a01b031615611a775760405162461bcd60e51b815260206004820152601c60248201527f4552433732313a20746f6b656e20616c7265616479206d696e746564000000006044820152606401610650565b6001600160a01b0382166000818152600360209081526040808320805460010190558483526002909152808220805473ffffffffffffffffffffffffffffffffffffffff19168417905551839291907fddf252ad1be2c89b69c2b068fc378daa952ba7f163c4a11628f55a4df523b3ef908290a45050565b6001600160e01b03198116811461104257600080fd5b600060208284031215611b1757600080fd5b8135610f9981611aef565b60005b83811015611b3d578181015183820152602001611b25565b50506000910152565b60008151808452611b5e816020860160208601611b22565b601f01601f19169290920160200192915050565b602081526000610f996020830184611b46565b600060208284031215611b9757600080fd5b5035919050565b80356001600160a01b0381168114611bb557600080fd5b919050565b60008060408385031215611bcd57600080fd5b611bd683611b9e565b946020939093013593505050565b600080600060608486031215611bf957600080fd5b611c0284611b9e565b9250611c1060208501611b9e565b9150604084013590509250925092565b60008060408385031215611c3357600080fd5b50508035926020909101359150565b60008060408385031215611c5557600080fd5b82359150611c6560208401611b9e565b90509250929050565b600060208284031215611c8057600080fd5b610f9982611b9e565b60008060408385031215611c9c57600080fd5b611ca583611b9e565b915060208301358015158114611cba57600080fd5b809150509250929050565b634e487b7160e01b600052604160045260246000fd5b600067ffffffffffffffff80841115611cf657611cf6611cc5565b604051601f8501601f19908116603f01168101908282118183101715611d1e57611d1e611cc5565b81604052809350858152868686011115611d3757600080fd5b858560208301376000602087830101525050509392505050565b60008060008060808587031215611d6757600080fd5b611d7085611b9e565b9350611d7e60208601611b9e565b925060408501359150606085013567ffffffffffffffff811115611da157600080fd5b8501601f81018713611db257600080fd5b611dc187823560208401611cdb565b91505092959194509250565b600060208284031215611ddf57600080fd5b813567ffffffffffffffff811115611df657600080fd5b8201601f81018413611e0757600080fd5b61113784823560208401611cdb565b60008060408385031215611e2957600080fd5b611e3283611b9e565b9150611c6560208401611b9e565b600181811c90821680611e5457607f821691505b602082108103611e7457634e487b7160e01b600052602260045260246000fd5b50919050565b634e487b7160e01b600052601160045260246000fd5b6000816000190483118215151615611eaa57611eaa611e7a565b500290565b600082611ecc57634e487b7160e01b600052601260045260246000fd5b500490565b601f8211156106f157600081815260208120601f850160051c81016020861015611ef85750805b601f850160051c820191505b81811015611f1757828155600101611f04565b505050505050565b815167ffffffffffffffff811115611f3957611f39611cc5565b611f4d81611f478454611e40565b84611ed1565b602080601f831160018114611f825760008415611f6a5750858301515b600019600386901b1c1916600185901b178555611f17565b600085815260208120601f198616915b82811015611fb157888601518255948401946001909101908401611f92565b5085821015611fcf5787850151600019600388901b60f8161c191681555b5050505050600190811b01905550565b8082018082111561050157610501611e7a565b634e487b7160e01b600052603260045260246000fd5b60008161201757612017611e7a565b506000190190565b8181038181111561050157610501611e7a565b7f416363657373436f6e74726f6c3a206163636f756e742000000000000000000081526000835161206a816017850160208801611b22565b7f206973206d697373696e6720726f6c652000000000000000000000000000000060179184019182015283516120a7816028840160208801611b22565b01602801949350505050565b60006001600160a01b038087168352808616602084015250836040830152608060608301526120e56080830184611b46565b9695505050505050565b60006020828403121561210157600080fd5b8151610f9981611aef56fea264697066735822122083574f08a752e8502d0ebe32e76097338d05583a0480cb03c9ac139d0080c01964736f6c63430008100033241ecf16d79d0f8dbfb92cbc07fe17840425976cf0667f022fe9877caa831b08",
  "devdoc": {
    "custom:security-contact": "hello@crowddit.com",
    "details": "This implements ERC-721 NFT as the rewards (NFT perks) to be minted to the funders.",
    "kind": "dev",
    "methods": {
      "approve(address,uint256)": {
        "details": "See {IERC721-approve}."
      },
      "balanceOf(address)": {
        "details": "See {IERC721-balanceOf}."
      },
      "getApproved(uint256)": {
        "details": "See {IERC721-getApproved}."
      },
      "getRoleAdmin(bytes32)": {
        "details": "Returns the admin role that controls `role`. See {grantRole} and {revokeRole}. To change a role's admin, use {_setRoleAdmin}."
      },
      "grantRole(bytes32,address)": {
        "details": "Grants `role` to `account`. If `account` had not been already granted `role`, emits a {RoleGranted} event. Requirements: - the caller must have ``role``'s admin role. May emit a {RoleGranted} event."
      },
      "hasReachedCap()": {
        "details": "returns true if the maxSupply of the NFT tokens has been reached"
      },
      "hasRole(bytes32,address)": {
        "details": "Returns `true` if `account` has been granted `role`."
      },
      "isApprovedForAll(address,address)": {
        "details": "See {IERC721-isApprovedForAll}."
      },
      "mintNft(address)": {
        "details": "only the MINTER_ROLE can mint the NFT.",
        "params": {
          "_to": "the contributor address"
        }
      },
      "name()": {
        "details": "See {IERC721Metadata-name}."
      },
      "ownerOf(uint256)": {
        "details": "See {IERC721-ownerOf}."
      },
      "renounceRole(bytes32,address)": {
        "details": "Revokes `role` from the calling account. Roles are often managed via {grantRole} and {revokeRole}: this function's purpose is to provide a mechanism for accounts to lose their privileges if they are compromised (such as when a trusted device is misplaced). If the calling account had been revoked `role`, emits a {RoleRevoked} event. Requirements: - the caller must be `account`. May emit a {RoleRevoked} event."
      },
      "revokeRole(bytes32,address)": {
        "details": "Revokes `role` from `account`. If `account` had been granted `role`, emits a {RoleRevoked} event. Requirements: - the caller must have ``role``'s admin role. May emit a {RoleRevoked} event."
      },
      "royaltyInfo(uint256,uint256)": {
        "details": "The secondary marketplace have to call this function to get the royalty data",
        "params": {
          "_salePrice": "sales price of the NFT in the secondary market"
        },
        "returns": {
          "receiver": "address for receiving royalties",
          "royaltyAmount": "amount of tokens to be paid to the receiver address as royalty."
        }
      },
      "safeTransferFrom(address,address,uint256)": {
        "details": "See {IERC721-safeTransferFrom}."
      },
      "safeTransferFrom(address,address,uint256,bytes)": {
        "details": "See {IERC721-safeTransferFrom}."
      },
      "setApprovalForAll(address,bool)": {
        "details": "See {IERC721-setApprovalForAll}."
      },
      "setRoyalties(address,uint256)": {
        "details": "only MANAGER_ROLE can set the royalty fee",
        "params": {
          "_recipient": "funding category",
          "_royaltyFee": "numerator of %ge of the sales price to be paid as royalty e.g 5% => 5 * (10**5) / 100 = 5000"
        }
      },
      "setTokenURI(string)": {
        "details": "only the MANAGER_ROLE can set the token uri.",
        "params": {
          "tokenURI_": "the token uri string."
        }
      },
      "supportsInterface(bytes4)": {
        "details": "returns true for all the interfaces supported by this contract."
      },
      "symbol()": {
        "details": "See {IERC721Metadata-symbol}."
      },
      "tokenURI(uint256)": {
        "params": {
          "_tokenId": "minted token id"
        },
        "returns": {
          "_0": "tokenUri token uri"
        }
      },
      "transferFrom(address,address,uint256)": {
        "details": "See {IERC721-transferFrom}."
      }
    },
    "title": "CROWDDIT NFT Perks Contract",
    "version": 1
  },
  "userdoc": {
    "kind": "user",
    "methods": {
      "mintNft(address)": {
        "notice": "Mint NFT perks to the campaigner funders."
      },
      "setRoyalties(address,uint256)": {
        "notice": "Sets royalty address and fee"
      },
      "setTokenURI(string)": {
        "notice": "Sets token uri for the NFT contract."
      },
      "tokenURI(uint256)": {
        "notice": "token uri must be set before calling this function"
      }
    },
    "notice": "This NFT contract is for rewarding funders who contributed in the campaign.",
    "version": 1
  },
  "storageLayout": {
    "storage": [
      {
        "astId": 1696,
        "contract": "contracts/NftPerks.sol:NftPerks",
        "label": "_name",
        "offset": 0,
        "slot": "0",
        "type": "t_string_storage"
      },
      {
        "astId": 1698,
        "contract": "contracts/NftPerks.sol:NftPerks",
        "label": "_symbol",
        "offset": 0,
        "slot": "1",
        "type": "t_string_storage"
      },
      {
        "astId": 1702,
        "contract": "contracts/NftPerks.sol:NftPerks",
        "label": "_owners",
        "offset": 0,
        "slot": "2",
        "type": "t_mapping(t_uint256,t_address)"
      },
      {
        "astId": 1706,
        "contract": "contracts/NftPerks.sol:NftPerks",
        "label": "_balances",
        "offset": 0,
        "slot": "3",
        "type": "t_mapping(t_address,t_uint256)"
      },
      {
        "astId": 1710,
        "contract": "contracts/NftPerks.sol:NftPerks",
        "label": "_tokenApprovals",
        "offset": 0,
        "slot": "4",
        "type": "t_mapping(t_uint256,t_address)"
      },
      {
        "astId": 1716,
        "contract": "contracts/NftPerks.sol:NftPerks",
        "label": "_operatorApprovals",
        "offset": 0,
        "slot": "5",
        "type": "t_mapping(t_address,t_mapping(t_address,t_bool))"
      },
      {
        "astId": 24,
        "contract": "contracts/NftPerks.sol:NftPerks",
        "label": "_roles",
        "offset": 0,
        "slot": "6",
        "type": "t_mapping(t_bytes32,t_struct(RoleData)19_storage)"
      },
      {
        "astId": 6277,
        "contract": "contracts/NftPerks.sol:NftPerks",
        "label": "tokenUri",
        "offset": 0,
        "slot": "7",
        "type": "t_string_storage"
      },
      {
        "astId": 6279,
        "contract": "contracts/NftPerks.sol:NftPerks",
        "label": "tokenId",
        "offset": 0,
        "slot": "8",
        "type": "t_uint256"
      },
      {
        "astId": 6283,
        "contract": "contracts/NftPerks.sol:NftPerks",
        "label": "isTokenUriSet",
        "offset": 0,
        "slot": "9",
        "type": "t_bool"
      },
      {
        "astId": 6286,
        "contract": "contracts/NftPerks.sol:NftPerks",
        "label": "_royalties",
        "offset": 0,
        "slot": "10",
        "type": "t_struct(RoyaltyInfo)6864_storage"
      }
    ],
    "types": {
      "t_address": {
        "encoding": "inplace",
        "label": "address",
        "numberOfBytes": "20"
      },
      "t_bool": {
        "encoding": "inplace",
        "label": "bool",
        "numberOfBytes": "1"
      },
      "t_bytes32": {
        "encoding": "inplace",
        "label": "bytes32",
        "numberOfBytes": "32"
      },
      "t_mapping(t_address,t_bool)": {
        "encoding": "mapping",
        "key": "t_address",
        "label": "mapping(address => bool)",
        "numberOfBytes": "32",
        "value": "t_bool"
      },
      "t_mapping(t_address,t_mapping(t_address,t_bool))": {
        "encoding": "mapping",
        "key": "t_address",
        "label": "mapping(address => mapping(address => bool))",
        "numberOfBytes": "32",
        "value": "t_mapping(t_address,t_bool)"
      },
      "t_mapping(t_address,t_uint256)": {
        "encoding": "mapping",
        "key": "t_address",
        "label": "mapping(address => uint256)",
        "numberOfBytes": "32",
        "value": "t_uint256"
      },
      "t_mapping(t_bytes32,t_struct(RoleData)19_storage)": {
        "encoding": "mapping",
        "key": "t_bytes32",
        "label": "mapping(bytes32 => struct AccessControl.RoleData)",
        "numberOfBytes": "32",
        "value": "t_struct(RoleData)19_storage"
      },
      "t_mapping(t_uint256,t_address)": {
        "encoding": "mapping",
        "key": "t_uint256",
        "label": "mapping(uint256 => address)",
        "numberOfBytes": "32",
        "value": "t_address"
      },
      "t_string_storage": {
        "encoding": "bytes",
        "label": "string",
        "numberOfBytes": "32"
      },
      "t_struct(RoleData)19_storage": {
        "encoding": "inplace",
        "label": "struct AccessControl.RoleData",
        "members": [
          {
            "astId": 16,
            "contract": "contracts/NftPerks.sol:NftPerks",
            "label": "members",
            "offset": 0,
            "slot": "0",
            "type": "t_mapping(t_address,t_bool)"
          },
          {
            "astId": 18,
            "contract": "contracts/NftPerks.sol:NftPerks",
            "label": "adminRole",
            "offset": 0,
            "slot": "1",
            "type": "t_bytes32"
          }
        ],
        "numberOfBytes": "64"
      },
      "t_struct(RoyaltyInfo)6864_storage": {
        "encoding": "inplace",
        "label": "struct INftPerks.RoyaltyInfo",
        "members": [
          {
            "astId": 6861,
            "contract": "contracts/NftPerks.sol:NftPerks",
            "label": "recipient",
            "offset": 0,
            "slot": "0",
            "type": "t_address"
          },
          {
            "astId": 6863,
            "contract": "contracts/NftPerks.sol:NftPerks",
            "label": "amount",
            "offset": 0,
            "slot": "1",
            "type": "t_uint256"
          }
        ],
        "numberOfBytes": "64"
      },
      "t_uint256": {
        "encoding": "inplace",
        "label": "uint256",
        "numberOfBytes": "32"
      }
    }
  }
}